{"contracts/MONStaking.sol":{"MONStaking":{"abi":[{"inputs":[],"stateMutability":"nonpayable","type":"constructor"},{"inputs":[],"name":"NoActiveStake","type":"error"},{"inputs":[],"name":"NothingToClaim","type":"error"},{"inputs":[{"internalType":"uint256","name":"lockPeriodRemaining","type":"uint256"}],"name":"StakeLocked","type":"error"},{"inputs":[],"name":"ZeroStakeAmount","type":"error"},{"anonymous":false,"inputs":[{"indexed":true,"internalType":"address","name":"user","type":"address"},{"indexed":false,"internalType":"uint256","name":"amount","type":"uint256"}],"name":"RewardsClaimed","type":"event"},{"anonymous":false,"inputs":[{"indexed":true,"internalType":"address","name":"user","type":"address"},{"indexed":false,"internalType":"uint256","name":"amount","type":"uint256"},{"indexed":false,"internalType":"uint256","name":"multiplier","type":"uint256"}],"name":"Staked","type":"event"},{"anonymous":false,"inputs":[{"indexed":true,"internalType":"address","name":"user","type":"address"},{"indexed":false,"internalType":"uint256","name":"amount","type":"uint256"}],"name":"Unstaked","type":"event"},{"inputs":[],"name":"REWARD_RATE","outputs":[{"internalType":"uint256","name":"","type":"uint256"}],"stateMutability":"view","type":"function"},{"inputs":[{"internalType":"address","name":"_user","type":"address"}],"name":"calculateRewards","outputs":[{"internalType":"uint256","name":"","type":"uint256"}],"stateMutability":"view","type":"function"},{"inputs":[],"name":"claimRewards","outputs":[],"stateMutability":"nonpayable","type":"function"},{"inputs":[],"name":"getAllTiers","outputs":[{"components":[{"internalType":"uint256","name":"minStake","type":"uint256"},{"internalType":"uint256","name":"multiplier","type":"uint256"},{"internalType":"string","name":"name","type":"string"}],"internalType":"struct MONStaking.StakingTier[5]","name":"","type":"tuple[5]"}],"stateMutability":"view","type":"function"},{"inputs":[],"name":"getGlobalStats","outputs":[{"internalType":"uint256","name":"_totalStaked","type":"uint256"},{"internalType":"uint256","name":"_totalStakers","type":"uint256"}],"stateMutability":"view","type":"function"},{"inputs":[{"internalType":"address","name":"_user","type":"address"}],"name":"getStakeInfo","outputs":[{"internalType":"uint256","name":"amount","type":"uint256"},{"internalType":"uint256","name":"startTime","type":"uint256"},{"internalType":"uint256","name":"lastClaimTimeValue","type":"uint256"},{"internalType":"uint256","name":"multiplier","type":"uint256"},{"internalType":"uint256","name":"pendingRewards","type":"uint256"}],"stateMutability":"view","type":"function"},{"inputs":[{"internalType":"address","name":"_user","type":"address"}],"name":"getUserTier","outputs":[{"components":[{"internalType":"uint256","name":"minStake","type":"uint256"},{"internalType":"uint256","name":"multiplier","type":"uint256"},{"internalType":"string","name":"name","type":"string"}],"internalType":"struct MONStaking.StakingTier","name":"","type":"tuple"}],"stateMutability":"view","type":"function"},{"inputs":[{"internalType":"address","name":"","type":"address"}],"name":"lastClaimTime","outputs":[{"internalType":"uint256","name":"","type":"uint256"}],"stateMutability":"view","type":"function"},{"inputs":[{"internalType":"uint256","name":"_amount","type":"uint256"}],"name":"stake","outputs":[],"stateMutability":"payable","type":"function"},{"inputs":[{"internalType":"address","name":"","type":"address"}],"name":"stakeStartTime","outputs":[{"internalType":"uint256","name":"","type":"uint256"}],"stateMutability":"view","type":"function"},{"inputs":[{"internalType":"address","name":"","type":"address"}],"name":"stakes","outputs":[{"internalType":"uint256","name":"","type":"uint256"}],"stateMutability":"view","type":"function"},{"inputs":[{"internalType":"uint256","name":"","type":"uint256"}],"name":"tiers","outputs":[{"internalType":"uint256","name":"minStake","type":"uint256"},{"internalType":"uint256","name":"multiplier","type":"uint256"},{"internalType":"string","name":"name","type":"string"}],"stateMutability":"view","type":"function"},{"inputs":[],"name":"totalStaked","outputs":[{"internalType":"uint256","name":"","type":"uint256"}],"stateMutability":"view","type":"function"},{"inputs":[],"name":"totalStakers","outputs":[{"internalType":"uint256","name":"","type":"uint256"}],"stateMutability":"view","type":"function"},{"inputs":[{"internalType":"uint256","name":"_amount","type":"uint256"}],"name":"unstake","outputs":[],"stateMutability":"nonpayable","type":"function"},{"inputs":[{"internalType":"address","name":"","type":"address"}],"name":"userMultiplier","outputs":[{"internalType":"uint256","name":"","type":"uint256"}],"stateMutability":"view","type":"function"},{"stateMutability":"payable","type":"receive"}],"evm":{"bytecode":{"linkReferences":{},"object":"60806040523480156200001157600080fd5b50604051806060016040528068056bc75e2d631000008152602001606481526020016040518060400160405280600c81526020017f4261736963205374616b65720000000000000000000000000000000000000000815250815250600660006005811062000084576200008362000353565b5b6003020160008201518160000155602082015181600101556040820151816002019081620000b39190620005fc565b509050506040518060600160405280681b1ae4d6e2ef5000008152602001607d81526020016040518060400160405280601081526020017f4465766f74656420466f6c6c6f77657200000000000000000000000000000000815250815250600660016005811062000129576200012862000353565b5b6003020160008201518160000155602082015181600101556040820151816002019081620001589190620005fc565b50905050604051806060016040528068878678326eac9000008152602001609681526020016040518060400160405280600d81526020017f486f6c79204469736369706c65000000000000000000000000000000000000008152508152506006600260058110620001ce57620001cd62000353565b5b6003020160008201518160000155602082015181600101556040820151816002019081620001fd9190620005fc565b50905050604051806060016040528069021e19e0c9bab2400000815260200160c881526020016040518060400160405280600781526020017f41706f73746c6500000000000000000000000000000000000000000000000000815250815250600660036005811062000274576200027362000353565b5b6003020160008201518160000155602082015181600101556040820151816002019081620002a39190620005fc565b50905050604051806060016040528069054b40b1f852bda00000815260200160fa81526020016040518060400160405280600b81526020017f486967682050726965737400000000000000000000000000000000000000000081525081525060066004600581106200031a576200031962000353565b5b6003020160008201518160000155602082015181600101556040820151816002019081620003499190620005fc565b50905050620006e3565b7f4e487b7100000000000000000000000000000000000000000000000000000000600052603260045260246000fd5b600081519050919050565b7f4e487b7100000000000000000000000000000000000000000000000000000000600052604160045260246000fd5b7f4e487b7100000000000000000000000000000000000000000000000000000000600052602260045260246000fd5b600060028204905060018216806200040457607f821691505b6020821081036200041a5762000419620003bc565b5b50919050565b60008190508160005260206000209050919050565b60006020601f8301049050919050565b600082821b905092915050565b600060088302620004847fffffffffffffffffffffffffffffffffffffffffffffffffffffffffffffffff8262000445565b62000490868362000445565b95508019841693508086168417925050509392505050565b6000819050919050565b6000819050919050565b6000620004dd620004d7620004d184620004a8565b620004b2565b620004a8565b9050919050565b6000819050919050565b620004f983620004bc565b620005116200050882620004e4565b84845462000452565b825550505050565b600090565b6200052862000519565b62000535818484620004ee565b505050565b5b818110156200055d57620005516000826200051e565b6001810190506200053b565b5050565b601f821115620005ac57620005768162000420565b620005818462000435565b8101602085101562000591578190505b620005a9620005a08562000435565b8301826200053a565b50505b505050565b600082821c905092915050565b6000620005d160001984600802620005b1565b1980831691505092915050565b6000620005ec8383620005be565b9150826002028217905092915050565b620006078262000382565b67ffffffffffffffff8111156200062357620006226200038d565b5b6200062f8254620003eb565b6200063c82828562000561565b600060209050601f8311600181146200067457600084156200065f578287015190505b6200066b8582620005de565b865550620006db565b601f198416620006848662000420565b60005b82811015620006ae5784890151825560018201915060208501945060208101905062000687565b86831015620006ce5784890151620006ca601f891682620005be565b8355505b6001600288020188555050505b505050505050565b611be280620006f36000396000f3fe6080604052600436106100f75760003560e01c80636b4169c31161008a578063b1a03b6b11610059578063b1a03b6b14610340578063b77cf9c61461037d578063c3453153146103ba578063e4d2620e146103fb57610111565b80636b4169c3146102a2578063817b1cd2146102ce57806386989038146102f9578063a694fc3a1461032457610111565b80635997bb37116100c65780635997bb37146101d25780636471af83146101fd57806364ab8675146102285780636985e6d81461026557610111565b8063039af9eb1461011657806316934fc4146101555780632e17de7814610192578063372500ab146101bb57610111565b3661011157600034111561010f5761010e34610438565b5b005b600080fd5b34801561012257600080fd5b5061013d6004803603810190610138919061149b565b610715565b60405161014c93929190611567565b60405180910390f35b34801561016157600080fd5b5061017c60048036038101906101779190611603565b6107cd565b6040516101899190611630565b60405180910390f35b34801561019e57600080fd5b506101b960048036038101906101b4919061149b565b6107e5565b005b3480156101c757600080fd5b506101d0610b75565b005b3480156101de57600080fd5b506101e7610c40565b6040516101f49190611630565b60405180910390f35b34801561020957600080fd5b50610212610c4b565b60405161021f91906117aa565b60405180910390f35b34801561023457600080fd5b5061024f600480360381019061024a9190611603565b610d60565b60405161025c9190611630565b60405180910390f35b34801561027157600080fd5b5061028c60048036038101906102879190611603565b610e7d565b6040516102999190611630565b60405180910390f35b3480156102ae57600080fd5b506102b7610e95565b6040516102c59291906117cc565b60405180910390f35b3480156102da57600080fd5b506102e3610ea6565b6040516102f09190611630565b60405180910390f35b34801561030557600080fd5b5061030e610eac565b60405161031b9190611630565b60405180910390f35b61033e6004803603810190610339919061149b565b610eb2565b005b34801561034c57600080fd5b5061036760048036038101906103629190611603565b610f3b565b6040516103749190611630565b60405180910390f35b34801561038957600080fd5b506103a4600480360381019061039f9190611603565b610f53565b6040516103b19190611630565b60405180910390f35b3480156103c657600080fd5b506103e160048036038101906103dc9190611603565b610f6b565b6040516103f29594939291906117f5565b60405180910390f35b34801561040757600080fd5b50610422600480360381019061041d9190611603565b61108e565b60405161042f9190611898565b60405180910390f35b60008060003373ffffffffffffffffffffffffffffffffffffffff1673ffffffffffffffffffffffffffffffffffffffff1681526020019081526020016000205411156104fa57600061048a33610d60565b9050600081111561049f5761049e816112bb565b5b816000803373ffffffffffffffffffffffffffffffffffffffff1673ffffffffffffffffffffffffffffffffffffffff16815260200190815260200160002060008282546104ed91906118e9565b92505081905550506105e0565b806000803373ffffffffffffffffffffffffffffffffffffffff1673ffffffffffffffffffffffffffffffffffffffff1681526020019081526020016000208190555042600160003373ffffffffffffffffffffffffffffffffffffffff1673ffffffffffffffffffffffffffffffffffffffff1681526020019081526020016000208190555042600260003373ffffffffffffffffffffffffffffffffffffffff1673ffffffffffffffffffffffffffffffffffffffff168152602001908152602001600020819055506001600560008282546105d891906118e9565b925050819055505b80600460008282546105f291906118e9565b925050819055506106406000803373ffffffffffffffffffffffffffffffffffffffff1673ffffffffffffffffffffffffffffffffffffffff16815260200190815260200160002054611397565b600360003373ffffffffffffffffffffffffffffffffffffffff1673ffffffffffffffffffffffffffffffffffffffff168152602001908152602001600020819055503373ffffffffffffffffffffffffffffffffffffffff167f1449c6dd7851abc30abf37f57715f492010519147cc2652fbc38202c18a6ee9082600360003373ffffffffffffffffffffffffffffffffffffffff1673ffffffffffffffffffffffffffffffffffffffff1681526020019081526020016000205460405161070a9291906117cc565b60405180910390a250565b6006816005811061072557600080fd5b6003020160009150905080600001549080600101549080600201805461074a9061194c565b80601f01602080910402602001604051908101604052809291908181526020018280546107769061194c565b80156107c35780601f10610798576101008083540402835291602001916107c3565b820191906000526020600020905b8154815290600101906020018083116107a657829003601f168201915b5050505050905083565b60006020528060005260406000206000915090505481565b60008060003373ffffffffffffffffffffffffffffffffffffffff1673ffffffffffffffffffffffffffffffffffffffff168152602001908152602001600020540361085d576040517ffb34894200000000000000000000000000000000000000000000000000000000815260040160405180910390fd5b60008103610897576040517ff69a94d300000000000000000000000000000000000000000000000000000000815260040160405180910390fd5b6000803373ffffffffffffffffffffffffffffffffffffffff1673ffffffffffffffffffffffffffffffffffffffff16815260200190815260200160002054811115610918576040517f08c379a000000000000000000000000000000000000000000000000000000000815260040161090f906119c9565b60405180910390fd5b600061092333610d60565b9050600081111561093857610937816112bb565b5b816000803373ffffffffffffffffffffffffffffffffffffffff1673ffffffffffffffffffffffffffffffffffffffff168152602001908152602001600020600082825461098691906119e9565b92505081905550816004600082825461099f91906119e9565b9250508190555060008060003373ffffffffffffffffffffffffffffffffffffffff1673ffffffffffffffffffffffffffffffffffffffff168152602001908152602001600020541115610a7c57610a346000803373ffffffffffffffffffffffffffffffffffffffff1673ffffffffffffffffffffffffffffffffffffffff16815260200190815260200160002054611397565b600360003373ffffffffffffffffffffffffffffffffffffffff1673ffffffffffffffffffffffffffffffffffffffff16815260200190815260200160002081905550610adc565b6000600360003373ffffffffffffffffffffffffffffffffffffffff1673ffffffffffffffffffffffffffffffffffffffff16815260200190815260200160002081905550600160056000828254610ad491906119e9565b925050819055505b3373ffffffffffffffffffffffffffffffffffffffff166108fc839081150290604051600060405180830381858888f19350505050158015610b22573d6000803e3d6000fd5b503373ffffffffffffffffffffffffffffffffffffffff167f0f5bb82176feb1b5e747e28471aa92156a04d9f3ab9f45f28e2d704232b93f7583604051610b699190611630565b60405180910390a25050565b60008060003373ffffffffffffffffffffffffffffffffffffffff1673ffffffffffffffffffffffffffffffffffffffff1681526020019081526020016000205403610bed576040517ffb34894200000000000000000000000000000000000000000000000000000000815260040160405180910390fd5b6000610bf833610d60565b905060008103610c34576040517f969bf72800000000000000000000000000000000000000000000000000000000815260040160405180910390fd5b610c3d816112bb565b50565b66038d7ea4c6800081565b610c53611412565b610c5b611412565b60005b6005811015610d585760068160058110610c7b57610c7a611a1d565b5b600302016040518060600160405290816000820154815260200160018201548152602001600282018054610cae9061194c565b80601f0160208091040260200160405190810160405280929190818152602001828054610cda9061194c565b8015610d275780601f10610cfc57610100808354040283529160200191610d27565b820191906000526020600020905b815481529060010190602001808311610d0a57829003601f168201915b505050505081525050828260058110610d4357610d42611a1d565b5b60200201819052508080600101915050610c5e565b508091505090565b6000806000808473ffffffffffffffffffffffffffffffffffffffff1673ffffffffffffffffffffffffffffffffffffffff1681526020019081526020016000205403610db05760009050610e78565b6000600260008473ffffffffffffffffffffffffffffffffffffffff1673ffffffffffffffffffffffffffffffffffffffff1681526020019081526020016000205442610dfd91906119e9565b90506000600360008573ffffffffffffffffffffffffffffffffffffffff1673ffffffffffffffffffffffffffffffffffffffff16815260200190815260200160002054905060006064828466038d7ea4c68000610e5b9190611a4c565b610e659190611a4c565b610e6f9190611abd565b90508093505050505b919050565b60016020528060005260406000206000915090505481565b600080600454600554915091509091565b60045481565b60055481565b60008103610eec576040517ff69a94d300000000000000000000000000000000000000000000000000000000815260040160405180910390fd5b80341015610f2f576040517f08c379a0000000000000000000000000000000000000000000000000000000008152600401610f2690611b3a565b60405180910390fd5b610f3881610438565b50565b60036020528060005260406000206000915090505481565b60026020528060005260406000206000915090505481565b60008060008060008060008773ffffffffffffffffffffffffffffffffffffffff1673ffffffffffffffffffffffffffffffffffffffff16815260200190815260200160002054600160008873ffffffffffffffffffffffffffffffffffffffff1673ffffffffffffffffffffffffffffffffffffffff16815260200190815260200160002054600260008973ffffffffffffffffffffffffffffffffffffffff1673ffffffffffffffffffffffffffffffffffffffff16815260200190815260200160002054600360008a73ffffffffffffffffffffffffffffffffffffffff1673ffffffffffffffffffffffffffffffffffffffff1681526020019081526020016000205461107b8a610d60565b9450945094509450945091939590929450565b61109661143f565b6000600360008473ffffffffffffffffffffffffffffffffffffffff1673ffffffffffffffffffffffffffffffffffffffff16815260200190815260200160002054905060005b60058110156111e75781600682600581106110fb576110fa611a1d565b5b6003020160010154036111da576006816005811061111c5761111b611a1d565b5b60030201604051806060016040529081600082015481526020016001820154815260200160028201805461114f9061194c565b80601f016020809104026020016040519081016040528092919081815260200182805461117b9061194c565b80156111c85780601f1061119d576101008083540402835291602001916111c8565b820191906000526020600020905b8154815290600101906020018083116111ab57829003601f168201915b505050505081525050925050506112b6565b80806001019150506110dd565b5060066000600581106111fd576111fc611a1d565b5b6003020160405180606001604052908160008201548152602001600182015481526020016002820180546112309061194c565b80601f016020809104026020016040519081016040528092919081815260200182805461125c9061194c565b80156112a95780601f1061127e576101008083540402835291602001916112a9565b820191906000526020600020905b81548152906001019060200180831161128c57829003601f168201915b5050505050815250509150505b919050565b42600260003373ffffffffffffffffffffffffffffffffffffffff1673ffffffffffffffffffffffffffffffffffffffff168152602001908152602001600020819055503373ffffffffffffffffffffffffffffffffffffffff166108fc829081150290604051600060405180830381858888f19350505050158015611345573d6000803e3d6000fd5b503373ffffffffffffffffffffffffffffffffffffffff167ffc30cddea38e2bf4d6ea7d3f9ed3b6ad7f176419f4963bd81318067a4aee73fe8260405161138c9190611630565b60405180910390a250565b600080600490505b60008112611407576000819050600681600581106113c0576113bf611a1d565b5b600302016000015484106113f357600681600581106113e2576113e1611a1d565b5b60030201600101549250505061140d565b5080806113ff90611b64565b91505061139f565b50606490505b919050565b6040518060a001604052806005905b61142961143f565b8152602001906001900390816114215790505090565b60405180606001604052806000815260200160008152602001606081525090565b600080fd5b6000819050919050565b61147881611465565b811461148357600080fd5b50565b6000813590506114958161146f565b92915050565b6000602082840312156114b1576114b0611460565b5b60006114bf84828501611486565b91505092915050565b6114d181611465565b82525050565b600081519050919050565b600082825260208201905092915050565b60005b838110156115115780820151818401526020810190506114f6565b60008484015250505050565b6000601f19601f8301169050919050565b6000611539826114d7565b61154381856114e2565b93506115538185602086016114f3565b61155c8161151d565b840191505092915050565b600060608201905061157c60008301866114c8565b61158960208301856114c8565b818103604083015261159b818461152e565b9050949350505050565b600073ffffffffffffffffffffffffffffffffffffffff82169050919050565b60006115d0826115a5565b9050919050565b6115e0816115c5565b81146115eb57600080fd5b50565b6000813590506115fd816115d7565b92915050565b60006020828403121561161957611618611460565b5b6000611627848285016115ee565b91505092915050565b600060208201905061164560008301846114c8565b92915050565b600060059050919050565b600081905092915050565b6000819050919050565b61167481611465565b82525050565b600082825260208201905092915050565b6000611696826114d7565b6116a0818561167a565b93506116b08185602086016114f3565b6116b98161151d565b840191505092915050565b60006060830160008301516116dc600086018261166b565b5060208301516116ef602086018261166b565b5060408301518482036040860152611707828261168b565b9150508091505092915050565b600061172083836116c4565b905092915050565b6000602082019050919050565b60006117408261164b565b61174a8185611656565b93508360208202850161175c85611661565b8060005b8581101561179857848403895281516117798582611714565b945061178483611728565b925060208a01995050600181019050611760565b50829750879550505050505092915050565b600060208201905081810360008301526117c48184611735565b905092915050565b60006040820190506117e160008301856114c8565b6117ee60208301846114c8565b9392505050565b600060a08201905061180a60008301886114c8565b61181760208301876114c8565b61182460408301866114c8565b61183160608301856114c8565b61183e60808301846114c8565b9695505050505050565b6000606083016000830151611860600086018261166b565b506020830151611873602086018261166b565b506040830151848203604086015261188b828261168b565b9150508091505092915050565b600060208201905081810360008301526118b28184611848565b905092915050565b7f4e487b7100000000000000000000000000000000000000000000000000000000600052601160045260246000fd5b60006118f482611465565b91506118ff83611465565b9250828201905080821115611917576119166118ba565b5b92915050565b7f4e487b7100000000000000000000000000000000000000000000000000000000600052602260045260246000fd5b6000600282049050600182168061196457607f821691505b6020821081036119775761197661191d565b5b50919050565b7f416d6f756e742065786365656473207374616b65642062616c616e6365000000600082015250565b60006119b3601d836114e2565b91506119be8261197d565b602082019050919050565b600060208201905081810360008301526119e2816119a6565b9050919050565b60006119f482611465565b91506119ff83611465565b9250828203905081811115611a1757611a166118ba565b5b92915050565b7f4e487b7100000000000000000000000000000000000000000000000000000000600052603260045260246000fd5b6000611a5782611465565b9150611a6283611465565b9250828202611a7081611465565b91508282048414831517611a8757611a866118ba565b5b5092915050565b7f4e487b7100000000000000000000000000000000000000000000000000000000600052601260045260246000fd5b6000611ac882611465565b9150611ad383611465565b925082611ae357611ae2611a8e565b5b828204905092915050565b7f496e73756666696369656e74204d4f4e2073656e740000000000000000000000600082015250565b6000611b246015836114e2565b9150611b2f82611aee565b602082019050919050565b60006020820190508181036000830152611b5381611b17565b9050919050565b6000819050919050565b6000611b6f82611b5a565b91507f80000000000000000000000000000000000000000000000000000000000000008203611ba157611ba06118ba565b5b60018203905091905056fea2646970667358221220ed54a7830ccd763dd15537629b18e768550333611f22859de9e513e45657d8fa64736f6c63430008180033","opcodes":"PUSH1 0x80 PUSH1 0x40 MSTORE CALLVALUE DUP1 ISZERO PUSH3 0x11 JUMPI PUSH1 0x0 DUP1 REVERT JUMPDEST POP PUSH1 0x40 MLOAD DUP1 PUSH1 0x60 ADD PUSH1 0x40 MSTORE DUP1 PUSH9 0x56BC75E2D63100000 DUP2 MSTORE PUSH1 0x20 ADD PUSH1 0x64 DUP2 MSTORE PUSH1 0x20 ADD PUSH1 0x40 MLOAD DUP1 PUSH1 0x40 ADD PUSH1 0x40 MSTORE DUP1 PUSH1 0xC DUP2 MSTORE PUSH1 0x20 ADD PUSH32 0x4261736963205374616B65720000000000000000000000000000000000000000 DUP2 MSTORE POP DUP2 MSTORE POP PUSH1 0x6 PUSH1 0x0 PUSH1 0x5 DUP2 LT PUSH3 0x84 JUMPI PUSH3 0x83 PUSH3 0x353 JUMP JUMPDEST JUMPDEST PUSH1 0x3 MUL ADD PUSH1 0x0 DUP3 ADD MLOAD DUP2 PUSH1 0x0 ADD SSTORE PUSH1 0x20 DUP3 ADD MLOAD DUP2 PUSH1 0x1 ADD SSTORE PUSH1 0x40 DUP3 ADD MLOAD DUP2 PUSH1 0x2 ADD SWAP1 DUP2 PUSH3 0xB3 SWAP2 SWAP1 PUSH3 0x5FC JUMP JUMPDEST POP SWAP1 POP POP PUSH1 0x40 MLOAD DUP1 PUSH1 0x60 ADD PUSH1 0x40 MSTORE DUP1 PUSH9 0x1B1AE4D6E2EF500000 DUP2 MSTORE PUSH1 0x20 ADD PUSH1 0x7D DUP2 MSTORE PUSH1 0x20 ADD PUSH1 0x40 MLOAD DUP1 PUSH1 0x40 ADD PUSH1 0x40 MSTORE DUP1 PUSH1 0x10 DUP2 MSTORE PUSH1 0x20 ADD PUSH32 0x4465766F74656420466F6C6C6F77657200000000000000000000000000000000 DUP2 MSTORE POP DUP2 MSTORE POP PUSH1 0x6 PUSH1 0x1 PUSH1 0x5 DUP2 LT PUSH3 0x129 JUMPI PUSH3 0x128 PUSH3 0x353 JUMP JUMPDEST JUMPDEST PUSH1 0x3 MUL ADD PUSH1 0x0 DUP3 ADD MLOAD DUP2 PUSH1 0x0 ADD SSTORE PUSH1 0x20 DUP3 ADD MLOAD DUP2 PUSH1 0x1 ADD SSTORE PUSH1 0x40 DUP3 ADD MLOAD DUP2 PUSH1 0x2 ADD SWAP1 DUP2 PUSH3 0x158 SWAP2 SWAP1 PUSH3 0x5FC JUMP JUMPDEST POP SWAP1 POP POP PUSH1 0x40 MLOAD DUP1 PUSH1 0x60 ADD PUSH1 0x40 MSTORE DUP1 PUSH9 0x878678326EAC900000 DUP2 MSTORE PUSH1 0x20 ADD PUSH1 0x96 DUP2 MSTORE PUSH1 0x20 ADD PUSH1 0x40 MLOAD DUP1 PUSH1 0x40 ADD PUSH1 0x40 MSTORE DUP1 PUSH1 0xD DUP2 MSTORE PUSH1 0x20 ADD PUSH32 0x486F6C79204469736369706C6500000000000000000000000000000000000000 DUP2 MSTORE POP DUP2 MSTORE POP PUSH1 0x6 PUSH1 0x2 PUSH1 0x5 DUP2 LT PUSH3 0x1CE JUMPI PUSH3 0x1CD PUSH3 0x353 JUMP JUMPDEST JUMPDEST PUSH1 0x3 MUL ADD PUSH1 0x0 DUP3 ADD MLOAD DUP2 PUSH1 0x0 ADD SSTORE PUSH1 0x20 DUP3 ADD MLOAD DUP2 PUSH1 0x1 ADD SSTORE PUSH1 0x40 DUP3 ADD MLOAD DUP2 PUSH1 0x2 ADD SWAP1 DUP2 PUSH3 0x1FD SWAP2 SWAP1 PUSH3 0x5FC JUMP JUMPDEST POP SWAP1 POP POP PUSH1 0x40 MLOAD DUP1 PUSH1 0x60 ADD PUSH1 0x40 MSTORE DUP1 PUSH10 0x21E19E0C9BAB2400000 DUP2 MSTORE PUSH1 0x20 ADD PUSH1 0xC8 DUP2 MSTORE PUSH1 0x20 ADD PUSH1 0x40 MLOAD DUP1 PUSH1 0x40 ADD PUSH1 0x40 MSTORE DUP1 PUSH1 0x7 DUP2 MSTORE PUSH1 0x20 ADD PUSH32 0x41706F73746C6500000000000000000000000000000000000000000000000000 DUP2 MSTORE POP DUP2 MSTORE POP PUSH1 0x6 PUSH1 0x3 PUSH1 0x5 DUP2 LT PUSH3 0x274 JUMPI PUSH3 0x273 PUSH3 0x353 JUMP JUMPDEST JUMPDEST PUSH1 0x3 MUL ADD PUSH1 0x0 DUP3 ADD MLOAD DUP2 PUSH1 0x0 ADD SSTORE PUSH1 0x20 DUP3 ADD MLOAD DUP2 PUSH1 0x1 ADD SSTORE PUSH1 0x40 DUP3 ADD MLOAD DUP2 PUSH1 0x2 ADD SWAP1 DUP2 PUSH3 0x2A3 SWAP2 SWAP1 PUSH3 0x5FC JUMP JUMPDEST POP SWAP1 POP POP PUSH1 0x40 MLOAD DUP1 PUSH1 0x60 ADD PUSH1 0x40 MSTORE DUP1 PUSH10 0x54B40B1F852BDA00000 DUP2 MSTORE PUSH1 0x20 ADD PUSH1 0xFA DUP2 MSTORE PUSH1 0x20 ADD PUSH1 0x40 MLOAD DUP1 PUSH1 0x40 ADD PUSH1 0x40 MSTORE DUP1 PUSH1 0xB DUP2 MSTORE PUSH1 0x20 ADD PUSH32 0x4869676820507269657374000000000000000000000000000000000000000000 DUP2 MSTORE POP DUP2 MSTORE POP PUSH1 0x6 PUSH1 0x4 PUSH1 0x5 DUP2 LT PUSH3 0x31A JUMPI PUSH3 0x319 PUSH3 0x353 JUMP JUMPDEST JUMPDEST PUSH1 0x3 MUL ADD PUSH1 0x0 DUP3 ADD MLOAD DUP2 PUSH1 0x0 ADD SSTORE PUSH1 0x20 DUP3 ADD MLOAD DUP2 PUSH1 0x1 ADD SSTORE PUSH1 0x40 DUP3 ADD MLOAD DUP2 PUSH1 0x2 ADD SWAP1 DUP2 PUSH3 0x349 SWAP2 SWAP1 PUSH3 0x5FC JUMP JUMPDEST POP SWAP1 POP POP PUSH3 0x6E3 JUMP JUMPDEST PUSH32 0x4E487B7100000000000000000000000000000000000000000000000000000000 PUSH1 0x0 MSTORE PUSH1 0x32 PUSH1 0x4 MSTORE PUSH1 0x24 PUSH1 0x0 REVERT JUMPDEST PUSH1 0x0 DUP2 MLOAD SWAP1 POP SWAP2 SWAP1 POP JUMP JUMPDEST PUSH32 0x4E487B7100000000000000000000000000000000000000000000000000000000 PUSH1 0x0 MSTORE PUSH1 0x41 PUSH1 0x4 MSTORE PUSH1 0x24 PUSH1 0x0 REVERT JUMPDEST PUSH32 0x4E487B7100000000000000000000000000000000000000000000000000000000 PUSH1 0x0 MSTORE PUSH1 0x22 PUSH1 0x4 MSTORE PUSH1 0x24 PUSH1 0x0 REVERT JUMPDEST PUSH1 0x0 PUSH1 0x2 DUP3 DIV SWAP1 POP PUSH1 0x1 DUP3 AND DUP1 PUSH3 0x404 JUMPI PUSH1 0x7F DUP3 AND SWAP2 POP JUMPDEST PUSH1 0x20 DUP3 LT DUP2 SUB PUSH3 0x41A JUMPI PUSH3 0x419 PUSH3 0x3BC JUMP JUMPDEST JUMPDEST POP SWAP2 SWAP1 POP JUMP JUMPDEST PUSH1 0x0 DUP2 SWAP1 POP DUP2 PUSH1 0x0 MSTORE PUSH1 0x20 PUSH1 0x0 KECCAK256 SWAP1 POP SWAP2 SWAP1 POP JUMP JUMPDEST PUSH1 0x0 PUSH1 0x20 PUSH1 0x1F DUP4 ADD DIV SWAP1 POP SWAP2 SWAP1 POP JUMP JUMPDEST PUSH1 0x0 DUP3 DUP3 SHL SWAP1 POP SWAP3 SWAP2 POP POP JUMP JUMPDEST PUSH1 0x0 PUSH1 0x8 DUP4 MUL PUSH3 0x484 PUSH32 0xFFFFFFFFFFFFFFFFFFFFFFFFFFFFFFFFFFFFFFFFFFFFFFFFFFFFFFFFFFFFFFFF DUP3 PUSH3 0x445 JUMP JUMPDEST PUSH3 0x490 DUP7 DUP4 PUSH3 0x445 JUMP JUMPDEST SWAP6 POP DUP1 NOT DUP5 AND SWAP4 POP DUP1 DUP7 AND DUP5 OR SWAP3 POP POP POP SWAP4 SWAP3 POP POP POP JUMP JUMPDEST PUSH1 0x0 DUP2 SWAP1 POP SWAP2 SWAP1 POP JUMP JUMPDEST PUSH1 0x0 DUP2 SWAP1 POP SWAP2 SWAP1 POP JUMP JUMPDEST PUSH1 0x0 PUSH3 0x4DD PUSH3 0x4D7 PUSH3 0x4D1 DUP5 PUSH3 0x4A8 JUMP JUMPDEST PUSH3 0x4B2 JUMP JUMPDEST PUSH3 0x4A8 JUMP JUMPDEST SWAP1 POP SWAP2 SWAP1 POP JUMP JUMPDEST PUSH1 0x0 DUP2 SWAP1 POP SWAP2 SWAP1 POP JUMP JUMPDEST PUSH3 0x4F9 DUP4 PUSH3 0x4BC JUMP JUMPDEST PUSH3 0x511 PUSH3 0x508 DUP3 PUSH3 0x4E4 JUMP JUMPDEST DUP5 DUP5 SLOAD PUSH3 0x452 JUMP JUMPDEST DUP3 SSTORE POP POP POP POP JUMP JUMPDEST PUSH1 0x0 SWAP1 JUMP JUMPDEST PUSH3 0x528 PUSH3 0x519 JUMP JUMPDEST PUSH3 0x535 DUP2 DUP5 DUP5 PUSH3 0x4EE JUMP JUMPDEST POP POP POP JUMP JUMPDEST JUMPDEST DUP2 DUP2 LT ISZERO PUSH3 0x55D JUMPI PUSH3 0x551 PUSH1 0x0 DUP3 PUSH3 0x51E JUMP JUMPDEST PUSH1 0x1 DUP2 ADD SWAP1 POP PUSH3 0x53B JUMP JUMPDEST POP POP JUMP JUMPDEST PUSH1 0x1F DUP3 GT ISZERO PUSH3 0x5AC JUMPI PUSH3 0x576 DUP2 PUSH3 0x420 JUMP JUMPDEST PUSH3 0x581 DUP5 PUSH3 0x435 JUMP JUMPDEST DUP2 ADD PUSH1 0x20 DUP6 LT ISZERO PUSH3 0x591 JUMPI DUP2 SWAP1 POP JUMPDEST PUSH3 0x5A9 PUSH3 0x5A0 DUP6 PUSH3 0x435 JUMP JUMPDEST DUP4 ADD DUP3 PUSH3 0x53A JUMP JUMPDEST POP POP JUMPDEST POP POP POP JUMP JUMPDEST PUSH1 0x0 DUP3 DUP3 SHR SWAP1 POP SWAP3 SWAP2 POP POP JUMP JUMPDEST PUSH1 0x0 PUSH3 0x5D1 PUSH1 0x0 NOT DUP5 PUSH1 0x8 MUL PUSH3 0x5B1 JUMP JUMPDEST NOT DUP1 DUP4 AND SWAP2 POP POP SWAP3 SWAP2 POP POP JUMP JUMPDEST PUSH1 0x0 PUSH3 0x5EC DUP4 DUP4 PUSH3 0x5BE JUMP JUMPDEST SWAP2 POP DUP3 PUSH1 0x2 MUL DUP3 OR SWAP1 POP SWAP3 SWAP2 POP POP JUMP JUMPDEST PUSH3 0x607 DUP3 PUSH3 0x382 JUMP JUMPDEST PUSH8 0xFFFFFFFFFFFFFFFF DUP2 GT ISZERO PUSH3 0x623 JUMPI PUSH3 0x622 PUSH3 0x38D JUMP JUMPDEST JUMPDEST PUSH3 0x62F DUP3 SLOAD PUSH3 0x3EB JUMP JUMPDEST PUSH3 0x63C DUP3 DUP3 DUP6 PUSH3 0x561 JUMP JUMPDEST PUSH1 0x0 PUSH1 0x20 SWAP1 POP PUSH1 0x1F DUP4 GT PUSH1 0x1 DUP2 EQ PUSH3 0x674 JUMPI PUSH1 0x0 DUP5 ISZERO PUSH3 0x65F JUMPI DUP3 DUP8 ADD MLOAD SWAP1 POP JUMPDEST PUSH3 0x66B DUP6 DUP3 PUSH3 0x5DE JUMP JUMPDEST DUP7 SSTORE POP PUSH3 0x6DB JUMP JUMPDEST PUSH1 0x1F NOT DUP5 AND PUSH3 0x684 DUP7 PUSH3 0x420 JUMP JUMPDEST PUSH1 0x0 JUMPDEST DUP3 DUP2 LT ISZERO PUSH3 0x6AE JUMPI DUP5 DUP10 ADD MLOAD DUP3 SSTORE PUSH1 0x1 DUP3 ADD SWAP2 POP PUSH1 0x20 DUP6 ADD SWAP5 POP PUSH1 0x20 DUP2 ADD SWAP1 POP PUSH3 0x687 JUMP JUMPDEST DUP7 DUP4 LT ISZERO PUSH3 0x6CE JUMPI DUP5 DUP10 ADD MLOAD PUSH3 0x6CA PUSH1 0x1F DUP10 AND DUP3 PUSH3 0x5BE JUMP JUMPDEST DUP4 SSTORE POP JUMPDEST PUSH1 0x1 PUSH1 0x2 DUP9 MUL ADD DUP9 SSTORE POP POP POP JUMPDEST POP POP POP POP POP POP JUMP JUMPDEST PUSH2 0x1BE2 DUP1 PUSH3 0x6F3 PUSH1 0x0 CODECOPY PUSH1 0x0 RETURN INVALID PUSH1 0x80 PUSH1 0x40 MSTORE PUSH1 0x4 CALLDATASIZE LT PUSH2 0xF7 JUMPI PUSH1 0x0 CALLDATALOAD PUSH1 0xE0 SHR DUP1 PUSH4 0x6B4169C3 GT PUSH2 0x8A JUMPI DUP1 PUSH4 0xB1A03B6B GT PUSH2 0x59 JUMPI DUP1 PUSH4 0xB1A03B6B EQ PUSH2 0x340 JUMPI DUP1 PUSH4 0xB77CF9C6 EQ PUSH2 0x37D JUMPI DUP1 PUSH4 0xC3453153 EQ PUSH2 0x3BA JUMPI DUP1 PUSH4 0xE4D2620E EQ PUSH2 0x3FB JUMPI PUSH2 0x111 JUMP JUMPDEST DUP1 PUSH4 0x6B4169C3 EQ PUSH2 0x2A2 JUMPI DUP1 PUSH4 0x817B1CD2 EQ PUSH2 0x2CE JUMPI DUP1 PUSH4 0x86989038 EQ PUSH2 0x2F9 JUMPI DUP1 PUSH4 0xA694FC3A EQ PUSH2 0x324 JUMPI PUSH2 0x111 JUMP JUMPDEST DUP1 PUSH4 0x5997BB37 GT PUSH2 0xC6 JUMPI DUP1 PUSH4 0x5997BB37 EQ PUSH2 0x1D2 JUMPI DUP1 PUSH4 0x6471AF83 EQ PUSH2 0x1FD JUMPI DUP1 PUSH4 0x64AB8675 EQ PUSH2 0x228 JUMPI DUP1 PUSH4 0x6985E6D8 EQ PUSH2 0x265 JUMPI PUSH2 0x111 JUMP JUMPDEST DUP1 PUSH4 0x39AF9EB EQ PUSH2 0x116 JUMPI DUP1 PUSH4 0x16934FC4 EQ PUSH2 0x155 JUMPI DUP1 PUSH4 0x2E17DE78 EQ PUSH2 0x192 JUMPI DUP1 PUSH4 0x372500AB EQ PUSH2 0x1BB JUMPI PUSH2 0x111 JUMP JUMPDEST CALLDATASIZE PUSH2 0x111 JUMPI PUSH1 0x0 CALLVALUE GT ISZERO PUSH2 0x10F JUMPI PUSH2 0x10E CALLVALUE PUSH2 0x438 JUMP JUMPDEST JUMPDEST STOP JUMPDEST PUSH1 0x0 DUP1 REVERT JUMPDEST CALLVALUE DUP1 ISZERO PUSH2 0x122 JUMPI PUSH1 0x0 DUP1 REVERT JUMPDEST POP PUSH2 0x13D PUSH1 0x4 DUP1 CALLDATASIZE SUB DUP2 ADD SWAP1 PUSH2 0x138 SWAP2 SWAP1 PUSH2 0x149B JUMP JUMPDEST PUSH2 0x715 JUMP JUMPDEST PUSH1 0x40 MLOAD PUSH2 0x14C SWAP4 SWAP3 SWAP2 SWAP1 PUSH2 0x1567 JUMP JUMPDEST PUSH1 0x40 MLOAD DUP1 SWAP2 SUB SWAP1 RETURN JUMPDEST CALLVALUE DUP1 ISZERO PUSH2 0x161 JUMPI PUSH1 0x0 DUP1 REVERT JUMPDEST POP PUSH2 0x17C PUSH1 0x4 DUP1 CALLDATASIZE SUB DUP2 ADD SWAP1 PUSH2 0x177 SWAP2 SWAP1 PUSH2 0x1603 JUMP JUMPDEST PUSH2 0x7CD JUMP JUMPDEST PUSH1 0x40 MLOAD PUSH2 0x189 SWAP2 SWAP1 PUSH2 0x1630 JUMP JUMPDEST PUSH1 0x40 MLOAD DUP1 SWAP2 SUB SWAP1 RETURN JUMPDEST CALLVALUE DUP1 ISZERO PUSH2 0x19E JUMPI PUSH1 0x0 DUP1 REVERT JUMPDEST POP PUSH2 0x1B9 PUSH1 0x4 DUP1 CALLDATASIZE SUB DUP2 ADD SWAP1 PUSH2 0x1B4 SWAP2 SWAP1 PUSH2 0x149B JUMP JUMPDEST PUSH2 0x7E5 JUMP JUMPDEST STOP JUMPDEST CALLVALUE DUP1 ISZERO PUSH2 0x1C7 JUMPI PUSH1 0x0 DUP1 REVERT JUMPDEST POP PUSH2 0x1D0 PUSH2 0xB75 JUMP JUMPDEST STOP JUMPDEST CALLVALUE DUP1 ISZERO PUSH2 0x1DE JUMPI PUSH1 0x0 DUP1 REVERT JUMPDEST POP PUSH2 0x1E7 PUSH2 0xC40 JUMP JUMPDEST PUSH1 0x40 MLOAD PUSH2 0x1F4 SWAP2 SWAP1 PUSH2 0x1630 JUMP JUMPDEST PUSH1 0x40 MLOAD DUP1 SWAP2 SUB SWAP1 RETURN JUMPDEST CALLVALUE DUP1 ISZERO PUSH2 0x209 JUMPI PUSH1 0x0 DUP1 REVERT JUMPDEST POP PUSH2 0x212 PUSH2 0xC4B JUMP JUMPDEST PUSH1 0x40 MLOAD PUSH2 0x21F SWAP2 SWAP1 PUSH2 0x17AA JUMP JUMPDEST PUSH1 0x40 MLOAD DUP1 SWAP2 SUB SWAP1 RETURN JUMPDEST CALLVALUE DUP1 ISZERO PUSH2 0x234 JUMPI PUSH1 0x0 DUP1 REVERT JUMPDEST POP PUSH2 0x24F PUSH1 0x4 DUP1 CALLDATASIZE SUB DUP2 ADD SWAP1 PUSH2 0x24A SWAP2 SWAP1 PUSH2 0x1603 JUMP JUMPDEST PUSH2 0xD60 JUMP JUMPDEST PUSH1 0x40 MLOAD PUSH2 0x25C SWAP2 SWAP1 PUSH2 0x1630 JUMP JUMPDEST PUSH1 0x40 MLOAD DUP1 SWAP2 SUB SWAP1 RETURN JUMPDEST CALLVALUE DUP1 ISZERO PUSH2 0x271 JUMPI PUSH1 0x0 DUP1 REVERT JUMPDEST POP PUSH2 0x28C PUSH1 0x4 DUP1 CALLDATASIZE SUB DUP2 ADD SWAP1 PUSH2 0x287 SWAP2 SWAP1 PUSH2 0x1603 JUMP JUMPDEST PUSH2 0xE7D JUMP JUMPDEST PUSH1 0x40 MLOAD PUSH2 0x299 SWAP2 SWAP1 PUSH2 0x1630 JUMP JUMPDEST PUSH1 0x40 MLOAD DUP1 SWAP2 SUB SWAP1 RETURN JUMPDEST CALLVALUE DUP1 ISZERO PUSH2 0x2AE JUMPI PUSH1 0x0 DUP1 REVERT JUMPDEST POP PUSH2 0x2B7 PUSH2 0xE95 JUMP JUMPDEST PUSH1 0x40 MLOAD PUSH2 0x2C5 SWAP3 SWAP2 SWAP1 PUSH2 0x17CC JUMP JUMPDEST PUSH1 0x40 MLOAD DUP1 SWAP2 SUB SWAP1 RETURN JUMPDEST CALLVALUE DUP1 ISZERO PUSH2 0x2DA JUMPI PUSH1 0x0 DUP1 REVERT JUMPDEST POP PUSH2 0x2E3 PUSH2 0xEA6 JUMP JUMPDEST PUSH1 0x40 MLOAD PUSH2 0x2F0 SWAP2 SWAP1 PUSH2 0x1630 JUMP JUMPDEST PUSH1 0x40 MLOAD DUP1 SWAP2 SUB SWAP1 RETURN JUMPDEST CALLVALUE DUP1 ISZERO PUSH2 0x305 JUMPI PUSH1 0x0 DUP1 REVERT JUMPDEST POP PUSH2 0x30E PUSH2 0xEAC JUMP JUMPDEST PUSH1 0x40 MLOAD PUSH2 0x31B SWAP2 SWAP1 PUSH2 0x1630 JUMP JUMPDEST PUSH1 0x40 MLOAD DUP1 SWAP2 SUB SWAP1 RETURN JUMPDEST PUSH2 0x33E PUSH1 0x4 DUP1 CALLDATASIZE SUB DUP2 ADD SWAP1 PUSH2 0x339 SWAP2 SWAP1 PUSH2 0x149B JUMP JUMPDEST PUSH2 0xEB2 JUMP JUMPDEST STOP JUMPDEST CALLVALUE DUP1 ISZERO PUSH2 0x34C JUMPI PUSH1 0x0 DUP1 REVERT JUMPDEST POP PUSH2 0x367 PUSH1 0x4 DUP1 CALLDATASIZE SUB DUP2 ADD SWAP1 PUSH2 0x362 SWAP2 SWAP1 PUSH2 0x1603 JUMP JUMPDEST PUSH2 0xF3B JUMP JUMPDEST PUSH1 0x40 MLOAD PUSH2 0x374 SWAP2 SWAP1 PUSH2 0x1630 JUMP JUMPDEST PUSH1 0x40 MLOAD DUP1 SWAP2 SUB SWAP1 RETURN JUMPDEST CALLVALUE DUP1 ISZERO PUSH2 0x389 JUMPI PUSH1 0x0 DUP1 REVERT JUMPDEST POP PUSH2 0x3A4 PUSH1 0x4 DUP1 CALLDATASIZE SUB DUP2 ADD SWAP1 PUSH2 0x39F SWAP2 SWAP1 PUSH2 0x1603 JUMP JUMPDEST PUSH2 0xF53 JUMP JUMPDEST PUSH1 0x40 MLOAD PUSH2 0x3B1 SWAP2 SWAP1 PUSH2 0x1630 JUMP JUMPDEST PUSH1 0x40 MLOAD DUP1 SWAP2 SUB SWAP1 RETURN JUMPDEST CALLVALUE DUP1 ISZERO PUSH2 0x3C6 JUMPI PUSH1 0x0 DUP1 REVERT JUMPDEST POP PUSH2 0x3E1 PUSH1 0x4 DUP1 CALLDATASIZE SUB DUP2 ADD SWAP1 PUSH2 0x3DC SWAP2 SWAP1 PUSH2 0x1603 JUMP JUMPDEST PUSH2 0xF6B JUMP JUMPDEST PUSH1 0x40 MLOAD PUSH2 0x3F2 SWAP6 SWAP5 SWAP4 SWAP3 SWAP2 SWAP1 PUSH2 0x17F5 JUMP JUMPDEST PUSH1 0x40 MLOAD DUP1 SWAP2 SUB SWAP1 RETURN JUMPDEST CALLVALUE DUP1 ISZERO PUSH2 0x407 JUMPI PUSH1 0x0 DUP1 REVERT JUMPDEST POP PUSH2 0x422 PUSH1 0x4 DUP1 CALLDATASIZE SUB DUP2 ADD SWAP1 PUSH2 0x41D SWAP2 SWAP1 PUSH2 0x1603 JUMP JUMPDEST PUSH2 0x108E JUMP JUMPDEST PUSH1 0x40 MLOAD PUSH2 0x42F SWAP2 SWAP1 PUSH2 0x1898 JUMP JUMPDEST PUSH1 0x40 MLOAD DUP1 SWAP2 SUB SWAP1 RETURN JUMPDEST PUSH1 0x0 DUP1 PUSH1 0x0 CALLER PUSH20 0xFFFFFFFFFFFFFFFFFFFFFFFFFFFFFFFFFFFFFFFF AND PUSH20 0xFFFFFFFFFFFFFFFFFFFFFFFFFFFFFFFFFFFFFFFF AND DUP2 MSTORE PUSH1 0x20 ADD SWAP1 DUP2 MSTORE PUSH1 0x20 ADD PUSH1 0x0 KECCAK256 SLOAD GT ISZERO PUSH2 0x4FA JUMPI PUSH1 0x0 PUSH2 0x48A CALLER PUSH2 0xD60 JUMP JUMPDEST SWAP1 POP PUSH1 0x0 DUP2 GT ISZERO PUSH2 0x49F JUMPI PUSH2 0x49E DUP2 PUSH2 0x12BB JUMP JUMPDEST JUMPDEST DUP2 PUSH1 0x0 DUP1 CALLER PUSH20 0xFFFFFFFFFFFFFFFFFFFFFFFFFFFFFFFFFFFFFFFF AND PUSH20 0xFFFFFFFFFFFFFFFFFFFFFFFFFFFFFFFFFFFFFFFF AND DUP2 MSTORE PUSH1 0x20 ADD SWAP1 DUP2 MSTORE PUSH1 0x20 ADD PUSH1 0x0 KECCAK256 PUSH1 0x0 DUP3 DUP3 SLOAD PUSH2 0x4ED SWAP2 SWAP1 PUSH2 0x18E9 JUMP JUMPDEST SWAP3 POP POP DUP2 SWAP1 SSTORE POP POP PUSH2 0x5E0 JUMP JUMPDEST DUP1 PUSH1 0x0 DUP1 CALLER PUSH20 0xFFFFFFFFFFFFFFFFFFFFFFFFFFFFFFFFFFFFFFFF AND PUSH20 0xFFFFFFFFFFFFFFFFFFFFFFFFFFFFFFFFFFFFFFFF AND DUP2 MSTORE PUSH1 0x20 ADD SWAP1 DUP2 MSTORE PUSH1 0x20 ADD PUSH1 0x0 KECCAK256 DUP2 SWAP1 SSTORE POP TIMESTAMP PUSH1 0x1 PUSH1 0x0 CALLER PUSH20 0xFFFFFFFFFFFFFFFFFFFFFFFFFFFFFFFFFFFFFFFF AND PUSH20 0xFFFFFFFFFFFFFFFFFFFFFFFFFFFFFFFFFFFFFFFF AND DUP2 MSTORE PUSH1 0x20 ADD SWAP1 DUP2 MSTORE PUSH1 0x20 ADD PUSH1 0x0 KECCAK256 DUP2 SWAP1 SSTORE POP TIMESTAMP PUSH1 0x2 PUSH1 0x0 CALLER PUSH20 0xFFFFFFFFFFFFFFFFFFFFFFFFFFFFFFFFFFFFFFFF AND PUSH20 0xFFFFFFFFFFFFFFFFFFFFFFFFFFFFFFFFFFFFFFFF AND DUP2 MSTORE PUSH1 0x20 ADD SWAP1 DUP2 MSTORE PUSH1 0x20 ADD PUSH1 0x0 KECCAK256 DUP2 SWAP1 SSTORE POP PUSH1 0x1 PUSH1 0x5 PUSH1 0x0 DUP3 DUP3 SLOAD PUSH2 0x5D8 SWAP2 SWAP1 PUSH2 0x18E9 JUMP JUMPDEST SWAP3 POP POP DUP2 SWAP1 SSTORE POP JUMPDEST DUP1 PUSH1 0x4 PUSH1 0x0 DUP3 DUP3 SLOAD PUSH2 0x5F2 SWAP2 SWAP1 PUSH2 0x18E9 JUMP JUMPDEST SWAP3 POP POP DUP2 SWAP1 SSTORE POP PUSH2 0x640 PUSH1 0x0 DUP1 CALLER PUSH20 0xFFFFFFFFFFFFFFFFFFFFFFFFFFFFFFFFFFFFFFFF AND PUSH20 0xFFFFFFFFFFFFFFFFFFFFFFFFFFFFFFFFFFFFFFFF AND DUP2 MSTORE PUSH1 0x20 ADD SWAP1 DUP2 MSTORE PUSH1 0x20 ADD PUSH1 0x0 KECCAK256 SLOAD PUSH2 0x1397 JUMP JUMPDEST PUSH1 0x3 PUSH1 0x0 CALLER PUSH20 0xFFFFFFFFFFFFFFFFFFFFFFFFFFFFFFFFFFFFFFFF AND PUSH20 0xFFFFFFFFFFFFFFFFFFFFFFFFFFFFFFFFFFFFFFFF AND DUP2 MSTORE PUSH1 0x20 ADD SWAP1 DUP2 MSTORE PUSH1 0x20 ADD PUSH1 0x0 KECCAK256 DUP2 SWAP1 SSTORE POP CALLER PUSH20 0xFFFFFFFFFFFFFFFFFFFFFFFFFFFFFFFFFFFFFFFF AND PUSH32 0x1449C6DD7851ABC30ABF37F57715F492010519147CC2652FBC38202C18A6EE90 DUP3 PUSH1 0x3 PUSH1 0x0 CALLER PUSH20 0xFFFFFFFFFFFFFFFFFFFFFFFFFFFFFFFFFFFFFFFF AND PUSH20 0xFFFFFFFFFFFFFFFFFFFFFFFFFFFFFFFFFFFFFFFF AND DUP2 MSTORE PUSH1 0x20 ADD SWAP1 DUP2 MSTORE PUSH1 0x20 ADD PUSH1 0x0 KECCAK256 SLOAD PUSH1 0x40 MLOAD PUSH2 0x70A SWAP3 SWAP2 SWAP1 PUSH2 0x17CC JUMP JUMPDEST PUSH1 0x40 MLOAD DUP1 SWAP2 SUB SWAP1 LOG2 POP JUMP JUMPDEST PUSH1 0x6 DUP2 PUSH1 0x5 DUP2 LT PUSH2 0x725 JUMPI PUSH1 0x0 DUP1 REVERT JUMPDEST PUSH1 0x3 MUL ADD PUSH1 0x0 SWAP2 POP SWAP1 POP DUP1 PUSH1 0x0 ADD SLOAD SWAP1 DUP1 PUSH1 0x1 ADD SLOAD SWAP1 DUP1 PUSH1 0x2 ADD DUP1 SLOAD PUSH2 0x74A SWAP1 PUSH2 0x194C JUMP JUMPDEST DUP1 PUSH1 0x1F ADD PUSH1 0x20 DUP1 SWAP2 DIV MUL PUSH1 0x20 ADD PUSH1 0x40 MLOAD SWAP1 DUP2 ADD PUSH1 0x40 MSTORE DUP1 SWAP3 SWAP2 SWAP1 DUP2 DUP2 MSTORE PUSH1 0x20 ADD DUP3 DUP1 SLOAD PUSH2 0x776 SWAP1 PUSH2 0x194C JUMP JUMPDEST DUP1 ISZERO PUSH2 0x7C3 JUMPI DUP1 PUSH1 0x1F LT PUSH2 0x798 JUMPI PUSH2 0x100 DUP1 DUP4 SLOAD DIV MUL DUP4 MSTORE SWAP2 PUSH1 0x20 ADD SWAP2 PUSH2 0x7C3 JUMP JUMPDEST DUP3 ADD SWAP2 SWAP1 PUSH1 0x0 MSTORE PUSH1 0x20 PUSH1 0x0 KECCAK256 SWAP1 JUMPDEST DUP2 SLOAD DUP2 MSTORE SWAP1 PUSH1 0x1 ADD SWAP1 PUSH1 0x20 ADD DUP1 DUP4 GT PUSH2 0x7A6 JUMPI DUP3 SWAP1 SUB PUSH1 0x1F AND DUP3 ADD SWAP2 JUMPDEST POP POP POP POP POP SWAP1 POP DUP4 JUMP JUMPDEST PUSH1 0x0 PUSH1 0x20 MSTORE DUP1 PUSH1 0x0 MSTORE PUSH1 0x40 PUSH1 0x0 KECCAK256 PUSH1 0x0 SWAP2 POP SWAP1 POP SLOAD DUP2 JUMP JUMPDEST PUSH1 0x0 DUP1 PUSH1 0x0 CALLER PUSH20 0xFFFFFFFFFFFFFFFFFFFFFFFFFFFFFFFFFFFFFFFF AND PUSH20 0xFFFFFFFFFFFFFFFFFFFFFFFFFFFFFFFFFFFFFFFF AND DUP2 MSTORE PUSH1 0x20 ADD SWAP1 DUP2 MSTORE PUSH1 0x20 ADD PUSH1 0x0 KECCAK256 SLOAD SUB PUSH2 0x85D JUMPI PUSH1 0x40 MLOAD PUSH32 0xFB34894200000000000000000000000000000000000000000000000000000000 DUP2 MSTORE PUSH1 0x4 ADD PUSH1 0x40 MLOAD DUP1 SWAP2 SUB SWAP1 REVERT JUMPDEST PUSH1 0x0 DUP2 SUB PUSH2 0x897 JUMPI PUSH1 0x40 MLOAD PUSH32 0xF69A94D300000000000000000000000000000000000000000000000000000000 DUP2 MSTORE PUSH1 0x4 ADD PUSH1 0x40 MLOAD DUP1 SWAP2 SUB SWAP1 REVERT JUMPDEST PUSH1 0x0 DUP1 CALLER PUSH20 0xFFFFFFFFFFFFFFFFFFFFFFFFFFFFFFFFFFFFFFFF AND PUSH20 0xFFFFFFFFFFFFFFFFFFFFFFFFFFFFFFFFFFFFFFFF AND DUP2 MSTORE PUSH1 0x20 ADD SWAP1 DUP2 MSTORE PUSH1 0x20 ADD PUSH1 0x0 KECCAK256 SLOAD DUP2 GT ISZERO PUSH2 0x918 JUMPI PUSH1 0x40 MLOAD PUSH32 0x8C379A000000000000000000000000000000000000000000000000000000000 DUP2 MSTORE PUSH1 0x4 ADD PUSH2 0x90F SWAP1 PUSH2 0x19C9 JUMP JUMPDEST PUSH1 0x40 MLOAD DUP1 SWAP2 SUB SWAP1 REVERT JUMPDEST PUSH1 0x0 PUSH2 0x923 CALLER PUSH2 0xD60 JUMP JUMPDEST SWAP1 POP PUSH1 0x0 DUP2 GT ISZERO PUSH2 0x938 JUMPI PUSH2 0x937 DUP2 PUSH2 0x12BB JUMP JUMPDEST JUMPDEST DUP2 PUSH1 0x0 DUP1 CALLER PUSH20 0xFFFFFFFFFFFFFFFFFFFFFFFFFFFFFFFFFFFFFFFF AND PUSH20 0xFFFFFFFFFFFFFFFFFFFFFFFFFFFFFFFFFFFFFFFF AND DUP2 MSTORE PUSH1 0x20 ADD SWAP1 DUP2 MSTORE PUSH1 0x20 ADD PUSH1 0x0 KECCAK256 PUSH1 0x0 DUP3 DUP3 SLOAD PUSH2 0x986 SWAP2 SWAP1 PUSH2 0x19E9 JUMP JUMPDEST SWAP3 POP POP DUP2 SWAP1 SSTORE POP DUP2 PUSH1 0x4 PUSH1 0x0 DUP3 DUP3 SLOAD PUSH2 0x99F SWAP2 SWAP1 PUSH2 0x19E9 JUMP JUMPDEST SWAP3 POP POP DUP2 SWAP1 SSTORE POP PUSH1 0x0 DUP1 PUSH1 0x0 CALLER PUSH20 0xFFFFFFFFFFFFFFFFFFFFFFFFFFFFFFFFFFFFFFFF AND PUSH20 0xFFFFFFFFFFFFFFFFFFFFFFFFFFFFFFFFFFFFFFFF AND DUP2 MSTORE PUSH1 0x20 ADD SWAP1 DUP2 MSTORE PUSH1 0x20 ADD PUSH1 0x0 KECCAK256 SLOAD GT ISZERO PUSH2 0xA7C JUMPI PUSH2 0xA34 PUSH1 0x0 DUP1 CALLER PUSH20 0xFFFFFFFFFFFFFFFFFFFFFFFFFFFFFFFFFFFFFFFF AND PUSH20 0xFFFFFFFFFFFFFFFFFFFFFFFFFFFFFFFFFFFFFFFF AND DUP2 MSTORE PUSH1 0x20 ADD SWAP1 DUP2 MSTORE PUSH1 0x20 ADD PUSH1 0x0 KECCAK256 SLOAD PUSH2 0x1397 JUMP JUMPDEST PUSH1 0x3 PUSH1 0x0 CALLER PUSH20 0xFFFFFFFFFFFFFFFFFFFFFFFFFFFFFFFFFFFFFFFF AND PUSH20 0xFFFFFFFFFFFFFFFFFFFFFFFFFFFFFFFFFFFFFFFF AND DUP2 MSTORE PUSH1 0x20 ADD SWAP1 DUP2 MSTORE PUSH1 0x20 ADD PUSH1 0x0 KECCAK256 DUP2 SWAP1 SSTORE POP PUSH2 0xADC JUMP JUMPDEST PUSH1 0x0 PUSH1 0x3 PUSH1 0x0 CALLER PUSH20 0xFFFFFFFFFFFFFFFFFFFFFFFFFFFFFFFFFFFFFFFF AND PUSH20 0xFFFFFFFFFFFFFFFFFFFFFFFFFFFFFFFFFFFFFFFF AND DUP2 MSTORE PUSH1 0x20 ADD SWAP1 DUP2 MSTORE PUSH1 0x20 ADD PUSH1 0x0 KECCAK256 DUP2 SWAP1 SSTORE POP PUSH1 0x1 PUSH1 0x5 PUSH1 0x0 DUP3 DUP3 SLOAD PUSH2 0xAD4 SWAP2 SWAP1 PUSH2 0x19E9 JUMP JUMPDEST SWAP3 POP POP DUP2 SWAP1 SSTORE POP JUMPDEST CALLER PUSH20 0xFFFFFFFFFFFFFFFFFFFFFFFFFFFFFFFFFFFFFFFF AND PUSH2 0x8FC DUP4 SWAP1 DUP2 ISZERO MUL SWAP1 PUSH1 0x40 MLOAD PUSH1 0x0 PUSH1 0x40 MLOAD DUP1 DUP4 SUB DUP2 DUP6 DUP9 DUP9 CALL SWAP4 POP POP POP POP ISZERO DUP1 ISZERO PUSH2 0xB22 JUMPI RETURNDATASIZE PUSH1 0x0 DUP1 RETURNDATACOPY RETURNDATASIZE PUSH1 0x0 REVERT JUMPDEST POP CALLER PUSH20 0xFFFFFFFFFFFFFFFFFFFFFFFFFFFFFFFFFFFFFFFF AND PUSH32 0xF5BB82176FEB1B5E747E28471AA92156A04D9F3AB9F45F28E2D704232B93F75 DUP4 PUSH1 0x40 MLOAD PUSH2 0xB69 SWAP2 SWAP1 PUSH2 0x1630 JUMP JUMPDEST PUSH1 0x40 MLOAD DUP1 SWAP2 SUB SWAP1 LOG2 POP POP JUMP JUMPDEST PUSH1 0x0 DUP1 PUSH1 0x0 CALLER PUSH20 0xFFFFFFFFFFFFFFFFFFFFFFFFFFFFFFFFFFFFFFFF AND PUSH20 0xFFFFFFFFFFFFFFFFFFFFFFFFFFFFFFFFFFFFFFFF AND DUP2 MSTORE PUSH1 0x20 ADD SWAP1 DUP2 MSTORE PUSH1 0x20 ADD PUSH1 0x0 KECCAK256 SLOAD SUB PUSH2 0xBED JUMPI PUSH1 0x40 MLOAD PUSH32 0xFB34894200000000000000000000000000000000000000000000000000000000 DUP2 MSTORE PUSH1 0x4 ADD PUSH1 0x40 MLOAD DUP1 SWAP2 SUB SWAP1 REVERT JUMPDEST PUSH1 0x0 PUSH2 0xBF8 CALLER PUSH2 0xD60 JUMP JUMPDEST SWAP1 POP PUSH1 0x0 DUP2 SUB PUSH2 0xC34 JUMPI PUSH1 0x40 MLOAD PUSH32 0x969BF72800000000000000000000000000000000000000000000000000000000 DUP2 MSTORE PUSH1 0x4 ADD PUSH1 0x40 MLOAD DUP1 SWAP2 SUB SWAP1 REVERT JUMPDEST PUSH2 0xC3D DUP2 PUSH2 0x12BB JUMP JUMPDEST POP JUMP JUMPDEST PUSH7 0x38D7EA4C68000 DUP2 JUMP JUMPDEST PUSH2 0xC53 PUSH2 0x1412 JUMP JUMPDEST PUSH2 0xC5B PUSH2 0x1412 JUMP JUMPDEST PUSH1 0x0 JUMPDEST PUSH1 0x5 DUP2 LT ISZERO PUSH2 0xD58 JUMPI PUSH1 0x6 DUP2 PUSH1 0x5 DUP2 LT PUSH2 0xC7B JUMPI PUSH2 0xC7A PUSH2 0x1A1D JUMP JUMPDEST JUMPDEST PUSH1 0x3 MUL ADD PUSH1 0x40 MLOAD DUP1 PUSH1 0x60 ADD PUSH1 0x40 MSTORE SWAP1 DUP2 PUSH1 0x0 DUP3 ADD SLOAD DUP2 MSTORE PUSH1 0x20 ADD PUSH1 0x1 DUP3 ADD SLOAD DUP2 MSTORE PUSH1 0x20 ADD PUSH1 0x2 DUP3 ADD DUP1 SLOAD PUSH2 0xCAE SWAP1 PUSH2 0x194C JUMP JUMPDEST DUP1 PUSH1 0x1F ADD PUSH1 0x20 DUP1 SWAP2 DIV MUL PUSH1 0x20 ADD PUSH1 0x40 MLOAD SWAP1 DUP2 ADD PUSH1 0x40 MSTORE DUP1 SWAP3 SWAP2 SWAP1 DUP2 DUP2 MSTORE PUSH1 0x20 ADD DUP3 DUP1 SLOAD PUSH2 0xCDA SWAP1 PUSH2 0x194C JUMP JUMPDEST DUP1 ISZERO PUSH2 0xD27 JUMPI DUP1 PUSH1 0x1F LT PUSH2 0xCFC JUMPI PUSH2 0x100 DUP1 DUP4 SLOAD DIV MUL DUP4 MSTORE SWAP2 PUSH1 0x20 ADD SWAP2 PUSH2 0xD27 JUMP JUMPDEST DUP3 ADD SWAP2 SWAP1 PUSH1 0x0 MSTORE PUSH1 0x20 PUSH1 0x0 KECCAK256 SWAP1 JUMPDEST DUP2 SLOAD DUP2 MSTORE SWAP1 PUSH1 0x1 ADD SWAP1 PUSH1 0x20 ADD DUP1 DUP4 GT PUSH2 0xD0A JUMPI DUP3 SWAP1 SUB PUSH1 0x1F AND DUP3 ADD SWAP2 JUMPDEST POP POP POP POP POP DUP2 MSTORE POP POP DUP3 DUP3 PUSH1 0x5 DUP2 LT PUSH2 0xD43 JUMPI PUSH2 0xD42 PUSH2 0x1A1D JUMP JUMPDEST JUMPDEST PUSH1 0x20 MUL ADD DUP2 SWAP1 MSTORE POP DUP1 DUP1 PUSH1 0x1 ADD SWAP2 POP POP PUSH2 0xC5E JUMP JUMPDEST POP DUP1 SWAP2 POP POP SWAP1 JUMP JUMPDEST PUSH1 0x0 DUP1 PUSH1 0x0 DUP1 DUP5 PUSH20 0xFFFFFFFFFFFFFFFFFFFFFFFFFFFFFFFFFFFFFFFF AND PUSH20 0xFFFFFFFFFFFFFFFFFFFFFFFFFFFFFFFFFFFFFFFF AND DUP2 MSTORE PUSH1 0x20 ADD SWAP1 DUP2 MSTORE PUSH1 0x20 ADD PUSH1 0x0 KECCAK256 SLOAD SUB PUSH2 0xDB0 JUMPI PUSH1 0x0 SWAP1 POP PUSH2 0xE78 JUMP JUMPDEST PUSH1 0x0 PUSH1 0x2 PUSH1 0x0 DUP5 PUSH20 0xFFFFFFFFFFFFFFFFFFFFFFFFFFFFFFFFFFFFFFFF AND PUSH20 0xFFFFFFFFFFFFFFFFFFFFFFFFFFFFFFFFFFFFFFFF AND DUP2 MSTORE PUSH1 0x20 ADD SWAP1 DUP2 MSTORE PUSH1 0x20 ADD PUSH1 0x0 KECCAK256 SLOAD TIMESTAMP PUSH2 0xDFD SWAP2 SWAP1 PUSH2 0x19E9 JUMP JUMPDEST SWAP1 POP PUSH1 0x0 PUSH1 0x3 PUSH1 0x0 DUP6 PUSH20 0xFFFFFFFFFFFFFFFFFFFFFFFFFFFFFFFFFFFFFFFF AND PUSH20 0xFFFFFFFFFFFFFFFFFFFFFFFFFFFFFFFFFFFFFFFF AND DUP2 MSTORE PUSH1 0x20 ADD SWAP1 DUP2 MSTORE PUSH1 0x20 ADD PUSH1 0x0 KECCAK256 SLOAD SWAP1 POP PUSH1 0x0 PUSH1 0x64 DUP3 DUP5 PUSH7 0x38D7EA4C68000 PUSH2 0xE5B SWAP2 SWAP1 PUSH2 0x1A4C JUMP JUMPDEST PUSH2 0xE65 SWAP2 SWAP1 PUSH2 0x1A4C JUMP JUMPDEST PUSH2 0xE6F SWAP2 SWAP1 PUSH2 0x1ABD JUMP JUMPDEST SWAP1 POP DUP1 SWAP4 POP POP POP POP JUMPDEST SWAP2 SWAP1 POP JUMP JUMPDEST PUSH1 0x1 PUSH1 0x20 MSTORE DUP1 PUSH1 0x0 MSTORE PUSH1 0x40 PUSH1 0x0 KECCAK256 PUSH1 0x0 SWAP2 POP SWAP1 POP SLOAD DUP2 JUMP JUMPDEST PUSH1 0x0 DUP1 PUSH1 0x4 SLOAD PUSH1 0x5 SLOAD SWAP2 POP SWAP2 POP SWAP1 SWAP2 JUMP JUMPDEST PUSH1 0x4 SLOAD DUP2 JUMP JUMPDEST PUSH1 0x5 SLOAD DUP2 JUMP JUMPDEST PUSH1 0x0 DUP2 SUB PUSH2 0xEEC JUMPI PUSH1 0x40 MLOAD PUSH32 0xF69A94D300000000000000000000000000000000000000000000000000000000 DUP2 MSTORE PUSH1 0x4 ADD PUSH1 0x40 MLOAD DUP1 SWAP2 SUB SWAP1 REVERT JUMPDEST DUP1 CALLVALUE LT ISZERO PUSH2 0xF2F JUMPI PUSH1 0x40 MLOAD PUSH32 0x8C379A000000000000000000000000000000000000000000000000000000000 DUP2 MSTORE PUSH1 0x4 ADD PUSH2 0xF26 SWAP1 PUSH2 0x1B3A JUMP JUMPDEST PUSH1 0x40 MLOAD DUP1 SWAP2 SUB SWAP1 REVERT JUMPDEST PUSH2 0xF38 DUP2 PUSH2 0x438 JUMP JUMPDEST POP JUMP JUMPDEST PUSH1 0x3 PUSH1 0x20 MSTORE DUP1 PUSH1 0x0 MSTORE PUSH1 0x40 PUSH1 0x0 KECCAK256 PUSH1 0x0 SWAP2 POP SWAP1 POP SLOAD DUP2 JUMP JUMPDEST PUSH1 0x2 PUSH1 0x20 MSTORE DUP1 PUSH1 0x0 MSTORE PUSH1 0x40 PUSH1 0x0 KECCAK256 PUSH1 0x0 SWAP2 POP SWAP1 POP SLOAD DUP2 JUMP JUMPDEST PUSH1 0x0 DUP1 PUSH1 0x0 DUP1 PUSH1 0x0 DUP1 PUSH1 0x0 DUP8 PUSH20 0xFFFFFFFFFFFFFFFFFFFFFFFFFFFFFFFFFFFFFFFF AND PUSH20 0xFFFFFFFFFFFFFFFFFFFFFFFFFFFFFFFFFFFFFFFF AND DUP2 MSTORE PUSH1 0x20 ADD SWAP1 DUP2 MSTORE PUSH1 0x20 ADD PUSH1 0x0 KECCAK256 SLOAD PUSH1 0x1 PUSH1 0x0 DUP9 PUSH20 0xFFFFFFFFFFFFFFFFFFFFFFFFFFFFFFFFFFFFFFFF AND PUSH20 0xFFFFFFFFFFFFFFFFFFFFFFFFFFFFFFFFFFFFFFFF AND DUP2 MSTORE PUSH1 0x20 ADD SWAP1 DUP2 MSTORE PUSH1 0x20 ADD PUSH1 0x0 KECCAK256 SLOAD PUSH1 0x2 PUSH1 0x0 DUP10 PUSH20 0xFFFFFFFFFFFFFFFFFFFFFFFFFFFFFFFFFFFFFFFF AND PUSH20 0xFFFFFFFFFFFFFFFFFFFFFFFFFFFFFFFFFFFFFFFF AND DUP2 MSTORE PUSH1 0x20 ADD SWAP1 DUP2 MSTORE PUSH1 0x20 ADD PUSH1 0x0 KECCAK256 SLOAD PUSH1 0x3 PUSH1 0x0 DUP11 PUSH20 0xFFFFFFFFFFFFFFFFFFFFFFFFFFFFFFFFFFFFFFFF AND PUSH20 0xFFFFFFFFFFFFFFFFFFFFFFFFFFFFFFFFFFFFFFFF AND DUP2 MSTORE PUSH1 0x20 ADD SWAP1 DUP2 MSTORE PUSH1 0x20 ADD PUSH1 0x0 KECCAK256 SLOAD PUSH2 0x107B DUP11 PUSH2 0xD60 JUMP JUMPDEST SWAP5 POP SWAP5 POP SWAP5 POP SWAP5 POP SWAP5 POP SWAP2 SWAP4 SWAP6 SWAP1 SWAP3 SWAP5 POP JUMP JUMPDEST PUSH2 0x1096 PUSH2 0x143F JUMP JUMPDEST PUSH1 0x0 PUSH1 0x3 PUSH1 0x0 DUP5 PUSH20 0xFFFFFFFFFFFFFFFFFFFFFFFFFFFFFFFFFFFFFFFF AND PUSH20 0xFFFFFFFFFFFFFFFFFFFFFFFFFFFFFFFFFFFFFFFF AND DUP2 MSTORE PUSH1 0x20 ADD SWAP1 DUP2 MSTORE PUSH1 0x20 ADD PUSH1 0x0 KECCAK256 SLOAD SWAP1 POP PUSH1 0x0 JUMPDEST PUSH1 0x5 DUP2 LT ISZERO PUSH2 0x11E7 JUMPI DUP2 PUSH1 0x6 DUP3 PUSH1 0x5 DUP2 LT PUSH2 0x10FB JUMPI PUSH2 0x10FA PUSH2 0x1A1D JUMP JUMPDEST JUMPDEST PUSH1 0x3 MUL ADD PUSH1 0x1 ADD SLOAD SUB PUSH2 0x11DA JUMPI PUSH1 0x6 DUP2 PUSH1 0x5 DUP2 LT PUSH2 0x111C JUMPI PUSH2 0x111B PUSH2 0x1A1D JUMP JUMPDEST JUMPDEST PUSH1 0x3 MUL ADD PUSH1 0x40 MLOAD DUP1 PUSH1 0x60 ADD PUSH1 0x40 MSTORE SWAP1 DUP2 PUSH1 0x0 DUP3 ADD SLOAD DUP2 MSTORE PUSH1 0x20 ADD PUSH1 0x1 DUP3 ADD SLOAD DUP2 MSTORE PUSH1 0x20 ADD PUSH1 0x2 DUP3 ADD DUP1 SLOAD PUSH2 0x114F SWAP1 PUSH2 0x194C JUMP JUMPDEST DUP1 PUSH1 0x1F ADD PUSH1 0x20 DUP1 SWAP2 DIV MUL PUSH1 0x20 ADD PUSH1 0x40 MLOAD SWAP1 DUP2 ADD PUSH1 0x40 MSTORE DUP1 SWAP3 SWAP2 SWAP1 DUP2 DUP2 MSTORE PUSH1 0x20 ADD DUP3 DUP1 SLOAD PUSH2 0x117B SWAP1 PUSH2 0x194C JUMP JUMPDEST DUP1 ISZERO PUSH2 0x11C8 JUMPI DUP1 PUSH1 0x1F LT PUSH2 0x119D JUMPI PUSH2 0x100 DUP1 DUP4 SLOAD DIV MUL DUP4 MSTORE SWAP2 PUSH1 0x20 ADD SWAP2 PUSH2 0x11C8 JUMP JUMPDEST DUP3 ADD SWAP2 SWAP1 PUSH1 0x0 MSTORE PUSH1 0x20 PUSH1 0x0 KECCAK256 SWAP1 JUMPDEST DUP2 SLOAD DUP2 MSTORE SWAP1 PUSH1 0x1 ADD SWAP1 PUSH1 0x20 ADD DUP1 DUP4 GT PUSH2 0x11AB JUMPI DUP3 SWAP1 SUB PUSH1 0x1F AND DUP3 ADD SWAP2 JUMPDEST POP POP POP POP POP DUP2 MSTORE POP POP SWAP3 POP POP POP PUSH2 0x12B6 JUMP JUMPDEST DUP1 DUP1 PUSH1 0x1 ADD SWAP2 POP POP PUSH2 0x10DD JUMP JUMPDEST POP PUSH1 0x6 PUSH1 0x0 PUSH1 0x5 DUP2 LT PUSH2 0x11FD JUMPI PUSH2 0x11FC PUSH2 0x1A1D JUMP JUMPDEST JUMPDEST PUSH1 0x3 MUL ADD PUSH1 0x40 MLOAD DUP1 PUSH1 0x60 ADD PUSH1 0x40 MSTORE SWAP1 DUP2 PUSH1 0x0 DUP3 ADD SLOAD DUP2 MSTORE PUSH1 0x20 ADD PUSH1 0x1 DUP3 ADD SLOAD DUP2 MSTORE PUSH1 0x20 ADD PUSH1 0x2 DUP3 ADD DUP1 SLOAD PUSH2 0x1230 SWAP1 PUSH2 0x194C JUMP JUMPDEST DUP1 PUSH1 0x1F ADD PUSH1 0x20 DUP1 SWAP2 DIV MUL PUSH1 0x20 ADD PUSH1 0x40 MLOAD SWAP1 DUP2 ADD PUSH1 0x40 MSTORE DUP1 SWAP3 SWAP2 SWAP1 DUP2 DUP2 MSTORE PUSH1 0x20 ADD DUP3 DUP1 SLOAD PUSH2 0x125C SWAP1 PUSH2 0x194C JUMP JUMPDEST DUP1 ISZERO PUSH2 0x12A9 JUMPI DUP1 PUSH1 0x1F LT PUSH2 0x127E JUMPI PUSH2 0x100 DUP1 DUP4 SLOAD DIV MUL DUP4 MSTORE SWAP2 PUSH1 0x20 ADD SWAP2 PUSH2 0x12A9 JUMP JUMPDEST DUP3 ADD SWAP2 SWAP1 PUSH1 0x0 MSTORE PUSH1 0x20 PUSH1 0x0 KECCAK256 SWAP1 JUMPDEST DUP2 SLOAD DUP2 MSTORE SWAP1 PUSH1 0x1 ADD SWAP1 PUSH1 0x20 ADD DUP1 DUP4 GT PUSH2 0x128C JUMPI DUP3 SWAP1 SUB PUSH1 0x1F AND DUP3 ADD SWAP2 JUMPDEST POP POP POP POP POP DUP2 MSTORE POP POP SWAP2 POP POP JUMPDEST SWAP2 SWAP1 POP JUMP JUMPDEST TIMESTAMP PUSH1 0x2 PUSH1 0x0 CALLER PUSH20 0xFFFFFFFFFFFFFFFFFFFFFFFFFFFFFFFFFFFFFFFF AND PUSH20 0xFFFFFFFFFFFFFFFFFFFFFFFFFFFFFFFFFFFFFFFF AND DUP2 MSTORE PUSH1 0x20 ADD SWAP1 DUP2 MSTORE PUSH1 0x20 ADD PUSH1 0x0 KECCAK256 DUP2 SWAP1 SSTORE POP CALLER PUSH20 0xFFFFFFFFFFFFFFFFFFFFFFFFFFFFFFFFFFFFFFFF AND PUSH2 0x8FC DUP3 SWAP1 DUP2 ISZERO MUL SWAP1 PUSH1 0x40 MLOAD PUSH1 0x0 PUSH1 0x40 MLOAD DUP1 DUP4 SUB DUP2 DUP6 DUP9 DUP9 CALL SWAP4 POP POP POP POP ISZERO DUP1 ISZERO PUSH2 0x1345 JUMPI RETURNDATASIZE PUSH1 0x0 DUP1 RETURNDATACOPY RETURNDATASIZE PUSH1 0x0 REVERT JUMPDEST POP CALLER PUSH20 0xFFFFFFFFFFFFFFFFFFFFFFFFFFFFFFFFFFFFFFFF AND PUSH32 0xFC30CDDEA38E2BF4D6EA7D3F9ED3B6AD7F176419F4963BD81318067A4AEE73FE DUP3 PUSH1 0x40 MLOAD PUSH2 0x138C SWAP2 SWAP1 PUSH2 0x1630 JUMP JUMPDEST PUSH1 0x40 MLOAD DUP1 SWAP2 SUB SWAP1 LOG2 POP JUMP JUMPDEST PUSH1 0x0 DUP1 PUSH1 0x4 SWAP1 POP JUMPDEST PUSH1 0x0 DUP2 SLT PUSH2 0x1407 JUMPI PUSH1 0x0 DUP2 SWAP1 POP PUSH1 0x6 DUP2 PUSH1 0x5 DUP2 LT PUSH2 0x13C0 JUMPI PUSH2 0x13BF PUSH2 0x1A1D JUMP JUMPDEST JUMPDEST PUSH1 0x3 MUL ADD PUSH1 0x0 ADD SLOAD DUP5 LT PUSH2 0x13F3 JUMPI PUSH1 0x6 DUP2 PUSH1 0x5 DUP2 LT PUSH2 0x13E2 JUMPI PUSH2 0x13E1 PUSH2 0x1A1D JUMP JUMPDEST JUMPDEST PUSH1 0x3 MUL ADD PUSH1 0x1 ADD SLOAD SWAP3 POP POP POP PUSH2 0x140D JUMP JUMPDEST POP DUP1 DUP1 PUSH2 0x13FF SWAP1 PUSH2 0x1B64 JUMP JUMPDEST SWAP2 POP POP PUSH2 0x139F JUMP JUMPDEST POP PUSH1 0x64 SWAP1 POP JUMPDEST SWAP2 SWAP1 POP JUMP JUMPDEST PUSH1 0x40 MLOAD DUP1 PUSH1 0xA0 ADD PUSH1 0x40 MSTORE DUP1 PUSH1 0x5 SWAP1 JUMPDEST PUSH2 0x1429 PUSH2 0x143F JUMP JUMPDEST DUP2 MSTORE PUSH1 0x20 ADD SWAP1 PUSH1 0x1 SWAP1 SUB SWAP1 DUP2 PUSH2 0x1421 JUMPI SWAP1 POP POP SWAP1 JUMP JUMPDEST PUSH1 0x40 MLOAD DUP1 PUSH1 0x60 ADD PUSH1 0x40 MSTORE DUP1 PUSH1 0x0 DUP2 MSTORE PUSH1 0x20 ADD PUSH1 0x0 DUP2 MSTORE PUSH1 0x20 ADD PUSH1 0x60 DUP2 MSTORE POP SWAP1 JUMP JUMPDEST PUSH1 0x0 DUP1 REVERT JUMPDEST PUSH1 0x0 DUP2 SWAP1 POP SWAP2 SWAP1 POP JUMP JUMPDEST PUSH2 0x1478 DUP2 PUSH2 0x1465 JUMP JUMPDEST DUP2 EQ PUSH2 0x1483 JUMPI PUSH1 0x0 DUP1 REVERT JUMPDEST POP JUMP JUMPDEST PUSH1 0x0 DUP2 CALLDATALOAD SWAP1 POP PUSH2 0x1495 DUP2 PUSH2 0x146F JUMP JUMPDEST SWAP3 SWAP2 POP POP JUMP JUMPDEST PUSH1 0x0 PUSH1 0x20 DUP3 DUP5 SUB SLT ISZERO PUSH2 0x14B1 JUMPI PUSH2 0x14B0 PUSH2 0x1460 JUMP JUMPDEST JUMPDEST PUSH1 0x0 PUSH2 0x14BF DUP5 DUP3 DUP6 ADD PUSH2 0x1486 JUMP JUMPDEST SWAP2 POP POP SWAP3 SWAP2 POP POP JUMP JUMPDEST PUSH2 0x14D1 DUP2 PUSH2 0x1465 JUMP JUMPDEST DUP3 MSTORE POP POP JUMP JUMPDEST PUSH1 0x0 DUP2 MLOAD SWAP1 POP SWAP2 SWAP1 POP JUMP JUMPDEST PUSH1 0x0 DUP3 DUP3 MSTORE PUSH1 0x20 DUP3 ADD SWAP1 POP SWAP3 SWAP2 POP POP JUMP JUMPDEST PUSH1 0x0 JUMPDEST DUP4 DUP2 LT ISZERO PUSH2 0x1511 JUMPI DUP1 DUP3 ADD MLOAD DUP2 DUP5 ADD MSTORE PUSH1 0x20 DUP2 ADD SWAP1 POP PUSH2 0x14F6 JUMP JUMPDEST PUSH1 0x0 DUP5 DUP5 ADD MSTORE POP POP POP POP JUMP JUMPDEST PUSH1 0x0 PUSH1 0x1F NOT PUSH1 0x1F DUP4 ADD AND SWAP1 POP SWAP2 SWAP1 POP JUMP JUMPDEST PUSH1 0x0 PUSH2 0x1539 DUP3 PUSH2 0x14D7 JUMP JUMPDEST PUSH2 0x1543 DUP2 DUP6 PUSH2 0x14E2 JUMP JUMPDEST SWAP4 POP PUSH2 0x1553 DUP2 DUP6 PUSH1 0x20 DUP7 ADD PUSH2 0x14F3 JUMP JUMPDEST PUSH2 0x155C DUP2 PUSH2 0x151D JUMP JUMPDEST DUP5 ADD SWAP2 POP POP SWAP3 SWAP2 POP POP JUMP JUMPDEST PUSH1 0x0 PUSH1 0x60 DUP3 ADD SWAP1 POP PUSH2 0x157C PUSH1 0x0 DUP4 ADD DUP7 PUSH2 0x14C8 JUMP JUMPDEST PUSH2 0x1589 PUSH1 0x20 DUP4 ADD DUP6 PUSH2 0x14C8 JUMP JUMPDEST DUP2 DUP2 SUB PUSH1 0x40 DUP4 ADD MSTORE PUSH2 0x159B DUP2 DUP5 PUSH2 0x152E JUMP JUMPDEST SWAP1 POP SWAP5 SWAP4 POP POP POP POP JUMP JUMPDEST PUSH1 0x0 PUSH20 0xFFFFFFFFFFFFFFFFFFFFFFFFFFFFFFFFFFFFFFFF DUP3 AND SWAP1 POP SWAP2 SWAP1 POP JUMP JUMPDEST PUSH1 0x0 PUSH2 0x15D0 DUP3 PUSH2 0x15A5 JUMP JUMPDEST SWAP1 POP SWAP2 SWAP1 POP JUMP JUMPDEST PUSH2 0x15E0 DUP2 PUSH2 0x15C5 JUMP JUMPDEST DUP2 EQ PUSH2 0x15EB JUMPI PUSH1 0x0 DUP1 REVERT JUMPDEST POP JUMP JUMPDEST PUSH1 0x0 DUP2 CALLDATALOAD SWAP1 POP PUSH2 0x15FD DUP2 PUSH2 0x15D7 JUMP JUMPDEST SWAP3 SWAP2 POP POP JUMP JUMPDEST PUSH1 0x0 PUSH1 0x20 DUP3 DUP5 SUB SLT ISZERO PUSH2 0x1619 JUMPI PUSH2 0x1618 PUSH2 0x1460 JUMP JUMPDEST JUMPDEST PUSH1 0x0 PUSH2 0x1627 DUP5 DUP3 DUP6 ADD PUSH2 0x15EE JUMP JUMPDEST SWAP2 POP POP SWAP3 SWAP2 POP POP JUMP JUMPDEST PUSH1 0x0 PUSH1 0x20 DUP3 ADD SWAP1 POP PUSH2 0x1645 PUSH1 0x0 DUP4 ADD DUP5 PUSH2 0x14C8 JUMP JUMPDEST SWAP3 SWAP2 POP POP JUMP JUMPDEST PUSH1 0x0 PUSH1 0x5 SWAP1 POP SWAP2 SWAP1 POP JUMP JUMPDEST PUSH1 0x0 DUP2 SWAP1 POP SWAP3 SWAP2 POP POP JUMP JUMPDEST PUSH1 0x0 DUP2 SWAP1 POP SWAP2 SWAP1 POP JUMP JUMPDEST PUSH2 0x1674 DUP2 PUSH2 0x1465 JUMP JUMPDEST DUP3 MSTORE POP POP JUMP JUMPDEST PUSH1 0x0 DUP3 DUP3 MSTORE PUSH1 0x20 DUP3 ADD SWAP1 POP SWAP3 SWAP2 POP POP JUMP JUMPDEST PUSH1 0x0 PUSH2 0x1696 DUP3 PUSH2 0x14D7 JUMP JUMPDEST PUSH2 0x16A0 DUP2 DUP6 PUSH2 0x167A JUMP JUMPDEST SWAP4 POP PUSH2 0x16B0 DUP2 DUP6 PUSH1 0x20 DUP7 ADD PUSH2 0x14F3 JUMP JUMPDEST PUSH2 0x16B9 DUP2 PUSH2 0x151D JUMP JUMPDEST DUP5 ADD SWAP2 POP POP SWAP3 SWAP2 POP POP JUMP JUMPDEST PUSH1 0x0 PUSH1 0x60 DUP4 ADD PUSH1 0x0 DUP4 ADD MLOAD PUSH2 0x16DC PUSH1 0x0 DUP7 ADD DUP3 PUSH2 0x166B JUMP JUMPDEST POP PUSH1 0x20 DUP4 ADD MLOAD PUSH2 0x16EF PUSH1 0x20 DUP7 ADD DUP3 PUSH2 0x166B JUMP JUMPDEST POP PUSH1 0x40 DUP4 ADD MLOAD DUP5 DUP3 SUB PUSH1 0x40 DUP7 ADD MSTORE PUSH2 0x1707 DUP3 DUP3 PUSH2 0x168B JUMP JUMPDEST SWAP2 POP POP DUP1 SWAP2 POP POP SWAP3 SWAP2 POP POP JUMP JUMPDEST PUSH1 0x0 PUSH2 0x1720 DUP4 DUP4 PUSH2 0x16C4 JUMP JUMPDEST SWAP1 POP SWAP3 SWAP2 POP POP JUMP JUMPDEST PUSH1 0x0 PUSH1 0x20 DUP3 ADD SWAP1 POP SWAP2 SWAP1 POP JUMP JUMPDEST PUSH1 0x0 PUSH2 0x1740 DUP3 PUSH2 0x164B JUMP JUMPDEST PUSH2 0x174A DUP2 DUP6 PUSH2 0x1656 JUMP JUMPDEST SWAP4 POP DUP4 PUSH1 0x20 DUP3 MUL DUP6 ADD PUSH2 0x175C DUP6 PUSH2 0x1661 JUMP JUMPDEST DUP1 PUSH1 0x0 JUMPDEST DUP6 DUP2 LT ISZERO PUSH2 0x1798 JUMPI DUP5 DUP5 SUB DUP10 MSTORE DUP2 MLOAD PUSH2 0x1779 DUP6 DUP3 PUSH2 0x1714 JUMP JUMPDEST SWAP5 POP PUSH2 0x1784 DUP4 PUSH2 0x1728 JUMP JUMPDEST SWAP3 POP PUSH1 0x20 DUP11 ADD SWAP10 POP POP PUSH1 0x1 DUP2 ADD SWAP1 POP PUSH2 0x1760 JUMP JUMPDEST POP DUP3 SWAP8 POP DUP8 SWAP6 POP POP POP POP POP POP SWAP3 SWAP2 POP POP JUMP JUMPDEST PUSH1 0x0 PUSH1 0x20 DUP3 ADD SWAP1 POP DUP2 DUP2 SUB PUSH1 0x0 DUP4 ADD MSTORE PUSH2 0x17C4 DUP2 DUP5 PUSH2 0x1735 JUMP JUMPDEST SWAP1 POP SWAP3 SWAP2 POP POP JUMP JUMPDEST PUSH1 0x0 PUSH1 0x40 DUP3 ADD SWAP1 POP PUSH2 0x17E1 PUSH1 0x0 DUP4 ADD DUP6 PUSH2 0x14C8 JUMP JUMPDEST PUSH2 0x17EE PUSH1 0x20 DUP4 ADD DUP5 PUSH2 0x14C8 JUMP JUMPDEST SWAP4 SWAP3 POP POP POP JUMP JUMPDEST PUSH1 0x0 PUSH1 0xA0 DUP3 ADD SWAP1 POP PUSH2 0x180A PUSH1 0x0 DUP4 ADD DUP9 PUSH2 0x14C8 JUMP JUMPDEST PUSH2 0x1817 PUSH1 0x20 DUP4 ADD DUP8 PUSH2 0x14C8 JUMP JUMPDEST PUSH2 0x1824 PUSH1 0x40 DUP4 ADD DUP7 PUSH2 0x14C8 JUMP JUMPDEST PUSH2 0x1831 PUSH1 0x60 DUP4 ADD DUP6 PUSH2 0x14C8 JUMP JUMPDEST PUSH2 0x183E PUSH1 0x80 DUP4 ADD DUP5 PUSH2 0x14C8 JUMP JUMPDEST SWAP7 SWAP6 POP POP POP POP POP POP JUMP JUMPDEST PUSH1 0x0 PUSH1 0x60 DUP4 ADD PUSH1 0x0 DUP4 ADD MLOAD PUSH2 0x1860 PUSH1 0x0 DUP7 ADD DUP3 PUSH2 0x166B JUMP JUMPDEST POP PUSH1 0x20 DUP4 ADD MLOAD PUSH2 0x1873 PUSH1 0x20 DUP7 ADD DUP3 PUSH2 0x166B JUMP JUMPDEST POP PUSH1 0x40 DUP4 ADD MLOAD DUP5 DUP3 SUB PUSH1 0x40 DUP7 ADD MSTORE PUSH2 0x188B DUP3 DUP3 PUSH2 0x168B JUMP JUMPDEST SWAP2 POP POP DUP1 SWAP2 POP POP SWAP3 SWAP2 POP POP JUMP JUMPDEST PUSH1 0x0 PUSH1 0x20 DUP3 ADD SWAP1 POP DUP2 DUP2 SUB PUSH1 0x0 DUP4 ADD MSTORE PUSH2 0x18B2 DUP2 DUP5 PUSH2 0x1848 JUMP JUMPDEST SWAP1 POP SWAP3 SWAP2 POP POP JUMP JUMPDEST PUSH32 0x4E487B7100000000000000000000000000000000000000000000000000000000 PUSH1 0x0 MSTORE PUSH1 0x11 PUSH1 0x4 MSTORE PUSH1 0x24 PUSH1 0x0 REVERT JUMPDEST PUSH1 0x0 PUSH2 0x18F4 DUP3 PUSH2 0x1465 JUMP JUMPDEST SWAP2 POP PUSH2 0x18FF DUP4 PUSH2 0x1465 JUMP JUMPDEST SWAP3 POP DUP3 DUP3 ADD SWAP1 POP DUP1 DUP3 GT ISZERO PUSH2 0x1917 JUMPI PUSH2 0x1916 PUSH2 0x18BA JUMP JUMPDEST JUMPDEST SWAP3 SWAP2 POP POP JUMP JUMPDEST PUSH32 0x4E487B7100000000000000000000000000000000000000000000000000000000 PUSH1 0x0 MSTORE PUSH1 0x22 PUSH1 0x4 MSTORE PUSH1 0x24 PUSH1 0x0 REVERT JUMPDEST PUSH1 0x0 PUSH1 0x2 DUP3 DIV SWAP1 POP PUSH1 0x1 DUP3 AND DUP1 PUSH2 0x1964 JUMPI PUSH1 0x7F DUP3 AND SWAP2 POP JUMPDEST PUSH1 0x20 DUP3 LT DUP2 SUB PUSH2 0x1977 JUMPI PUSH2 0x1976 PUSH2 0x191D JUMP JUMPDEST JUMPDEST POP SWAP2 SWAP1 POP JUMP JUMPDEST PUSH32 0x416D6F756E742065786365656473207374616B65642062616C616E6365000000 PUSH1 0x0 DUP3 ADD MSTORE POP JUMP JUMPDEST PUSH1 0x0 PUSH2 0x19B3 PUSH1 0x1D DUP4 PUSH2 0x14E2 JUMP JUMPDEST SWAP2 POP PUSH2 0x19BE DUP3 PUSH2 0x197D JUMP JUMPDEST PUSH1 0x20 DUP3 ADD SWAP1 POP SWAP2 SWAP1 POP JUMP JUMPDEST PUSH1 0x0 PUSH1 0x20 DUP3 ADD SWAP1 POP DUP2 DUP2 SUB PUSH1 0x0 DUP4 ADD MSTORE PUSH2 0x19E2 DUP2 PUSH2 0x19A6 JUMP JUMPDEST SWAP1 POP SWAP2 SWAP1 POP JUMP JUMPDEST PUSH1 0x0 PUSH2 0x19F4 DUP3 PUSH2 0x1465 JUMP JUMPDEST SWAP2 POP PUSH2 0x19FF DUP4 PUSH2 0x1465 JUMP JUMPDEST SWAP3 POP DUP3 DUP3 SUB SWAP1 POP DUP2 DUP2 GT ISZERO PUSH2 0x1A17 JUMPI PUSH2 0x1A16 PUSH2 0x18BA JUMP JUMPDEST JUMPDEST SWAP3 SWAP2 POP POP JUMP JUMPDEST PUSH32 0x4E487B7100000000000000000000000000000000000000000000000000000000 PUSH1 0x0 MSTORE PUSH1 0x32 PUSH1 0x4 MSTORE PUSH1 0x24 PUSH1 0x0 REVERT JUMPDEST PUSH1 0x0 PUSH2 0x1A57 DUP3 PUSH2 0x1465 JUMP JUMPDEST SWAP2 POP PUSH2 0x1A62 DUP4 PUSH2 0x1465 JUMP JUMPDEST SWAP3 POP DUP3 DUP3 MUL PUSH2 0x1A70 DUP2 PUSH2 0x1465 JUMP JUMPDEST SWAP2 POP DUP3 DUP3 DIV DUP5 EQ DUP4 ISZERO OR PUSH2 0x1A87 JUMPI PUSH2 0x1A86 PUSH2 0x18BA JUMP JUMPDEST JUMPDEST POP SWAP3 SWAP2 POP POP JUMP JUMPDEST PUSH32 0x4E487B7100000000000000000000000000000000000000000000000000000000 PUSH1 0x0 MSTORE PUSH1 0x12 PUSH1 0x4 MSTORE PUSH1 0x24 PUSH1 0x0 REVERT JUMPDEST PUSH1 0x0 PUSH2 0x1AC8 DUP3 PUSH2 0x1465 JUMP JUMPDEST SWAP2 POP PUSH2 0x1AD3 DUP4 PUSH2 0x1465 JUMP JUMPDEST SWAP3 POP DUP3 PUSH2 0x1AE3 JUMPI PUSH2 0x1AE2 PUSH2 0x1A8E JUMP JUMPDEST JUMPDEST DUP3 DUP3 DIV SWAP1 POP SWAP3 SWAP2 POP POP JUMP JUMPDEST PUSH32 0x496E73756666696369656E74204D4F4E2073656E740000000000000000000000 PUSH1 0x0 DUP3 ADD MSTORE POP JUMP JUMPDEST PUSH1 0x0 PUSH2 0x1B24 PUSH1 0x15 DUP4 PUSH2 0x14E2 JUMP JUMPDEST SWAP2 POP PUSH2 0x1B2F DUP3 PUSH2 0x1AEE JUMP JUMPDEST PUSH1 0x20 DUP3 ADD SWAP1 POP SWAP2 SWAP1 POP JUMP JUMPDEST PUSH1 0x0 PUSH1 0x20 DUP3 ADD SWAP1 POP DUP2 DUP2 SUB PUSH1 0x0 DUP4 ADD MSTORE PUSH2 0x1B53 DUP2 PUSH2 0x1B17 JUMP JUMPDEST SWAP1 POP SWAP2 SWAP1 POP JUMP JUMPDEST PUSH1 0x0 DUP2 SWAP1 POP SWAP2 SWAP1 POP JUMP JUMPDEST PUSH1 0x0 PUSH2 0x1B6F DUP3 PUSH2 0x1B5A JUMP JUMPDEST SWAP2 POP PUSH32 0x8000000000000000000000000000000000000000000000000000000000000000 DUP3 SUB PUSH2 0x1BA1 JUMPI PUSH2 0x1BA0 PUSH2 0x18BA JUMP JUMPDEST JUMPDEST PUSH1 0x1 DUP3 SUB SWAP1 POP SWAP2 SWAP1 POP JUMP INVALID LOG2 PUSH5 0x6970667358 0x22 SLT KECCAK256 0xED SLOAD 0xA7 DUP4 0xC 0xCD PUSH23 0x3DD15537629B18E768550333611F22859DE9E513E45657 0xD8 STATICCALL PUSH5 0x736F6C6343 STOP ADDMOD XOR STOP CALLER "},"methodIdentifiers":{"REWARD_RATE()":"5997bb37","calculateRewards(address)":"64ab8675","claimRewards()":"372500ab","getAllTiers()":"6471af83","getGlobalStats()":"6b4169c3","getStakeInfo(address)":"c3453153","getUserTier(address)":"e4d2620e","lastClaimTime(address)":"b77cf9c6","stake(uint256)":"a694fc3a","stakeStartTime(address)":"6985e6d8","stakes(address)":"16934fc4","tiers(uint256)":"039af9eb","totalStaked()":"817b1cd2","totalStakers()":"86989038","unstake(uint256)":"2e17de78","userMultiplier(address)":"b1a03b6b"}}}}}