{
  "_format": "hh-sol-artifact-1",
  "contractName": "MONStaking",
  "sourceName": "contracts/MONStaking.sol",
  "abi": [
    {
      "inputs": [],
      "stateMutability": "nonpayable",
      "type": "constructor"
    },
    {
      "inputs": [],
      "name": "NoActiveStake",
      "type": "error"
    },
    {
      "inputs": [],
      "name": "NothingToClaim",
      "type": "error"
    },
    {
      "inputs": [
        {
          "internalType": "uint256",
          "name": "lockPeriodRemaining",
          "type": "uint256"
        }
      ],
      "name": "StakeLocked",
      "type": "error"
    },
    {
      "inputs": [],
      "name": "ZeroStakeAmount",
      "type": "error"
    },
    {
      "anonymous": false,
      "inputs": [
        {
          "indexed": true,
          "internalType": "address",
          "name": "user",
          "type": "address"
        },
        {
          "indexed": false,
          "internalType": "uint256",
          "name": "amount",
          "type": "uint256"
        }
      ],
      "name": "RewardsClaimed",
      "type": "event"
    },
    {
      "anonymous": false,
      "inputs": [
        {
          "indexed": true,
          "internalType": "address",
          "name": "user",
          "type": "address"
        },
        {
          "indexed": false,
          "internalType": "uint256",
          "name": "amount",
          "type": "uint256"
        },
        {
          "indexed": false,
          "internalType": "uint256",
          "name": "multiplier",
          "type": "uint256"
        }
      ],
      "name": "Staked",
      "type": "event"
    },
    {
      "anonymous": false,
      "inputs": [
        {
          "indexed": true,
          "internalType": "address",
          "name": "user",
          "type": "address"
        },
        {
          "indexed": false,
          "internalType": "uint256",
          "name": "amount",
          "type": "uint256"
        }
      ],
      "name": "Unstaked",
      "type": "event"
    },
    {
      "inputs": [],
      "name": "REWARD_RATE",
      "outputs": [
        {
          "internalType": "uint256",
          "name": "",
          "type": "uint256"
        }
      ],
      "stateMutability": "view",
      "type": "function"
    },
    {
      "inputs": [
        {
          "internalType": "address",
          "name": "_user",
          "type": "address"
        }
      ],
      "name": "calculateRewards",
      "outputs": [
        {
          "internalType": "uint256",
          "name": "",
          "type": "uint256"
        }
      ],
      "stateMutability": "view",
      "type": "function"
    },
    {
      "inputs": [],
      "name": "claimRewards",
      "outputs": [],
      "stateMutability": "nonpayable",
      "type": "function"
    },
    {
      "inputs": [],
      "name": "getAllTiers",
      "outputs": [
        {
          "components": [
            {
              "internalType": "uint256",
              "name": "minStake",
              "type": "uint256"
            },
            {
              "internalType": "uint256",
              "name": "multiplier",
              "type": "uint256"
            },
            {
              "internalType": "string",
              "name": "name",
              "type": "string"
            }
          ],
          "internalType": "struct MONStaking.StakingTier[5]",
          "name": "",
          "type": "tuple[5]"
        }
      ],
      "stateMutability": "view",
      "type": "function"
    },
    {
      "inputs": [],
      "name": "getGlobalStats",
      "outputs": [
        {
          "internalType": "uint256",
          "name": "_totalStaked",
          "type": "uint256"
        },
        {
          "internalType": "uint256",
          "name": "_totalStakers",
          "type": "uint256"
        }
      ],
      "stateMutability": "view",
      "type": "function"
    },
    {
      "inputs": [
        {
          "internalType": "address",
          "name": "_user",
          "type": "address"
        }
      ],
      "name": "getStakeInfo",
      "outputs": [
        {
          "internalType": "uint256",
          "name": "amount",
          "type": "uint256"
        },
        {
          "internalType": "uint256",
          "name": "startTime",
          "type": "uint256"
        },
        {
          "internalType": "uint256",
          "name": "lastClaimTimeValue",
          "type": "uint256"
        },
        {
          "internalType": "uint256",
          "name": "multiplier",
          "type": "uint256"
        },
        {
          "internalType": "uint256",
          "name": "pendingRewards",
          "type": "uint256"
        }
      ],
      "stateMutability": "view",
      "type": "function"
    },
    {
      "inputs": [
        {
          "internalType": "address",
          "name": "_user",
          "type": "address"
        }
      ],
      "name": "getUserTier",
      "outputs": [
        {
          "components": [
            {
              "internalType": "uint256",
              "name": "minStake",
              "type": "uint256"
            },
            {
              "internalType": "uint256",
              "name": "multiplier",
              "type": "uint256"
            },
            {
              "internalType": "string",
              "name": "name",
              "type": "string"
            }
          ],
          "internalType": "struct MONStaking.StakingTier",
          "name": "",
          "type": "tuple"
        }
      ],
      "stateMutability": "view",
      "type": "function"
    },
    {
      "inputs": [
        {
          "internalType": "address",
          "name": "",
          "type": "address"
        }
      ],
      "name": "lastClaimTime",
      "outputs": [
        {
          "internalType": "uint256",
          "name": "",
          "type": "uint256"
        }
      ],
      "stateMutability": "view",
      "type": "function"
    },
    {
      "inputs": [
        {
          "internalType": "uint256",
          "name": "_amount",
          "type": "uint256"
        }
      ],
      "name": "stake",
      "outputs": [],
      "stateMutability": "payable",
      "type": "function"
    },
    {
      "inputs": [
        {
          "internalType": "address",
          "name": "",
          "type": "address"
        }
      ],
      "name": "stakeStartTime",
      "outputs": [
        {
          "internalType": "uint256",
          "name": "",
          "type": "uint256"
        }
      ],
      "stateMutability": "view",
      "type": "function"
    },
    {
      "inputs": [
        {
          "internalType": "address",
          "name": "",
          "type": "address"
        }
      ],
      "name": "stakes",
      "outputs": [
        {
          "internalType": "uint256",
          "name": "",
          "type": "uint256"
        }
      ],
      "stateMutability": "view",
      "type": "function"
    },
    {
      "inputs": [
        {
          "internalType": "uint256",
          "name": "",
          "type": "uint256"
        }
      ],
      "name": "tiers",
      "outputs": [
        {
          "internalType": "uint256",
          "name": "minStake",
          "type": "uint256"
        },
        {
          "internalType": "uint256",
          "name": "multiplier",
          "type": "uint256"
        },
        {
          "internalType": "string",
          "name": "name",
          "type": "string"
        }
      ],
      "stateMutability": "view",
      "type": "function"
    },
    {
      "inputs": [],
      "name": "totalStaked",
      "outputs": [
        {
          "internalType": "uint256",
          "name": "",
          "type": "uint256"
        }
      ],
      "stateMutability": "view",
      "type": "function"
    },
    {
      "inputs": [],
      "name": "totalStakers",
      "outputs": [
        {
          "internalType": "uint256",
          "name": "",
          "type": "uint256"
        }
      ],
      "stateMutability": "view",
      "type": "function"
    },
    {
      "inputs": [
        {
          "internalType": "uint256",
          "name": "_amount",
          "type": "uint256"
        }
      ],
      "name": "unstake",
      "outputs": [],
      "stateMutability": "nonpayable",
      "type": "function"
    },
    {
      "inputs": [
        {
          "internalType": "address",
          "name": "",
          "type": "address"
        }
      ],
      "name": "userMultiplier",
      "outputs": [
        {
          "internalType": "uint256",
          "name": "",
          "type": "uint256"
        }
      ],
      "stateMutability": "view",
      "type": "function"
    },
    {
      "stateMutability": "payable",
      "type": "receive"
    }
  ],
  "bytecode": "0x60806040523480156200001157600080fd5b50604051806060016040528068056bc75e2d631000008152602001606481526020016040518060400160405280600c81526020017f4261736963205374616b65720000000000000000000000000000000000000000815250815250600660006005811062000084576200008362000353565b5b6003020160008201518160000155602082015181600101556040820151816002019081620000b39190620005fc565b509050506040518060600160405280681b1ae4d6e2ef5000008152602001607d81526020016040518060400160405280601081526020017f4465766f74656420466f6c6c6f77657200000000000000000000000000000000815250815250600660016005811062000129576200012862000353565b5b6003020160008201518160000155602082015181600101556040820151816002019081620001589190620005fc565b50905050604051806060016040528068878678326eac9000008152602001609681526020016040518060400160405280600d81526020017f486f6c79204469736369706c65000000000000000000000000000000000000008152508152506006600260058110620001ce57620001cd62000353565b5b6003020160008201518160000155602082015181600101556040820151816002019081620001fd9190620005fc565b50905050604051806060016040528069021e19e0c9bab2400000815260200160c881526020016040518060400160405280600781526020017f41706f73746c6500000000000000000000000000000000000000000000000000815250815250600660036005811062000274576200027362000353565b5b6003020160008201518160000155602082015181600101556040820151816002019081620002a39190620005fc565b50905050604051806060016040528069054b40b1f852bda00000815260200160fa81526020016040518060400160405280600b81526020017f486967682050726965737400000000000000000000000000000000000000000081525081525060066004600581106200031a576200031962000353565b5b6003020160008201518160000155602082015181600101556040820151816002019081620003499190620005fc565b50905050620006e3565b7f4e487b7100000000000000000000000000000000000000000000000000000000600052603260045260246000fd5b600081519050919050565b7f4e487b7100000000000000000000000000000000000000000000000000000000600052604160045260246000fd5b7f4e487b7100000000000000000000000000000000000000000000000000000000600052602260045260246000fd5b600060028204905060018216806200040457607f821691505b6020821081036200041a5762000419620003bc565b5b50919050565b60008190508160005260206000209050919050565b60006020601f8301049050919050565b600082821b905092915050565b600060088302620004847fffffffffffffffffffffffffffffffffffffffffffffffffffffffffffffffff8262000445565b62000490868362000445565b95508019841693508086168417925050509392505050565b6000819050919050565b6000819050919050565b6000620004dd620004d7620004d184620004a8565b620004b2565b620004a8565b9050919050565b6000819050919050565b620004f983620004bc565b620005116200050882620004e4565b84845462000452565b825550505050565b600090565b6200052862000519565b62000535818484620004ee565b505050565b5b818110156200055d57620005516000826200051e565b6001810190506200053b565b5050565b601f821115620005ac57620005768162000420565b620005818462000435565b8101602085101562000591578190505b620005a9620005a08562000435565b8301826200053a565b50505b505050565b600082821c905092915050565b6000620005d160001984600802620005b1565b1980831691505092915050565b6000620005ec8383620005be565b9150826002028217905092915050565b620006078262000382565b67ffffffffffffffff8111156200062357620006226200038d565b5b6200062f8254620003eb565b6200063c82828562000561565b600060209050601f8311600181146200067457600084156200065f578287015190505b6200066b8582620005de565b865550620006db565b601f198416620006848662000420565b60005b82811015620006ae5784890151825560018201915060208501945060208101905062000687565b86831015620006ce5784890151620006ca601f891682620005be565b8355505b6001600288020188555050505b505050505050565b611be280620006f36000396000f3fe6080604052600436106100f75760003560e01c80636b4169c31161008a578063b1a03b6b11610059578063b1a03b6b14610340578063b77cf9c61461037d578063c3453153146103ba578063e4d2620e146103fb57610111565b80636b4169c3146102a2578063817b1cd2146102ce57806386989038146102f9578063a694fc3a1461032457610111565b80635997bb37116100c65780635997bb37146101d25780636471af83146101fd57806364ab8675146102285780636985e6d81461026557610111565b8063039af9eb1461011657806316934fc4146101555780632e17de7814610192578063372500ab146101bb57610111565b3661011157600034111561010f5761010e34610438565b5b005b600080fd5b34801561012257600080fd5b5061013d6004803603810190610138919061149b565b610715565b60405161014c93929190611567565b60405180910390f35b34801561016157600080fd5b5061017c60048036038101906101779190611603565b6107cd565b6040516101899190611630565b60405180910390f35b34801561019e57600080fd5b506101b960048036038101906101b4919061149b565b6107e5565b005b3480156101c757600080fd5b506101d0610b75565b005b3480156101de57600080fd5b506101e7610c40565b6040516101f49190611630565b60405180910390f35b34801561020957600080fd5b50610212610c4b565b60405161021f91906117aa565b60405180910390f35b34801561023457600080fd5b5061024f600480360381019061024a9190611603565b610d60565b60405161025c9190611630565b60405180910390f35b34801561027157600080fd5b5061028c60048036038101906102879190611603565b610e7d565b6040516102999190611630565b60405180910390f35b3480156102ae57600080fd5b506102b7610e95565b6040516102c59291906117cc565b60405180910390f35b3480156102da57600080fd5b506102e3610ea6565b6040516102f09190611630565b60405180910390f35b34801561030557600080fd5b5061030e610eac565b60405161031b9190611630565b60405180910390f35b61033e6004803603810190610339919061149b565b610eb2565b005b34801561034c57600080fd5b5061036760048036038101906103629190611603565b610f3b565b6040516103749190611630565b60405180910390f35b34801561038957600080fd5b506103a4600480360381019061039f9190611603565b610f53565b6040516103b19190611630565b60405180910390f35b3480156103c657600080fd5b506103e160048036038101906103dc9190611603565b610f6b565b6040516103f29594939291906117f5565b60405180910390f35b34801561040757600080fd5b50610422600480360381019061041d9190611603565b61108e565b60405161042f9190611898565b60405180910390f35b60008060003373ffffffffffffffffffffffffffffffffffffffff1673ffffffffffffffffffffffffffffffffffffffff1681526020019081526020016000205411156104fa57600061048a33610d60565b9050600081111561049f5761049e816112bb565b5b816000803373ffffffffffffffffffffffffffffffffffffffff1673ffffffffffffffffffffffffffffffffffffffff16815260200190815260200160002060008282546104ed91906118e9565b92505081905550506105e0565b806000803373ffffffffffffffffffffffffffffffffffffffff1673ffffffffffffffffffffffffffffffffffffffff1681526020019081526020016000208190555042600160003373ffffffffffffffffffffffffffffffffffffffff1673ffffffffffffffffffffffffffffffffffffffff1681526020019081526020016000208190555042600260003373ffffffffffffffffffffffffffffffffffffffff1673ffffffffffffffffffffffffffffffffffffffff168152602001908152602001600020819055506001600560008282546105d891906118e9565b925050819055505b80600460008282546105f291906118e9565b925050819055506106406000803373ffffffffffffffffffffffffffffffffffffffff1673ffffffffffffffffffffffffffffffffffffffff16815260200190815260200160002054611397565b600360003373ffffffffffffffffffffffffffffffffffffffff1673ffffffffffffffffffffffffffffffffffffffff168152602001908152602001600020819055503373ffffffffffffffffffffffffffffffffffffffff167f1449c6dd7851abc30abf37f57715f492010519147cc2652fbc38202c18a6ee9082600360003373ffffffffffffffffffffffffffffffffffffffff1673ffffffffffffffffffffffffffffffffffffffff1681526020019081526020016000205460405161070a9291906117cc565b60405180910390a250565b6006816005811061072557600080fd5b6003020160009150905080600001549080600101549080600201805461074a9061194c565b80601f01602080910402602001604051908101604052809291908181526020018280546107769061194c565b80156107c35780601f10610798576101008083540402835291602001916107c3565b820191906000526020600020905b8154815290600101906020018083116107a657829003601f168201915b5050505050905083565b60006020528060005260406000206000915090505481565b60008060003373ffffffffffffffffffffffffffffffffffffffff1673ffffffffffffffffffffffffffffffffffffffff168152602001908152602001600020540361085d576040517ffb34894200000000000000000000000000000000000000000000000000000000815260040160405180910390fd5b60008103610897576040517ff69a94d300000000000000000000000000000000000000000000000000000000815260040160405180910390fd5b6000803373ffffffffffffffffffffffffffffffffffffffff1673ffffffffffffffffffffffffffffffffffffffff16815260200190815260200160002054811115610918576040517f08c379a000000000000000000000000000000000000000000000000000000000815260040161090f906119c9565b60405180910390fd5b600061092333610d60565b9050600081111561093857610937816112bb565b5b816000803373ffffffffffffffffffffffffffffffffffffffff1673ffffffffffffffffffffffffffffffffffffffff168152602001908152602001600020600082825461098691906119e9565b92505081905550816004600082825461099f91906119e9565b9250508190555060008060003373ffffffffffffffffffffffffffffffffffffffff1673ffffffffffffffffffffffffffffffffffffffff168152602001908152602001600020541115610a7c57610a346000803373ffffffffffffffffffffffffffffffffffffffff1673ffffffffffffffffffffffffffffffffffffffff16815260200190815260200160002054611397565b600360003373ffffffffffffffffffffffffffffffffffffffff1673ffffffffffffffffffffffffffffffffffffffff16815260200190815260200160002081905550610adc565b6000600360003373ffffffffffffffffffffffffffffffffffffffff1673ffffffffffffffffffffffffffffffffffffffff16815260200190815260200160002081905550600160056000828254610ad491906119e9565b925050819055505b3373ffffffffffffffffffffffffffffffffffffffff166108fc839081150290604051600060405180830381858888f19350505050158015610b22573d6000803e3d6000fd5b503373ffffffffffffffffffffffffffffffffffffffff167f0f5bb82176feb1b5e747e28471aa92156a04d9f3ab9f45f28e2d704232b93f7583604051610b699190611630565b60405180910390a25050565b60008060003373ffffffffffffffffffffffffffffffffffffffff1673ffffffffffffffffffffffffffffffffffffffff1681526020019081526020016000205403610bed576040517ffb34894200000000000000000000000000000000000000000000000000000000815260040160405180910390fd5b6000610bf833610d60565b905060008103610c34576040517f969bf72800000000000000000000000000000000000000000000000000000000815260040160405180910390fd5b610c3d816112bb565b50565b66038d7ea4c6800081565b610c53611412565b610c5b611412565b60005b6005811015610d585760068160058110610c7b57610c7a611a1d565b5b600302016040518060600160405290816000820154815260200160018201548152602001600282018054610cae9061194c565b80601f0160208091040260200160405190810160405280929190818152602001828054610cda9061194c565b8015610d275780601f10610cfc57610100808354040283529160200191610d27565b820191906000526020600020905b815481529060010190602001808311610d0a57829003601f168201915b505050505081525050828260058110610d4357610d42611a1d565b5b60200201819052508080600101915050610c5e565b508091505090565b6000806000808473ffffffffffffffffffffffffffffffffffffffff1673ffffffffffffffffffffffffffffffffffffffff1681526020019081526020016000205403610db05760009050610e78565b6000600260008473ffffffffffffffffffffffffffffffffffffffff1673ffffffffffffffffffffffffffffffffffffffff1681526020019081526020016000205442610dfd91906119e9565b90506000600360008573ffffffffffffffffffffffffffffffffffffffff1673ffffffffffffffffffffffffffffffffffffffff16815260200190815260200160002054905060006064828466038d7ea4c68000610e5b9190611a4c565b610e659190611a4c565b610e6f9190611abd565b90508093505050505b919050565b60016020528060005260406000206000915090505481565b600080600454600554915091509091565b60045481565b60055481565b60008103610eec576040517ff69a94d300000000000000000000000000000000000000000000000000000000815260040160405180910390fd5b80341015610f2f576040517f08c379a0000000000000000000000000000000000000000000000000000000008152600401610f2690611b3a565b60405180910390fd5b610f3881610438565b50565b60036020528060005260406000206000915090505481565b60026020528060005260406000206000915090505481565b60008060008060008060008773ffffffffffffffffffffffffffffffffffffffff1673ffffffffffffffffffffffffffffffffffffffff16815260200190815260200160002054600160008873ffffffffffffffffffffffffffffffffffffffff1673ffffffffffffffffffffffffffffffffffffffff16815260200190815260200160002054600260008973ffffffffffffffffffffffffffffffffffffffff1673ffffffffffffffffffffffffffffffffffffffff16815260200190815260200160002054600360008a73ffffffffffffffffffffffffffffffffffffffff1673ffffffffffffffffffffffffffffffffffffffff1681526020019081526020016000205461107b8a610d60565b9450945094509450945091939590929450565b61109661143f565b6000600360008473ffffffffffffffffffffffffffffffffffffffff1673ffffffffffffffffffffffffffffffffffffffff16815260200190815260200160002054905060005b60058110156111e75781600682600581106110fb576110fa611a1d565b5b6003020160010154036111da576006816005811061111c5761111b611a1d565b5b60030201604051806060016040529081600082015481526020016001820154815260200160028201805461114f9061194c565b80601f016020809104026020016040519081016040528092919081815260200182805461117b9061194c565b80156111c85780601f1061119d576101008083540402835291602001916111c8565b820191906000526020600020905b8154815290600101906020018083116111ab57829003601f168201915b505050505081525050925050506112b6565b80806001019150506110dd565b5060066000600581106111fd576111fc611a1d565b5b6003020160405180606001604052908160008201548152602001600182015481526020016002820180546112309061194c565b80601f016020809104026020016040519081016040528092919081815260200182805461125c9061194c565b80156112a95780601f1061127e576101008083540402835291602001916112a9565b820191906000526020600020905b81548152906001019060200180831161128c57829003601f168201915b5050505050815250509150505b919050565b42600260003373ffffffffffffffffffffffffffffffffffffffff1673ffffffffffffffffffffffffffffffffffffffff168152602001908152602001600020819055503373ffffffffffffffffffffffffffffffffffffffff166108fc829081150290604051600060405180830381858888f19350505050158015611345573d6000803e3d6000fd5b503373ffffffffffffffffffffffffffffffffffffffff167ffc30cddea38e2bf4d6ea7d3f9ed3b6ad7f176419f4963bd81318067a4aee73fe8260405161138c9190611630565b60405180910390a250565b600080600490505b60008112611407576000819050600681600581106113c0576113bf611a1d565b5b600302016000015484106113f357600681600581106113e2576113e1611a1d565b5b60030201600101549250505061140d565b5080806113ff90611b64565b91505061139f565b50606490505b919050565b6040518060a001604052806005905b61142961143f565b8152602001906001900390816114215790505090565b60405180606001604052806000815260200160008152602001606081525090565b600080fd5b6000819050919050565b61147881611465565b811461148357600080fd5b50565b6000813590506114958161146f565b92915050565b6000602082840312156114b1576114b0611460565b5b60006114bf84828501611486565b91505092915050565b6114d181611465565b82525050565b600081519050919050565b600082825260208201905092915050565b60005b838110156115115780820151818401526020810190506114f6565b60008484015250505050565b6000601f19601f8301169050919050565b6000611539826114d7565b61154381856114e2565b93506115538185602086016114f3565b61155c8161151d565b840191505092915050565b600060608201905061157c60008301866114c8565b61158960208301856114c8565b818103604083015261159b818461152e565b9050949350505050565b600073ffffffffffffffffffffffffffffffffffffffff82169050919050565b60006115d0826115a5565b9050919050565b6115e0816115c5565b81146115eb57600080fd5b50565b6000813590506115fd816115d7565b92915050565b60006020828403121561161957611618611460565b5b6000611627848285016115ee565b91505092915050565b600060208201905061164560008301846114c8565b92915050565b600060059050919050565b600081905092915050565b6000819050919050565b61167481611465565b82525050565b600082825260208201905092915050565b6000611696826114d7565b6116a0818561167a565b93506116b08185602086016114f3565b6116b98161151d565b840191505092915050565b60006060830160008301516116dc600086018261166b565b5060208301516116ef602086018261166b565b5060408301518482036040860152611707828261168b565b9150508091505092915050565b600061172083836116c4565b905092915050565b6000602082019050919050565b60006117408261164b565b61174a8185611656565b93508360208202850161175c85611661565b8060005b8581101561179857848403895281516117798582611714565b945061178483611728565b925060208a01995050600181019050611760565b50829750879550505050505092915050565b600060208201905081810360008301526117c48184611735565b905092915050565b60006040820190506117e160008301856114c8565b6117ee60208301846114c8565b9392505050565b600060a08201905061180a60008301886114c8565b61181760208301876114c8565b61182460408301866114c8565b61183160608301856114c8565b61183e60808301846114c8565b9695505050505050565b6000606083016000830151611860600086018261166b565b506020830151611873602086018261166b565b506040830151848203604086015261188b828261168b565b9150508091505092915050565b600060208201905081810360008301526118b28184611848565b905092915050565b7f4e487b7100000000000000000000000000000000000000000000000000000000600052601160045260246000fd5b60006118f482611465565b91506118ff83611465565b9250828201905080821115611917576119166118ba565b5b92915050565b7f4e487b7100000000000000000000000000000000000000000000000000000000600052602260045260246000fd5b6000600282049050600182168061196457607f821691505b6020821081036119775761197661191d565b5b50919050565b7f416d6f756e742065786365656473207374616b65642062616c616e6365000000600082015250565b60006119b3601d836114e2565b91506119be8261197d565b602082019050919050565b600060208201905081810360008301526119e2816119a6565b9050919050565b60006119f482611465565b91506119ff83611465565b9250828203905081811115611a1757611a166118ba565b5b92915050565b7f4e487b7100000000000000000000000000000000000000000000000000000000600052603260045260246000fd5b6000611a5782611465565b9150611a6283611465565b9250828202611a7081611465565b91508282048414831517611a8757611a866118ba565b5b5092915050565b7f4e487b7100000000000000000000000000000000000000000000000000000000600052601260045260246000fd5b6000611ac882611465565b9150611ad383611465565b925082611ae357611ae2611a8e565b5b828204905092915050565b7f496e73756666696369656e74204d4f4e2073656e740000000000000000000000600082015250565b6000611b246015836114e2565b9150611b2f82611aee565b602082019050919050565b60006020820190508181036000830152611b5381611b17565b9050919050565b6000819050919050565b6000611b6f82611b5a565b91507f80000000000000000000000000000000000000000000000000000000000000008203611ba157611ba06118ba565b5b60018203905091905056fea2646970667358221220ed54a7830ccd763dd15537629b18e768550333611f22859de9e513e45657d8fa64736f6c63430008180033",
  "linkReferences": {},
  "deployedLinkReferences": {}
}