{
  "_format": "hh-sol-artifact-1",
  "contractName": "MONStaking",
  "sourceName": "contracts/MONStaking.sol",
  "abi": [
    {
      "inputs": [],
      "stateMutability": "nonpayable",
      "type": "constructor"
    },
    {
      "inputs": [],
      "name": "NoActiveStake",
      "type": "error"
    },
    {
      "inputs": [],
      "name": "NothingToClaim",
      "type": "error"
    },
    {
      "inputs": [
        {
          "internalType": "uint256",
          "name": "lockPeriodRemaining",
          "type": "uint256"
        }
      ],
      "name": "StakeLocked",
      "type": "error"
    },
    {
      "inputs": [],
      "name": "ZeroStakeAmount",
      "type": "error"
    },
    {
      "anonymous": false,
      "inputs": [
        {
          "indexed": true,
          "internalType": "address",
          "name": "user",
          "type": "address"
        },
        {
          "indexed": false,
          "internalType": "uint256",
          "name": "amount",
          "type": "uint256"
        }
      ],
      "name": "RewardsClaimed",
      "type": "event"
    },
    {
      "anonymous": false,
      "inputs": [
        {
          "indexed": true,
          "internalType": "address",
          "name": "user",
          "type": "address"
        },
        {
          "indexed": false,
          "internalType": "uint256",
          "name": "amount",
          "type": "uint256"
        },
        {
          "indexed": false,
          "internalType": "uint256",
          "name": "multiplier",
          "type": "uint256"
        }
      ],
      "name": "Staked",
      "type": "event"
    },
    {
      "anonymous": false,
      "inputs": [
        {
          "indexed": true,
          "internalType": "address",
          "name": "user",
          "type": "address"
        },
        {
          "indexed": false,
          "internalType": "uint256",
          "name": "amount",
          "type": "uint256"
        }
      ],
      "name": "Unstaked",
      "type": "event"
    },
    {
      "inputs": [],
      "name": "REWARD_RATE",
      "outputs": [
        {
          "internalType": "uint256",
          "name": "",
          "type": "uint256"
        }
      ],
      "stateMutability": "view",
      "type": "function"
    },
    {
      "inputs": [
        {
          "internalType": "address",
          "name": "_user",
          "type": "address"
        }
      ],
      "name": "calculateRewards",
      "outputs": [
        {
          "internalType": "uint256",
          "name": "",
          "type": "uint256"
        }
      ],
      "stateMutability": "view",
      "type": "function"
    },
    {
      "inputs": [],
      "name": "claimRewards",
      "outputs": [],
      "stateMutability": "nonpayable",
      "type": "function"
    },
    {
      "inputs": [],
      "name": "getAllTiers",
      "outputs": [
        {
          "components": [
            {
              "internalType": "uint256",
              "name": "minStake",
              "type": "uint256"
            },
            {
              "internalType": "uint256",
              "name": "multiplier",
              "type": "uint256"
            },
            {
              "internalType": "string",
              "name": "name",
              "type": "string"
            }
          ],
          "internalType": "struct MONStaking.StakingTier[5]",
          "name": "",
          "type": "tuple[5]"
        }
      ],
      "stateMutability": "view",
      "type": "function"
    },
    {
      "inputs": [],
      "name": "getGlobalStats",
      "outputs": [
        {
          "internalType": "uint256",
          "name": "_totalStaked",
          "type": "uint256"
        },
        {
          "internalType": "uint256",
          "name": "_totalStakers",
          "type": "uint256"
        }
      ],
      "stateMutability": "view",
      "type": "function"
    },
    {
      "inputs": [
        {
          "internalType": "address",
          "name": "_user",
          "type": "address"
        }
      ],
      "name": "getStakeInfo",
      "outputs": [
        {
          "internalType": "uint256",
          "name": "amount",
          "type": "uint256"
        },
        {
          "internalType": "uint256",
          "name": "startTime",
          "type": "uint256"
        },
        {
          "internalType": "uint256",
          "name": "lastClaimTimeValue",
          "type": "uint256"
        },
        {
          "internalType": "uint256",
          "name": "multiplier",
          "type": "uint256"
        },
        {
          "internalType": "uint256",
          "name": "pendingRewards",
          "type": "uint256"
        }
      ],
      "stateMutability": "view",
      "type": "function"
    },
    {
      "inputs": [
        {
          "internalType": "address",
          "name": "_user",
          "type": "address"
        }
      ],
      "name": "getUserTier",
      "outputs": [
        {
          "components": [
            {
              "internalType": "uint256",
              "name": "minStake",
              "type": "uint256"
            },
            {
              "internalType": "uint256",
              "name": "multiplier",
              "type": "uint256"
            },
            {
              "internalType": "string",
              "name": "name",
              "type": "string"
            }
          ],
          "internalType": "struct MONStaking.StakingTier",
          "name": "",
          "type": "tuple"
        }
      ],
      "stateMutability": "view",
      "type": "function"
    },
    {
      "inputs": [
        {
          "internalType": "address",
          "name": "",
          "type": "address"
        }
      ],
      "name": "lastClaimTime",
      "outputs": [
        {
          "internalType": "uint256",
          "name": "",
          "type": "uint256"
        }
      ],
      "stateMutability": "view",
      "type": "function"
    },
    {
      "inputs": [
        {
          "internalType": "uint256",
          "name": "_amount",
          "type": "uint256"
        }
      ],
      "name": "stake",
      "outputs": [],
      "stateMutability": "payable",
      "type": "function"
    },
    {
      "inputs": [
        {
          "internalType": "address",
          "name": "",
          "type": "address"
        }
      ],
      "name": "stakeStartTime",
      "outputs": [
        {
          "internalType": "uint256",
          "name": "",
          "type": "uint256"
        }
      ],
      "stateMutability": "view",
      "type": "function"
    },
    {
      "inputs": [
        {
          "internalType": "address",
          "name": "",
          "type": "address"
        }
      ],
      "name": "stakes",
      "outputs": [
        {
          "internalType": "uint256",
          "name": "",
          "type": "uint256"
        }
      ],
      "stateMutability": "view",
      "type": "function"
    },
    {
      "inputs": [
        {
          "internalType": "uint256",
          "name": "",
          "type": "uint256"
        }
      ],
      "name": "tiers",
      "outputs": [
        {
          "internalType": "uint256",
          "name": "minStake",
          "type": "uint256"
        },
        {
          "internalType": "uint256",
          "name": "multiplier",
          "type": "uint256"
        },
        {
          "internalType": "string",
          "name": "name",
          "type": "string"
        }
      ],
      "stateMutability": "view",
      "type": "function"
    },
    {
      "inputs": [],
      "name": "totalStaked",
      "outputs": [
        {
          "internalType": "uint256",
          "name": "",
          "type": "uint256"
        }
      ],
      "stateMutability": "view",
      "type": "function"
    },
    {
      "inputs": [],
      "name": "totalStakers",
      "outputs": [
        {
          "internalType": "uint256",
          "name": "",
          "type": "uint256"
        }
      ],
      "stateMutability": "view",
      "type": "function"
    },
    {
      "inputs": [
        {
          "internalType": "uint256",
          "name": "_amount",
          "type": "uint256"
        }
      ],
      "name": "unstake",
      "outputs": [],
      "stateMutability": "nonpayable",
      "type": "function"
    },
    {
      "inputs": [
        {
          "internalType": "address",
          "name": "",
          "type": "address"
        }
      ],
      "name": "userMultiplier",
      "outputs": [
        {
          "internalType": "uint256",
          "name": "",
          "type": "uint256"
        }
      ],
      "stateMutability": "view",
      "type": "function"
    },
    {
      "stateMutability": "payable",
      "type": "receive"
    }
  ],
  "bytecode": "0x60806040523480156200001157600080fd5b50604051806060016040528068056bc75e2d631000008152602001606481526020016040518060400160405280600c81526020017f4261736963205374616b65720000000000000000000000000000000000000000815250815250600660006005811062000084576200008362000353565b5b6003020160008201518160000155602082015181600101556040820151816002019081620000b39190620005fc565b509050506040518060600160405280681b1ae4d6e2ef5000008152602001607d81526020016040518060400160405280601081526020017f4465766f74656420466f6c6c6f77657200000000000000000000000000000000815250815250600660016005811062000129576200012862000353565b5b6003020160008201518160000155602082015181600101556040820151816002019081620001589190620005fc565b50905050604051806060016040528068878678326eac9000008152602001609681526020016040518060400160405280600d81526020017f486f6c79204469736369706c65000000000000000000000000000000000000008152508152506006600260058110620001ce57620001cd62000353565b5b6003020160008201518160000155602082015181600101556040820151816002019081620001fd9190620005fc565b50905050604051806060016040528069021e19e0c9bab2400000815260200160c881526020016040518060400160405280600781526020017f41706f73746c6500000000000000000000000000000000000000000000000000815250815250600660036005811062000274576200027362000353565b5b6003020160008201518160000155602082015181600101556040820151816002019081620002a39190620005fc565b50905050604051806060016040528069054b40b1f852bda00000815260200160fa81526020016040518060400160405280600b81526020017f486967682050726965737400000000000000000000000000000000000000000081525081525060066004600581106200031a576200031962000353565b5b6003020160008201518160000155602082015181600101556040820151816002019081620003499190620005fc565b50905050620006e3565b7f4e487b7100000000000000000000000000000000000000000000000000000000600052603260045260246000fd5b600081519050919050565b7f4e487b7100000000000000000000000000000000000000000000000000000000600052604160045260246000fd5b7f4e487b7100000000000000000000000000000000000000000000000000000000600052602260045260246000fd5b600060028204905060018216806200040457607f821691505b6020821081036200041a5762000419620003bc565b5b50919050565b60008190508160005260206000209050919050565b60006020601f8301049050919050565b600082821b905092915050565b600060088302620004847fffffffffffffffffffffffffffffffffffffffffffffffffffffffffffffffff8262000445565b62000490868362000445565b95508019841693508086168417925050509392505050565b6000819050919050565b6000819050919050565b6000620004dd620004d7620004d184620004a8565b620004b2565b620004a8565b9050919050565b6000819050919050565b620004f983620004bc565b620005116200050882620004e4565b84845462000452565b825550505050565b600090565b6200052862000519565b62000535818484620004ee565b505050565b5b818110156200055d57620005516000826200051e565b6001810190506200053b565b5050565b601f821115620005ac57620005768162000420565b620005818462000435565b8101602085101562000591578190505b620005a9620005a08562000435565b8301826200053a565b50505b505050565b600082821c905092915050565b6000620005d160001984600802620005b1565b1980831691505092915050565b6000620005ec8383620005be565b9150826002028217905092915050565b620006078262000382565b67ffffffffffffffff8111156200062357620006226200038d565b5b6200062f8254620003eb565b6200063c82828562000561565b600060209050601f8311600181146200067457600084156200065f578287015190505b6200066b8582620005de565b865550620006db565b601f198416620006848662000420565b60005b82811015620006ae5784890151825560018201915060208501945060208101905062000687565b86831015620006ce5784890151620006ca601f891682620005be565b8355505b6001600288020188555050505b505050505050565b611bdd80620006f36000396000f3fe6080604052600436106100f75760003560e01c80636b4169c31161008a578063b1a03b6b11610059578063b1a03b6b14610340578063b77cf9c61461037d578063c3453153146103ba578063e4d2620e146103fb57610111565b80636b4169c3146102a2578063817b1cd2146102ce57806386989038146102f9578063a694fc3a1461032457610111565b80635997bb37116100c65780635997bb37146101d25780636471af83146101fd57806364ab8675146102285780636985e6d81461026557610111565b8063039af9eb1461011657806316934fc4146101555780632e17de7814610192578063372500ab146101bb57610111565b3661011157600034111561010f5761010e34610438565b5b005b600080fd5b34801561012257600080fd5b5061013d60048036038101906101389190611496565b610715565b60405161014c93929190611562565b60405180910390f35b34801561016157600080fd5b5061017c600480360381019061017791906115fe565b6107cd565b604051610189919061162b565b60405180910390f35b34801561019e57600080fd5b506101b960048036038101906101b49190611496565b6107e5565b005b3480156101c757600080fd5b506101d0610b75565b005b3480156101de57600080fd5b506101e7610c40565b6040516101f4919061162b565b60405180910390f35b34801561020957600080fd5b50610212610c4b565b60405161021f91906117a5565b60405180910390f35b34801561023457600080fd5b5061024f600480360381019061024a91906115fe565b610d60565b60405161025c919061162b565b60405180910390f35b34801561027157600080fd5b5061028c600480360381019061028791906115fe565b610e7d565b604051610299919061162b565b60405180910390f35b3480156102ae57600080fd5b506102b7610e95565b6040516102c59291906117c7565b60405180910390f35b3480156102da57600080fd5b506102e3610ea1565b6040516102f0919061162b565b60405180910390f35b34801561030557600080fd5b5061030e610ea7565b60405161031b919061162b565b60405180910390f35b61033e60048036038101906103399190611496565b610ead565b005b34801561034c57600080fd5b50610367600480360381019061036291906115fe565b610f36565b604051610374919061162b565b60405180910390f35b34801561038957600080fd5b506103a4600480360381019061039f91906115fe565b610f4e565b6040516103b1919061162b565b60405180910390f35b3480156103c657600080fd5b506103e160048036038101906103dc91906115fe565b610f66565b6040516103f29594939291906117f0565b60405180910390f35b34801561040757600080fd5b50610422600480360381019061041d91906115fe565b611089565b60405161042f9190611893565b60405180910390f35b60008060003373ffffffffffffffffffffffffffffffffffffffff1673ffffffffffffffffffffffffffffffffffffffff1681526020019081526020016000205411156104fa57600061048a33610d60565b9050600081111561049f5761049e816112b6565b5b816000803373ffffffffffffffffffffffffffffffffffffffff1673ffffffffffffffffffffffffffffffffffffffff16815260200190815260200160002060008282546104ed91906118e4565b92505081905550506105e0565b806000803373ffffffffffffffffffffffffffffffffffffffff1673ffffffffffffffffffffffffffffffffffffffff1681526020019081526020016000208190555042600160003373ffffffffffffffffffffffffffffffffffffffff1673ffffffffffffffffffffffffffffffffffffffff1681526020019081526020016000208190555042600260003373ffffffffffffffffffffffffffffffffffffffff1673ffffffffffffffffffffffffffffffffffffffff168152602001908152602001600020819055506001600560008282546105d891906118e4565b925050819055505b80600460008282546105f291906118e4565b925050819055506106406000803373ffffffffffffffffffffffffffffffffffffffff1673ffffffffffffffffffffffffffffffffffffffff16815260200190815260200160002054611392565b600360003373ffffffffffffffffffffffffffffffffffffffff1673ffffffffffffffffffffffffffffffffffffffff168152602001908152602001600020819055503373ffffffffffffffffffffffffffffffffffffffff167f1449c6dd7851abc30abf37f57715f492010519147cc2652fbc38202c18a6ee9082600360003373ffffffffffffffffffffffffffffffffffffffff1673ffffffffffffffffffffffffffffffffffffffff1681526020019081526020016000205460405161070a9291906117c7565b60405180910390a250565b6006816005811061072557600080fd5b6003020160009150905080600001549080600101549080600201805461074a90611947565b80601f016020809104026020016040519081016040528092919081815260200182805461077690611947565b80156107c35780601f10610798576101008083540402835291602001916107c3565b820191906000526020600020905b8154815290600101906020018083116107a657829003601f168201915b5050505050905083565b60006020528060005260406000206000915090505481565b60008060003373ffffffffffffffffffffffffffffffffffffffff1673ffffffffffffffffffffffffffffffffffffffff168152602001908152602001600020540361085d576040517ffb34894200000000000000000000000000000000000000000000000000000000815260040160405180910390fd5b60008103610897576040517ff69a94d300000000000000000000000000000000000000000000000000000000815260040160405180910390fd5b6000803373ffffffffffffffffffffffffffffffffffffffff1673ffffffffffffffffffffffffffffffffffffffff16815260200190815260200160002054811115610918576040517f08c379a000000000000000000000000000000000000000000000000000000000815260040161090f906119c4565b60405180910390fd5b600061092333610d60565b9050600081111561093857610937816112b6565b5b816000803373ffffffffffffffffffffffffffffffffffffffff1673ffffffffffffffffffffffffffffffffffffffff168152602001908152602001600020600082825461098691906119e4565b92505081905550816004600082825461099f91906119e4565b9250508190555060008060003373ffffffffffffffffffffffffffffffffffffffff1673ffffffffffffffffffffffffffffffffffffffff168152602001908152602001600020541115610a7c57610a346000803373ffffffffffffffffffffffffffffffffffffffff1673ffffffffffffffffffffffffffffffffffffffff16815260200190815260200160002054611392565b600360003373ffffffffffffffffffffffffffffffffffffffff1673ffffffffffffffffffffffffffffffffffffffff16815260200190815260200160002081905550610adc565b6000600360003373ffffffffffffffffffffffffffffffffffffffff1673ffffffffffffffffffffffffffffffffffffffff16815260200190815260200160002081905550600160056000828254610ad491906119e4565b925050819055505b3373ffffffffffffffffffffffffffffffffffffffff166108fc839081150290604051600060405180830381858888f19350505050158015610b22573d6000803e3d6000fd5b503373ffffffffffffffffffffffffffffffffffffffff167f0f5bb82176feb1b5e747e28471aa92156a04d9f3ab9f45f28e2d704232b93f7583604051610b69919061162b565b60405180910390a25050565b60008060003373ffffffffffffffffffffffffffffffffffffffff1673ffffffffffffffffffffffffffffffffffffffff1681526020019081526020016000205403610bed576040517ffb34894200000000000000000000000000000000000000000000000000000000815260040160405180910390fd5b6000610bf833610d60565b905060008103610c34576040517f969bf72800000000000000000000000000000000000000000000000000000000815260040160405180910390fd5b610c3d816112b6565b50565b66038d7ea4c6800081565b610c5361140d565b610c5b61140d565b60005b6005811015610d585760068160058110610c7b57610c7a611a18565b5b600302016040518060600160405290816000820154815260200160018201548152602001600282018054610cae90611947565b80601f0160208091040260200160405190810160405280929190818152602001828054610cda90611947565b8015610d275780601f10610cfc57610100808354040283529160200191610d27565b820191906000526020600020905b815481529060010190602001808311610d0a57829003601f168201915b505050505081525050828260058110610d4357610d42611a18565b5b60200201819052508080600101915050610c5e565b508091505090565b6000806000808473ffffffffffffffffffffffffffffffffffffffff1673ffffffffffffffffffffffffffffffffffffffff1681526020019081526020016000205403610db05760009050610e78565b6000600260008473ffffffffffffffffffffffffffffffffffffffff1673ffffffffffffffffffffffffffffffffffffffff1681526020019081526020016000205442610dfd91906119e4565b90506000600360008573ffffffffffffffffffffffffffffffffffffffff1673ffffffffffffffffffffffffffffffffffffffff16815260200190815260200160002054905060006064828466038d7ea4c68000610e5b9190611a47565b610e659190611a47565b610e6f9190611ab8565b90508093505050505b919050565b60016020528060005260406000206000915090505481565b60008060045491509091565b60045481565b60055481565b60008103610ee7576040517ff69a94d300000000000000000000000000000000000000000000000000000000815260040160405180910390fd5b80341015610f2a576040517f08c379a0000000000000000000000000000000000000000000000000000000008152600401610f2190611b35565b60405180910390fd5b610f3381610438565b50565b60036020528060005260406000206000915090505481565b60026020528060005260406000206000915090505481565b60008060008060008060008773ffffffffffffffffffffffffffffffffffffffff1673ffffffffffffffffffffffffffffffffffffffff16815260200190815260200160002054600160008873ffffffffffffffffffffffffffffffffffffffff1673ffffffffffffffffffffffffffffffffffffffff16815260200190815260200160002054600260008973ffffffffffffffffffffffffffffffffffffffff1673ffffffffffffffffffffffffffffffffffffffff16815260200190815260200160002054600360008a73ffffffffffffffffffffffffffffffffffffffff1673ffffffffffffffffffffffffffffffffffffffff168152602001908152602001600020546110768a610d60565b9450945094509450945091939590929450565b61109161143a565b6000600360008473ffffffffffffffffffffffffffffffffffffffff1673ffffffffffffffffffffffffffffffffffffffff16815260200190815260200160002054905060005b60058110156111e25781600682600581106110f6576110f5611a18565b5b6003020160010154036111d5576006816005811061111757611116611a18565b5b60030201604051806060016040529081600082015481526020016001820154815260200160028201805461114a90611947565b80601f016020809104026020016040519081016040528092919081815260200182805461117690611947565b80156111c35780601f10611198576101008083540402835291602001916111c3565b820191906000526020600020905b8154815290600101906020018083116111a657829003601f168201915b505050505081525050925050506112b1565b80806001019150506110d8565b5060066000600581106111f8576111f7611a18565b5b60030201604051806060016040529081600082015481526020016001820154815260200160028201805461122b90611947565b80601f016020809104026020016040519081016040528092919081815260200182805461125790611947565b80156112a45780601f10611279576101008083540402835291602001916112a4565b820191906000526020600020905b81548152906001019060200180831161128757829003601f168201915b5050505050815250509150505b919050565b42600260003373ffffffffffffffffffffffffffffffffffffffff1673ffffffffffffffffffffffffffffffffffffffff168152602001908152602001600020819055503373ffffffffffffffffffffffffffffffffffffffff166108fc829081150290604051600060405180830381858888f19350505050158015611340573d6000803e3d6000fd5b503373ffffffffffffffffffffffffffffffffffffffff167ffc30cddea38e2bf4d6ea7d3f9ed3b6ad7f176419f4963bd81318067a4aee73fe82604051611387919061162b565b60405180910390a250565b600080600490505b60008112611402576000819050600681600581106113bb576113ba611a18565b5b600302016000015484106113ee57600681600581106113dd576113dc611a18565b5b600302016001015492505050611408565b5080806113fa90611b5f565b91505061139a565b50606490505b919050565b6040518060a001604052806005905b61142461143a565b81526020019060019003908161141c5790505090565b60405180606001604052806000815260200160008152602001606081525090565b600080fd5b6000819050919050565b61147381611460565b811461147e57600080fd5b50565b6000813590506114908161146a565b92915050565b6000602082840312156114ac576114ab61145b565b5b60006114ba84828501611481565b91505092915050565b6114cc81611460565b82525050565b600081519050919050565b600082825260208201905092915050565b60005b8381101561150c5780820151818401526020810190506114f1565b60008484015250505050565b6000601f19601f8301169050919050565b6000611534826114d2565b61153e81856114dd565b935061154e8185602086016114ee565b61155781611518565b840191505092915050565b600060608201905061157760008301866114c3565b61158460208301856114c3565b81810360408301526115968184611529565b9050949350505050565b600073ffffffffffffffffffffffffffffffffffffffff82169050919050565b60006115cb826115a0565b9050919050565b6115db816115c0565b81146115e657600080fd5b50565b6000813590506115f8816115d2565b92915050565b6000602082840312156116145761161361145b565b5b6000611622848285016115e9565b91505092915050565b600060208201905061164060008301846114c3565b92915050565b600060059050919050565b600081905092915050565b6000819050919050565b61166f81611460565b82525050565b600082825260208201905092915050565b6000611691826114d2565b61169b8185611675565b93506116ab8185602086016114ee565b6116b481611518565b840191505092915050565b60006060830160008301516116d76000860182611666565b5060208301516116ea6020860182611666565b50604083015184820360408601526117028282611686565b9150508091505092915050565b600061171b83836116bf565b905092915050565b6000602082019050919050565b600061173b82611646565b6117458185611651565b9350836020820285016117578561165c565b8060005b858110156117935784840389528151611774858261170f565b945061177f83611723565b925060208a0199505060018101905061175b565b50829750879550505050505092915050565b600060208201905081810360008301526117bf8184611730565b905092915050565b60006040820190506117dc60008301856114c3565b6117e960208301846114c3565b9392505050565b600060a08201905061180560008301886114c3565b61181260208301876114c3565b61181f60408301866114c3565b61182c60608301856114c3565b61183960808301846114c3565b9695505050505050565b600060608301600083015161185b6000860182611666565b50602083015161186e6020860182611666565b50604083015184820360408601526118868282611686565b9150508091505092915050565b600060208201905081810360008301526118ad8184611843565b905092915050565b7f4e487b7100000000000000000000000000000000000000000000000000000000600052601160045260246000fd5b60006118ef82611460565b91506118fa83611460565b9250828201905080821115611912576119116118b5565b5b92915050565b7f4e487b7100000000000000000000000000000000000000000000000000000000600052602260045260246000fd5b6000600282049050600182168061195f57607f821691505b60208210810361197257611971611918565b5b50919050565b7f416d6f756e742065786365656473207374616b65642062616c616e6365000000600082015250565b60006119ae601d836114dd565b91506119b982611978565b602082019050919050565b600060208201905081810360008301526119dd816119a1565b9050919050565b60006119ef82611460565b91506119fa83611460565b9250828203905081811115611a1257611a116118b5565b5b92915050565b7f4e487b7100000000000000000000000000000000000000000000000000000000600052603260045260246000fd5b6000611a5282611460565b9150611a5d83611460565b9250828202611a6b81611460565b91508282048414831517611a8257611a816118b5565b5b5092915050565b7f4e487b7100000000000000000000000000000000000000000000000000000000600052601260045260246000fd5b6000611ac382611460565b9150611ace83611460565b925082611ade57611add611a89565b5b828204905092915050565b7f496e73756666696369656e74204d4f4e2073656e740000000000000000000000600082015250565b6000611b1f6015836114dd565b9150611b2a82611ae9565b602082019050919050565b60006020820190508181036000830152611b4e81611b12565b9050919050565b6000819050919050565b6000611b6a82611b55565b91507f80000000000000000000000000000000000000000000000000000000000000008203611b9c57611b9b6118b5565b5b60018203905091905056fea26469706673582212204d86ad44ec7c83af23a39627034600c719d0ea2e60194a9a24c1a58ec1fc04af64736f6c63430008180033",
  "linkReferences": {},
  "deployedLinkReferences": {}
}