{
  "_format": "hh-sol-artifact-1",
  "contractName": "ERC20Token",
  "sourceName": "contracts/TokenLaunchpad.sol",
  "abi": [
    {
      "inputs": [
        {
          "internalType": "string",
          "name": "_name",
          "type": "string"
        },
        {
          "internalType": "string",
          "name": "_symbol",
          "type": "string"
        },
        {
          "internalType": "uint256",
          "name": "_initialSupply",
          "type": "uint256"
        },
        {
          "internalType": "address",
          "name": "_creator",
          "type": "address"
        }
      ],
      "stateMutability": "nonpayable",
      "type": "constructor"
    },
    {
      "anonymous": false,
      "inputs": [
        {
          "indexed": true,
          "internalType": "address",
          "name": "owner",
          "type": "address"
        },
        {
          "indexed": true,
          "internalType": "address",
          "name": "spender",
          "type": "address"
        },
        {
          "indexed": false,
          "internalType": "uint256",
          "name": "value",
          "type": "uint256"
        }
      ],
      "name": "Approval",
      "type": "event"
    },
    {
      "anonymous": false,
      "inputs": [
        {
          "indexed": true,
          "internalType": "address",
          "name": "from",
          "type": "address"
        },
        {
          "indexed": true,
          "internalType": "address",
          "name": "to",
          "type": "address"
        },
        {
          "indexed": false,
          "internalType": "uint256",
          "name": "value",
          "type": "uint256"
        }
      ],
      "name": "Transfer",
      "type": "event"
    },
    {
      "inputs": [
        {
          "internalType": "address",
          "name": "",
          "type": "address"
        },
        {
          "internalType": "address",
          "name": "",
          "type": "address"
        }
      ],
      "name": "allowance",
      "outputs": [
        {
          "internalType": "uint256",
          "name": "",
          "type": "uint256"
        }
      ],
      "stateMutability": "view",
      "type": "function"
    },
    {
      "inputs": [
        {
          "internalType": "address",
          "name": "spender",
          "type": "address"
        },
        {
          "internalType": "uint256",
          "name": "amount",
          "type": "uint256"
        }
      ],
      "name": "approve",
      "outputs": [
        {
          "internalType": "bool",
          "name": "",
          "type": "bool"
        }
      ],
      "stateMutability": "nonpayable",
      "type": "function"
    },
    {
      "inputs": [
        {
          "internalType": "address",
          "name": "",
          "type": "address"
        }
      ],
      "name": "balanceOf",
      "outputs": [
        {
          "internalType": "uint256",
          "name": "",
          "type": "uint256"
        }
      ],
      "stateMutability": "view",
      "type": "function"
    },
    {
      "inputs": [],
      "name": "creator",
      "outputs": [
        {
          "internalType": "address",
          "name": "",
          "type": "address"
        }
      ],
      "stateMutability": "view",
      "type": "function"
    },
    {
      "inputs": [],
      "name": "decimals",
      "outputs": [
        {
          "internalType": "uint8",
          "name": "",
          "type": "uint8"
        }
      ],
      "stateMutability": "view",
      "type": "function"
    },
    {
      "inputs": [],
      "name": "name",
      "outputs": [
        {
          "internalType": "string",
          "name": "",
          "type": "string"
        }
      ],
      "stateMutability": "view",
      "type": "function"
    },
    {
      "inputs": [],
      "name": "symbol",
      "outputs": [
        {
          "internalType": "string",
          "name": "",
          "type": "string"
        }
      ],
      "stateMutability": "view",
      "type": "function"
    },
    {
      "inputs": [],
      "name": "totalSupply",
      "outputs": [
        {
          "internalType": "uint256",
          "name": "",
          "type": "uint256"
        }
      ],
      "stateMutability": "view",
      "type": "function"
    },
    {
      "inputs": [
        {
          "internalType": "address",
          "name": "to",
          "type": "address"
        },
        {
          "internalType": "uint256",
          "name": "amount",
          "type": "uint256"
        }
      ],
      "name": "transfer",
      "outputs": [
        {
          "internalType": "bool",
          "name": "",
          "type": "bool"
        }
      ],
      "stateMutability": "nonpayable",
      "type": "function"
    },
    {
      "inputs": [
        {
          "internalType": "address",
          "name": "from",
          "type": "address"
        },
        {
          "internalType": "address",
          "name": "to",
          "type": "address"
        },
        {
          "internalType": "uint256",
          "name": "amount",
          "type": "uint256"
        }
      ],
      "name": "transferFrom",
      "outputs": [
        {
          "internalType": "bool",
          "name": "",
          "type": "bool"
        }
      ],
      "stateMutability": "nonpayable",
      "type": "function"
    }
  ],
  "bytecode": "0x60a06040526012600260006101000a81548160ff021916908360ff1602179055503480156200002d57600080fd5b506040516200158a3803806200158a8339818101604052810190620000539190620003d9565b8360009081620000649190620006ca565b508260019081620000769190620006ca565b508073ffffffffffffffffffffffffffffffffffffffff1660808173ffffffffffffffffffffffffffffffffffffffff1681525050620000bd8183620000c760201b60201c565b5050505062000849565b8060036000828254620000db9190620007e0565b9250508190555080600460008473ffffffffffffffffffffffffffffffffffffffff1673ffffffffffffffffffffffffffffffffffffffff1681526020019081526020016000206000828254620001339190620007e0565b925050819055508173ffffffffffffffffffffffffffffffffffffffff16600073ffffffffffffffffffffffffffffffffffffffff167fddf252ad1be2c89b69c2b068fc378daa952ba7f163c4a11628f55a4df523b3ef836040516200019a91906200082c565b60405180910390a35050565b6000604051905090565b600080fd5b600080fd5b600080fd5b600080fd5b6000601f19601f8301169050919050565b7f4e487b7100000000000000000000000000000000000000000000000000000000600052604160045260246000fd5b6200020f82620001c4565b810181811067ffffffffffffffff82111715620002315762000230620001d5565b5b80604052505050565b600062000246620001a6565b905062000254828262000204565b919050565b600067ffffffffffffffff821115620002775762000276620001d5565b5b6200028282620001c4565b9050602081019050919050565b60005b83811015620002af57808201518184015260208101905062000292565b60008484015250505050565b6000620002d2620002cc8462000259565b6200023a565b905082815260208101848484011115620002f157620002f0620001bf565b5b620002fe8482856200028f565b509392505050565b600082601f8301126200031e576200031d620001ba565b5b815162000330848260208601620002bb565b91505092915050565b6000819050919050565b6200034e8162000339565b81146200035a57600080fd5b50565b6000815190506200036e8162000343565b92915050565b600073ffffffffffffffffffffffffffffffffffffffff82169050919050565b6000620003a18262000374565b9050919050565b620003b38162000394565b8114620003bf57600080fd5b50565b600081519050620003d381620003a8565b92915050565b60008060008060808587031215620003f657620003f5620001b0565b5b600085015167ffffffffffffffff811115620004175762000416620001b5565b5b620004258782880162000306565b945050602085015167ffffffffffffffff811115620004495762000448620001b5565b5b620004578782880162000306565b93505060406200046a878288016200035d565b92505060606200047d87828801620003c2565b91505092959194509250565b600081519050919050565b7f4e487b7100000000000000000000000000000000000000000000000000000000600052602260045260246000fd5b60006002820490506001821680620004dc57607f821691505b602082108103620004f257620004f162000494565b5b50919050565b60008190508160005260206000209050919050565b60006020601f8301049050919050565b600082821b905092915050565b6000600883026200055c7fffffffffffffffffffffffffffffffffffffffffffffffffffffffffffffffff826200051d565b6200056886836200051d565b95508019841693508086168417925050509392505050565b6000819050919050565b6000620005ab620005a56200059f8462000339565b62000580565b62000339565b9050919050565b6000819050919050565b620005c7836200058a565b620005df620005d682620005b2565b8484546200052a565b825550505050565b600090565b620005f6620005e7565b62000603818484620005bc565b505050565b5b818110156200062b576200061f600082620005ec565b60018101905062000609565b5050565b601f8211156200067a576200064481620004f8565b6200064f846200050d565b810160208510156200065f578190505b620006776200066e856200050d565b83018262000608565b50505b505050565b600082821c905092915050565b60006200069f600019846008026200067f565b1980831691505092915050565b6000620006ba83836200068c565b9150826002028217905092915050565b620006d58262000489565b67ffffffffffffffff811115620006f157620006f0620001d5565b5b620006fd8254620004c3565b6200070a8282856200062f565b600060209050601f8311600181146200074257600084156200072d578287015190505b620007398582620006ac565b865550620007a9565b601f1984166200075286620004f8565b60005b828110156200077c5784890151825560018201915060208501945060208101905062000755565b868310156200079c578489015162000798601f8916826200068c565b8355505b6001600288020188555050505b505050505050565b7f4e487b7100000000000000000000000000000000000000000000000000000000600052601160045260246000fd5b6000620007ed8262000339565b9150620007fa8362000339565b9250828201905080821115620008155762000814620007b1565b5b92915050565b620008268162000339565b82525050565b60006020820190506200084360008301846200081b565b92915050565b608051610d2562000865600039600061022b0152610d256000f3fe608060405234801561001057600080fd5b506004361061009e5760003560e01c8063313ce56711610066578063313ce5671461015d57806370a082311461017b57806395d89b41146101ab578063a9059cbb146101c9578063dd62ed3e146101f95761009e565b806302d05d3f146100a357806306fdde03146100c1578063095ea7b3146100df57806318160ddd1461010f57806323b872dd1461012d575b600080fd5b6100ab610229565b6040516100b89190610809565b60405180910390f35b6100c961024d565b6040516100d691906108b4565b60405180910390f35b6100f960048036038101906100f4919061093d565b6102db565b6040516101069190610998565b60405180910390f35b6101176103cd565b60405161012491906109c2565b60405180910390f35b610147600480360381019061014291906109dd565b6103d3565b6040516101549190610998565b60405180910390f35b61016561053b565b6040516101729190610a4c565b60405180910390f35b61019560048036038101906101909190610a67565b61054e565b6040516101a291906109c2565b60405180910390f35b6101b3610566565b6040516101c091906108b4565b60405180910390f35b6101e360048036038101906101de919061093d565b6105f4565b6040516101f09190610998565b60405180910390f35b610213600480360381019061020e9190610a94565b61060b565b60405161022091906109c2565b60405180910390f35b7f000000000000000000000000000000000000000000000000000000000000000081565b6000805461025a90610b03565b80601f016020809104026020016040519081016040528092919081815260200182805461028690610b03565b80156102d35780601f106102a8576101008083540402835291602001916102d3565b820191906000526020600020905b8154815290600101906020018083116102b657829003601f168201915b505050505081565b600081600560003373ffffffffffffffffffffffffffffffffffffffff1673ffffffffffffffffffffffffffffffffffffffff16815260200190815260200160002060008573ffffffffffffffffffffffffffffffffffffffff1673ffffffffffffffffffffffffffffffffffffffff168152602001908152602001600020819055508273ffffffffffffffffffffffffffffffffffffffff163373ffffffffffffffffffffffffffffffffffffffff167f8c5be1e5ebec7d5bd14f71427d1e84f3dd0314c0f7b2291e5b200ac8c7c3b925846040516103bb91906109c2565b60405180910390a36001905092915050565b60035481565b600080600560008673ffffffffffffffffffffffffffffffffffffffff1673ffffffffffffffffffffffffffffffffffffffff16815260200190815260200160002060003373ffffffffffffffffffffffffffffffffffffffff1673ffffffffffffffffffffffffffffffffffffffff16815260200190815260200160002054905082811015610498576040517f08c379a000000000000000000000000000000000000000000000000000000000815260040161048f90610ba6565b60405180910390fd5b82816104a49190610bf5565b600560008773ffffffffffffffffffffffffffffffffffffffff1673ffffffffffffffffffffffffffffffffffffffff16815260200190815260200160002060003373ffffffffffffffffffffffffffffffffffffffff1673ffffffffffffffffffffffffffffffffffffffff1681526020019081526020016000208190555061052f858585610630565b60019150509392505050565b600260009054906101000a900460ff1681565b60046020528060005260406000206000915090505481565b6001805461057390610b03565b80601f016020809104026020016040519081016040528092919081815260200182805461059f90610b03565b80156105ec5780601f106105c1576101008083540402835291602001916105ec565b820191906000526020600020905b8154815290600101906020018083116105cf57829003601f168201915b505050505081565b6000610601338484610630565b6001905092915050565b6005602052816000526040600020602052806000526040600020600091509150505481565b80600460008573ffffffffffffffffffffffffffffffffffffffff1673ffffffffffffffffffffffffffffffffffffffff1681526020019081526020016000205410156106b2576040517f08c379a00000000000000000000000000000000000000000000000000000000081526004016106a990610c9b565b60405180910390fd5b80600460008573ffffffffffffffffffffffffffffffffffffffff1673ffffffffffffffffffffffffffffffffffffffff16815260200190815260200160002060008282546107019190610bf5565b9250508190555080600460008473ffffffffffffffffffffffffffffffffffffffff1673ffffffffffffffffffffffffffffffffffffffff16815260200190815260200160002060008282546107579190610cbb565b925050819055508173ffffffffffffffffffffffffffffffffffffffff168373ffffffffffffffffffffffffffffffffffffffff167fddf252ad1be2c89b69c2b068fc378daa952ba7f163c4a11628f55a4df523b3ef836040516107bb91906109c2565b60405180910390a3505050565b600073ffffffffffffffffffffffffffffffffffffffff82169050919050565b60006107f3826107c8565b9050919050565b610803816107e8565b82525050565b600060208201905061081e60008301846107fa565b92915050565b600081519050919050565b600082825260208201905092915050565b60005b8381101561085e578082015181840152602081019050610843565b60008484015250505050565b6000601f19601f8301169050919050565b600061088682610824565b610890818561082f565b93506108a0818560208601610840565b6108a98161086a565b840191505092915050565b600060208201905081810360008301526108ce818461087b565b905092915050565b600080fd5b6108e4816107e8565b81146108ef57600080fd5b50565b600081359050610901816108db565b92915050565b6000819050919050565b61091a81610907565b811461092557600080fd5b50565b60008135905061093781610911565b92915050565b60008060408385031215610954576109536108d6565b5b6000610962858286016108f2565b925050602061097385828601610928565b9150509250929050565b60008115159050919050565b6109928161097d565b82525050565b60006020820190506109ad6000830184610989565b92915050565b6109bc81610907565b82525050565b60006020820190506109d760008301846109b3565b92915050565b6000806000606084860312156109f6576109f56108d6565b5b6000610a04868287016108f2565b9350506020610a15868287016108f2565b9250506040610a2686828701610928565b9150509250925092565b600060ff82169050919050565b610a4681610a30565b82525050565b6000602082019050610a616000830184610a3d565b92915050565b600060208284031215610a7d57610a7c6108d6565b5b6000610a8b848285016108f2565b91505092915050565b60008060408385031215610aab57610aaa6108d6565b5b6000610ab9858286016108f2565b9250506020610aca858286016108f2565b9150509250929050565b7f4e487b7100000000000000000000000000000000000000000000000000000000600052602260045260246000fd5b60006002820490506001821680610b1b57607f821691505b602082108103610b2e57610b2d610ad4565b5b50919050565b7f45524332303a207472616e7366657220616d6f756e742065786365656473206160008201527f6c6c6f77616e6365000000000000000000000000000000000000000000000000602082015250565b6000610b9060288361082f565b9150610b9b82610b34565b604082019050919050565b60006020820190508181036000830152610bbf81610b83565b9050919050565b7f4e487b7100000000000000000000000000000000000000000000000000000000600052601160045260246000fd5b6000610c0082610907565b9150610c0b83610907565b9250828203905081811115610c2357610c22610bc6565b5b92915050565b7f45524332303a207472616e7366657220616d6f756e742065786365656473206260008201527f616c616e63650000000000000000000000000000000000000000000000000000602082015250565b6000610c8560268361082f565b9150610c9082610c29565b604082019050919050565b60006020820190508181036000830152610cb481610c78565b9050919050565b6000610cc682610907565b9150610cd183610907565b9250828201905080821115610ce957610ce8610bc6565b5b9291505056fea264697066735822122049bb89f0996ad7645a00d182cec767890245f54e533f94ea786a053b30372e2c64736f6c63430008180033",
  "linkReferences": {},
  "deployedLinkReferences": {}
}