{
  "_format": "hh-sol-artifact-1",
  "contractName": "TokenLaunchpad",
  "sourceName": "contracts/TokenLaunchpad.sol",
  "abi": [
    {
      "inputs": [],
      "name": "InvalidSupply",
      "type": "error"
    },
    {
      "inputs": [
        {
          "internalType": "address",
          "name": "tokenAddress",
          "type": "address"
        }
      ],
      "name": "NotTokenCreator",
      "type": "error"
    },
    {
      "inputs": [
        {
          "internalType": "uint256",
          "name": "agentId",
          "type": "uint256"
        }
      ],
      "name": "TokenAlreadyDeployed",
      "type": "error"
    },
    {
      "anonymous": false,
      "inputs": [
        {
          "indexed": true,
          "internalType": "address",
          "name": "tokenAddress",
          "type": "address"
        },
        {
          "indexed": true,
          "internalType": "uint256",
          "name": "agentId",
          "type": "uint256"
        },
        {
          "indexed": true,
          "internalType": "address",
          "name": "creator",
          "type": "address"
        }
      ],
      "name": "TokenDeployed",
      "type": "event"
    },
    {
      "anonymous": false,
      "inputs": [
        {
          "indexed": true,
          "internalType": "address",
          "name": "tokenAddress",
          "type": "address"
        },
        {
          "indexed": false,
          "internalType": "string",
          "name": "metadataURI",
          "type": "string"
        }
      ],
      "name": "TokenUpdated",
      "type": "event"
    },
    {
      "inputs": [
        {
          "internalType": "uint256",
          "name": "",
          "type": "uint256"
        }
      ],
      "name": "allTokenAddresses",
      "outputs": [
        {
          "internalType": "address",
          "name": "",
          "type": "address"
        }
      ],
      "stateMutability": "view",
      "type": "function"
    },
    {
      "inputs": [
        {
          "internalType": "uint256",
          "name": "_agentId",
          "type": "uint256"
        },
        {
          "internalType": "string",
          "name": "_tokenName",
          "type": "string"
        },
        {
          "internalType": "string",
          "name": "_tokenSymbol",
          "type": "string"
        },
        {
          "internalType": "uint256",
          "name": "_initialSupply",
          "type": "uint256"
        }
      ],
      "name": "deployToken",
      "outputs": [
        {
          "internalType": "address",
          "name": "",
          "type": "address"
        }
      ],
      "stateMutability": "nonpayable",
      "type": "function"
    },
    {
      "inputs": [
        {
          "internalType": "address",
          "name": "",
          "type": "address"
        }
      ],
      "name": "deployedTokens",
      "outputs": [
        {
          "internalType": "address",
          "name": "tokenAddress",
          "type": "address"
        },
        {
          "internalType": "uint256",
          "name": "agentId",
          "type": "uint256"
        },
        {
          "internalType": "address",
          "name": "creator",
          "type": "address"
        },
        {
          "internalType": "string",
          "name": "name",
          "type": "string"
        },
        {
          "internalType": "string",
          "name": "symbol",
          "type": "string"
        },
        {
          "internalType": "uint256",
          "name": "totalSupply",
          "type": "uint256"
        },
        {
          "internalType": "bool",
          "name": "exists",
          "type": "bool"
        }
      ],
      "stateMutability": "view",
      "type": "function"
    },
    {
      "inputs": [],
      "name": "getAllTokens",
      "outputs": [
        {
          "internalType": "address[]",
          "name": "",
          "type": "address[]"
        }
      ],
      "stateMutability": "view",
      "type": "function"
    },
    {
      "inputs": [
        {
          "internalType": "address",
          "name": "_creator",
          "type": "address"
        }
      ],
      "name": "getAllTokensByCreator",
      "outputs": [
        {
          "internalType": "address[]",
          "name": "",
          "type": "address[]"
        }
      ],
      "stateMutability": "view",
      "type": "function"
    },
    {
      "inputs": [
        {
          "internalType": "uint256",
          "name": "_agentId",
          "type": "uint256"
        }
      ],
      "name": "getTokenByAgent",
      "outputs": [
        {
          "internalType": "address",
          "name": "",
          "type": "address"
        }
      ],
      "stateMutability": "view",
      "type": "function"
    },
    {
      "inputs": [
        {
          "internalType": "address",
          "name": "_tokenAddress",
          "type": "address"
        }
      ],
      "name": "getTokenInfo",
      "outputs": [
        {
          "components": [
            {
              "internalType": "address",
              "name": "tokenAddress",
              "type": "address"
            },
            {
              "internalType": "uint256",
              "name": "agentId",
              "type": "uint256"
            },
            {
              "internalType": "address",
              "name": "creator",
              "type": "address"
            },
            {
              "internalType": "string",
              "name": "name",
              "type": "string"
            },
            {
              "internalType": "string",
              "name": "symbol",
              "type": "string"
            },
            {
              "internalType": "uint256",
              "name": "totalSupply",
              "type": "uint256"
            },
            {
              "internalType": "bool",
              "name": "exists",
              "type": "bool"
            }
          ],
          "internalType": "struct TokenLaunchpad.TokenInfo",
          "name": "",
          "type": "tuple"
        }
      ],
      "stateMutability": "view",
      "type": "function"
    },
    {
      "inputs": [],
      "name": "totalTokensDeployed",
      "outputs": [
        {
          "internalType": "uint256",
          "name": "",
          "type": "uint256"
        }
      ],
      "stateMutability": "view",
      "type": "function"
    }
  ],
  "bytecode": "0x608060405234801561001057600080fd5b50613151806100206000396000f3fe60806040523480156200001157600080fd5b5060043610620000945760003560e01c806345cc02bf116200006357806345cc02bf1462000149578063521078b5146200017f5780638213c17514620001b557806393d0aead14620001eb5762000094565b806307fe2adf1462000099578063173812e714620000bb5780631f69565f14620000f15780632a5c792a1462000127575b600080fd5b620000a362000227565b604051620000b2919062001025565b60405180910390f35b620000d96004803603810190620000d3919062001087565b6200022d565b604051620000e89190620010fe565b60405180910390f35b6200010f60048036038101906200010991906200114c565b62000331565b6040516200011e919062001308565b60405180910390f35b620001316200062b565b604051620001409190620013e9565b60405180910390f35b62000167600480360381019062000161919062001087565b620006bb565b604051620001769190620010fe565b60405180910390f35b6200019d60048036038101906200019791906200114c565b620006fb565b604051620001ac9190620013e9565b60405180910390f35b620001d36004803603810190620001cd91906200155e565b620009fb565b604051620001e29190620010fe565b60405180910390f35b6200020960048036038101906200020391906200114c565b62000de2565b6040516200021e979695949392919062001671565b60405180910390f35b60025481565b600080600090505b600180549050811015620003265782600080600184815481106200025e576200025d620016fc565b5b9060005260206000200160009054906101000a900473ffffffffffffffffffffffffffffffffffffffff1673ffffffffffffffffffffffffffffffffffffffff1673ffffffffffffffffffffffffffffffffffffffff1681526020019081526020016000206001015403620003185760018181548110620002e457620002e3620016fc565b5b9060005260206000200160009054906101000a900473ffffffffffffffffffffffffffffffffffffffff169150506200032c565b808060010191505062000235565b50600090505b919050565b6200033b62000f91565b6000808373ffffffffffffffffffffffffffffffffffffffff1673ffffffffffffffffffffffffffffffffffffffff16815260200190815260200160002060060160009054906101000a900460ff16620003cc576040517f08c379a0000000000000000000000000000000000000000000000000000000008152600401620003c3906200177b565b60405180910390fd5b6000808373ffffffffffffffffffffffffffffffffffffffff1673ffffffffffffffffffffffffffffffffffffffff1681526020019081526020016000206040518060e00160405290816000820160009054906101000a900473ffffffffffffffffffffffffffffffffffffffff1673ffffffffffffffffffffffffffffffffffffffff1673ffffffffffffffffffffffffffffffffffffffff168152602001600182015481526020016002820160009054906101000a900473ffffffffffffffffffffffffffffffffffffffff1673ffffffffffffffffffffffffffffffffffffffff1673ffffffffffffffffffffffffffffffffffffffff168152602001600382018054620004dd90620017cc565b80601f01602080910402602001604051908101604052809291908181526020018280546200050b90620017cc565b80156200055c5780601f1062000530576101008083540402835291602001916200055c565b820191906000526020600020905b8154815290600101906020018083116200053e57829003601f168201915b505050505081526020016004820180546200057790620017cc565b80601f0160208091040260200160405190810160405280929190818152602001828054620005a590620017cc565b8015620005f65780601f10620005ca57610100808354040283529160200191620005f6565b820191906000526020600020905b815481529060010190602001808311620005d857829003601f168201915b50505050508152602001600582015481526020016006820160009054906101000a900460ff1615151515815250509050919050565b60606001805480602002602001604051908101604052809291908181526020018280548015620006b157602002820191906000526020600020905b8160009054906101000a900473ffffffffffffffffffffffffffffffffffffffff1673ffffffffffffffffffffffffffffffffffffffff168152602001906001019080831162000666575b5050505050905090565b60018181548110620006cc57600080fd5b906000526020600020016000915054906101000a900473ffffffffffffffffffffffffffffffffffffffff1681565b60606000805b60018054905081101562000804578373ffffffffffffffffffffffffffffffffffffffff166000806001848154811062000740576200073f620016fc565b5b9060005260206000200160009054906101000a900473ffffffffffffffffffffffffffffffffffffffff1673ffffffffffffffffffffffffffffffffffffffff1673ffffffffffffffffffffffffffffffffffffffff16815260200190815260200160002060020160009054906101000a900473ffffffffffffffffffffffffffffffffffffffff1673ffffffffffffffffffffffffffffffffffffffff1603620007f6578180620007f29062001830565b9250505b808060010191505062000701565b5060008167ffffffffffffffff81111562000824576200082362001417565b5b604051908082528060200260200182016040528015620008535781602001602082028036833780820191505090505b5090506000805b600180549050811015620009ef578573ffffffffffffffffffffffffffffffffffffffff1660008060018481548110620008995762000898620016fc565b5b9060005260206000200160009054906101000a900473ffffffffffffffffffffffffffffffffffffffff1673ffffffffffffffffffffffffffffffffffffffff1673ffffffffffffffffffffffffffffffffffffffff16815260200190815260200160002060020160009054906101000a900473ffffffffffffffffffffffffffffffffffffffff1673ffffffffffffffffffffffffffffffffffffffff1603620009e15760018181548110620009555762000954620016fc565b5b9060005260206000200160009054906101000a900473ffffffffffffffffffffffffffffffffffffffff16838381518110620009965762000995620016fc565b5b602002602001019073ffffffffffffffffffffffffffffffffffffffff16908173ffffffffffffffffffffffffffffffffffffffff16815250508180620009dd9062001830565b9250505b80806001019150506200085a565b50819350505050919050565b600080820362000a37576040517f15ae672700000000000000000000000000000000000000000000000000000000815260040160405180910390fd5b60005b60018054905081101562000b1f57856000806001848154811062000a635762000a62620016fc565b5b9060005260206000200160009054906101000a900473ffffffffffffffffffffffffffffffffffffffff1673ffffffffffffffffffffffffffffffffffffffff1673ffffffffffffffffffffffffffffffffffffffff168152602001908152602001600020600101540362000b1157856040517ff4998acd00000000000000000000000000000000000000000000000000000000815260040162000b08919062001025565b60405180910390fd5b808060010191505062000a3a565b5060008484843360405162000b349062000ffc565b62000b4394939291906200187d565b604051809103906000f08015801562000b60573d6000803e3d6000fd5b50905060008190506040518060e001604052808273ffffffffffffffffffffffffffffffffffffffff1681526020018881526020013373ffffffffffffffffffffffffffffffffffffffff168152602001878152602001868152602001858152602001600115158152506000808373ffffffffffffffffffffffffffffffffffffffff1673ffffffffffffffffffffffffffffffffffffffff16815260200190815260200160002060008201518160000160006101000a81548173ffffffffffffffffffffffffffffffffffffffff021916908373ffffffffffffffffffffffffffffffffffffffff1602179055506020820151816001015560408201518160020160006101000a81548173ffffffffffffffffffffffffffffffffffffffff021916908373ffffffffffffffffffffffffffffffffffffffff160217905550606082015181600301908162000cb7919062001aaa565b50608082015181600401908162000ccf919062001aaa565b5060a0820151816005015560c08201518160060160006101000a81548160ff0219169083151502179055509050506001819080600181540180825580915050600190039060005260206000200160009091909190916101000a81548173ffffffffffffffffffffffffffffffffffffffff021916908373ffffffffffffffffffffffffffffffffffffffff1602179055506002600081548092919062000d759062001830565b91905055503373ffffffffffffffffffffffffffffffffffffffff16878273ffffffffffffffffffffffffffffffffffffffff167fe64f20a18da2eaee2c89720b8632868a81ab967e764c1b47d844e647958f9fed60405160405180910390a48092505050949350505050565b60006020528060005260406000206000915090508060000160009054906101000a900473ffffffffffffffffffffffffffffffffffffffff16908060010154908060020160009054906101000a900473ffffffffffffffffffffffffffffffffffffffff169080600301805462000e5990620017cc565b80601f016020809104026020016040519081016040528092919081815260200182805462000e8790620017cc565b801562000ed85780601f1062000eac5761010080835404028352916020019162000ed8565b820191906000526020600020905b81548152906001019060200180831162000eba57829003601f168201915b50505050509080600401805462000eef90620017cc565b80601f016020809104026020016040519081016040528092919081815260200182805462000f1d90620017cc565b801562000f6e5780601f1062000f425761010080835404028352916020019162000f6e565b820191906000526020600020905b81548152906001019060200180831162000f5057829003601f168201915b5050505050908060050154908060060160009054906101000a900460ff16905087565b6040518060e00160405280600073ffffffffffffffffffffffffffffffffffffffff16815260200160008152602001600073ffffffffffffffffffffffffffffffffffffffff1681526020016060815260200160608152602001600081526020016000151581525090565b61158a8062001b9283390190565b6000819050919050565b6200101f816200100a565b82525050565b60006020820190506200103c600083018462001014565b92915050565b6000604051905090565b600080fd5b600080fd5b62001061816200100a565b81146200106d57600080fd5b50565b600081359050620010818162001056565b92915050565b600060208284031215620010a0576200109f6200104c565b5b6000620010b08482850162001070565b91505092915050565b600073ffffffffffffffffffffffffffffffffffffffff82169050919050565b6000620010e682620010b9565b9050919050565b620010f881620010d9565b82525050565b6000602082019050620011156000830184620010ed565b92915050565b6200112681620010d9565b81146200113257600080fd5b50565b60008135905062001146816200111b565b92915050565b6000602082840312156200116557620011646200104c565b5b6000620011758482850162001135565b91505092915050565b6200118981620010d9565b82525050565b6200119a816200100a565b82525050565b600081519050919050565b600082825260208201905092915050565b60005b83811015620011dc578082015181840152602081019050620011bf565b60008484015250505050565b6000601f19601f8301169050919050565b60006200120682620011a0565b620012128185620011ab565b935062001224818560208601620011bc565b6200122f81620011e8565b840191505092915050565b60008115159050919050565b62001251816200123a565b82525050565b600060e0830160008301516200127160008601826200117e565b5060208301516200128660208601826200118f565b5060408301516200129b60408601826200117e565b5060608301518482036060860152620012b58282620011f9565b91505060808301518482036080860152620012d18282620011f9565b91505060a0830151620012e860a08601826200118f565b5060c0830151620012fd60c086018262001246565b508091505092915050565b6000602082019050818103600083015262001324818462001257565b905092915050565b600081519050919050565b600082825260208201905092915050565b6000819050602082019050919050565b60006200136683836200117e565b60208301905092915050565b6000602082019050919050565b60006200138c826200132c565b62001398818562001337565b9350620013a58362001348565b8060005b83811015620013dc578151620013c0888262001358565b9750620013cd8362001372565b925050600181019050620013a9565b5085935050505092915050565b600060208201905081810360008301526200140581846200137f565b905092915050565b600080fd5b600080fd5b7f4e487b7100000000000000000000000000000000000000000000000000000000600052604160045260246000fd5b6200145182620011e8565b810181811067ffffffffffffffff8211171562001473576200147262001417565b5b80604052505050565b60006200148862001042565b905062001496828262001446565b919050565b600067ffffffffffffffff821115620014b957620014b862001417565b5b620014c482620011e8565b9050602081019050919050565b82818337600083830152505050565b6000620014f7620014f1846200149b565b6200147c565b90508281526020810184848401111562001516576200151562001412565b5b62001523848285620014d1565b509392505050565b600082601f8301126200154357620015426200140d565b5b813562001555848260208601620014e0565b91505092915050565b600080600080608085870312156200157b576200157a6200104c565b5b60006200158b8782880162001070565b945050602085013567ffffffffffffffff811115620015af57620015ae62001051565b5b620015bd878288016200152b565b935050604085013567ffffffffffffffff811115620015e157620015e062001051565b5b620015ef878288016200152b565b9250506060620016028782880162001070565b91505092959194509250565b600082825260208201905092915050565b60006200162c82620011a0565b6200163881856200160e565b93506200164a818560208601620011bc565b6200165581620011e8565b840191505092915050565b6200166b816200123a565b82525050565b600060e08201905062001688600083018a620010ed565b62001697602083018962001014565b620016a66040830188620010ed565b8181036060830152620016ba81876200161f565b90508181036080830152620016d081866200161f565b9050620016e160a083018562001014565b620016f060c083018462001660565b98975050505050505050565b7f4e487b7100000000000000000000000000000000000000000000000000000000600052603260045260246000fd5b7f546f6b656e20646f6573206e6f74206578697374000000000000000000000000600082015250565b6000620017636014836200160e565b915062001770826200172b565b602082019050919050565b60006020820190508181036000830152620017968162001754565b9050919050565b7f4e487b7100000000000000000000000000000000000000000000000000000000600052602260045260246000fd5b60006002820490506001821680620017e557607f821691505b602082108103620017fb57620017fa6200179d565b5b50919050565b7f4e487b7100000000000000000000000000000000000000000000000000000000600052601160045260246000fd5b60006200183d826200100a565b91507fffffffffffffffffffffffffffffffffffffffffffffffffffffffffffffffff820362001872576200187162001801565b5b600182019050919050565b600060808201905081810360008301526200189981876200161f565b90508181036020830152620018af81866200161f565b9050620018c0604083018562001014565b620018cf6060830184620010ed565b95945050505050565b60008190508160005260206000209050919050565b60006020601f8301049050919050565b600082821b905092915050565b6000600883026200193c7fffffffffffffffffffffffffffffffffffffffffffffffffffffffffffffffff82620018fd565b620019488683620018fd565b95508019841693508086168417925050509392505050565b6000819050919050565b60006200198b620019856200197f846200100a565b62001960565b6200100a565b9050919050565b6000819050919050565b620019a7836200196a565b620019bf620019b68262001992565b8484546200190a565b825550505050565b600090565b620019d6620019c7565b620019e38184846200199c565b505050565b5b8181101562001a0b57620019ff600082620019cc565b600181019050620019e9565b5050565b601f82111562001a5a5762001a2481620018d8565b62001a2f84620018ed565b8101602085101562001a3f578190505b62001a5762001a4e85620018ed565b830182620019e8565b50505b505050565b600082821c905092915050565b600062001a7f6000198460080262001a5f565b1980831691505092915050565b600062001a9a838362001a6c565b9150826002028217905092915050565b62001ab582620011a0565b67ffffffffffffffff81111562001ad15762001ad062001417565b5b62001add8254620017cc565b62001aea82828562001a0f565b600060209050601f83116001811462001b22576000841562001b0d578287015190505b62001b19858262001a8c565b86555062001b89565b601f19841662001b3286620018d8565b60005b8281101562001b5c5784890151825560018201915060208501945060208101905062001b35565b8683101562001b7c578489015162001b78601f89168262001a6c565b8355505b6001600288020188555050505b50505050505056fe60a06040526012600260006101000a81548160ff021916908360ff1602179055503480156200002d57600080fd5b506040516200158a3803806200158a8339818101604052810190620000539190620003d9565b8360009081620000649190620006ca565b508260019081620000769190620006ca565b508073ffffffffffffffffffffffffffffffffffffffff1660808173ffffffffffffffffffffffffffffffffffffffff1681525050620000bd8183620000c760201b60201c565b5050505062000849565b8060036000828254620000db9190620007e0565b9250508190555080600460008473ffffffffffffffffffffffffffffffffffffffff1673ffffffffffffffffffffffffffffffffffffffff1681526020019081526020016000206000828254620001339190620007e0565b925050819055508173ffffffffffffffffffffffffffffffffffffffff16600073ffffffffffffffffffffffffffffffffffffffff167fddf252ad1be2c89b69c2b068fc378daa952ba7f163c4a11628f55a4df523b3ef836040516200019a91906200082c565b60405180910390a35050565b6000604051905090565b600080fd5b600080fd5b600080fd5b600080fd5b6000601f19601f8301169050919050565b7f4e487b7100000000000000000000000000000000000000000000000000000000600052604160045260246000fd5b6200020f82620001c4565b810181811067ffffffffffffffff82111715620002315762000230620001d5565b5b80604052505050565b600062000246620001a6565b905062000254828262000204565b919050565b600067ffffffffffffffff821115620002775762000276620001d5565b5b6200028282620001c4565b9050602081019050919050565b60005b83811015620002af57808201518184015260208101905062000292565b60008484015250505050565b6000620002d2620002cc8462000259565b6200023a565b905082815260208101848484011115620002f157620002f0620001bf565b5b620002fe8482856200028f565b509392505050565b600082601f8301126200031e576200031d620001ba565b5b815162000330848260208601620002bb565b91505092915050565b6000819050919050565b6200034e8162000339565b81146200035a57600080fd5b50565b6000815190506200036e8162000343565b92915050565b600073ffffffffffffffffffffffffffffffffffffffff82169050919050565b6000620003a18262000374565b9050919050565b620003b38162000394565b8114620003bf57600080fd5b50565b600081519050620003d381620003a8565b92915050565b60008060008060808587031215620003f657620003f5620001b0565b5b600085015167ffffffffffffffff811115620004175762000416620001b5565b5b620004258782880162000306565b945050602085015167ffffffffffffffff811115620004495762000448620001b5565b5b620004578782880162000306565b93505060406200046a878288016200035d565b92505060606200047d87828801620003c2565b91505092959194509250565b600081519050919050565b7f4e487b7100000000000000000000000000000000000000000000000000000000600052602260045260246000fd5b60006002820490506001821680620004dc57607f821691505b602082108103620004f257620004f162000494565b5b50919050565b60008190508160005260206000209050919050565b60006020601f8301049050919050565b600082821b905092915050565b6000600883026200055c7fffffffffffffffffffffffffffffffffffffffffffffffffffffffffffffffff826200051d565b6200056886836200051d565b95508019841693508086168417925050509392505050565b6000819050919050565b6000620005ab620005a56200059f8462000339565b62000580565b62000339565b9050919050565b6000819050919050565b620005c7836200058a565b620005df620005d682620005b2565b8484546200052a565b825550505050565b600090565b620005f6620005e7565b62000603818484620005bc565b505050565b5b818110156200062b576200061f600082620005ec565b60018101905062000609565b5050565b601f8211156200067a576200064481620004f8565b6200064f846200050d565b810160208510156200065f578190505b620006776200066e856200050d565b83018262000608565b50505b505050565b600082821c905092915050565b60006200069f600019846008026200067f565b1980831691505092915050565b6000620006ba83836200068c565b9150826002028217905092915050565b620006d58262000489565b67ffffffffffffffff811115620006f157620006f0620001d5565b5b620006fd8254620004c3565b6200070a8282856200062f565b600060209050601f8311600181146200074257600084156200072d578287015190505b620007398582620006ac565b865550620007a9565b601f1984166200075286620004f8565b60005b828110156200077c5784890151825560018201915060208501945060208101905062000755565b868310156200079c578489015162000798601f8916826200068c565b8355505b6001600288020188555050505b505050505050565b7f4e487b7100000000000000000000000000000000000000000000000000000000600052601160045260246000fd5b6000620007ed8262000339565b9150620007fa8362000339565b9250828201905080821115620008155762000814620007b1565b5b92915050565b620008268162000339565b82525050565b60006020820190506200084360008301846200081b565b92915050565b608051610d2562000865600039600061022b0152610d256000f3fe608060405234801561001057600080fd5b506004361061009e5760003560e01c8063313ce56711610066578063313ce5671461015d57806370a082311461017b57806395d89b41146101ab578063a9059cbb146101c9578063dd62ed3e146101f95761009e565b806302d05d3f146100a357806306fdde03146100c1578063095ea7b3146100df57806318160ddd1461010f57806323b872dd1461012d575b600080fd5b6100ab610229565b6040516100b89190610809565b60405180910390f35b6100c961024d565b6040516100d691906108b4565b60405180910390f35b6100f960048036038101906100f4919061093d565b6102db565b6040516101069190610998565b60405180910390f35b6101176103cd565b60405161012491906109c2565b60405180910390f35b610147600480360381019061014291906109dd565b6103d3565b6040516101549190610998565b60405180910390f35b61016561053b565b6040516101729190610a4c565b60405180910390f35b61019560048036038101906101909190610a67565b61054e565b6040516101a291906109c2565b60405180910390f35b6101b3610566565b6040516101c091906108b4565b60405180910390f35b6101e360048036038101906101de919061093d565b6105f4565b6040516101f09190610998565b60405180910390f35b610213600480360381019061020e9190610a94565b61060b565b60405161022091906109c2565b60405180910390f35b7f000000000000000000000000000000000000000000000000000000000000000081565b6000805461025a90610b03565b80601f016020809104026020016040519081016040528092919081815260200182805461028690610b03565b80156102d35780601f106102a8576101008083540402835291602001916102d3565b820191906000526020600020905b8154815290600101906020018083116102b657829003601f168201915b505050505081565b600081600560003373ffffffffffffffffffffffffffffffffffffffff1673ffffffffffffffffffffffffffffffffffffffff16815260200190815260200160002060008573ffffffffffffffffffffffffffffffffffffffff1673ffffffffffffffffffffffffffffffffffffffff168152602001908152602001600020819055508273ffffffffffffffffffffffffffffffffffffffff163373ffffffffffffffffffffffffffffffffffffffff167f8c5be1e5ebec7d5bd14f71427d1e84f3dd0314c0f7b2291e5b200ac8c7c3b925846040516103bb91906109c2565b60405180910390a36001905092915050565b60035481565b600080600560008673ffffffffffffffffffffffffffffffffffffffff1673ffffffffffffffffffffffffffffffffffffffff16815260200190815260200160002060003373ffffffffffffffffffffffffffffffffffffffff1673ffffffffffffffffffffffffffffffffffffffff16815260200190815260200160002054905082811015610498576040517f08c379a000000000000000000000000000000000000000000000000000000000815260040161048f90610ba6565b60405180910390fd5b82816104a49190610bf5565b600560008773ffffffffffffffffffffffffffffffffffffffff1673ffffffffffffffffffffffffffffffffffffffff16815260200190815260200160002060003373ffffffffffffffffffffffffffffffffffffffff1673ffffffffffffffffffffffffffffffffffffffff1681526020019081526020016000208190555061052f858585610630565b60019150509392505050565b600260009054906101000a900460ff1681565b60046020528060005260406000206000915090505481565b6001805461057390610b03565b80601f016020809104026020016040519081016040528092919081815260200182805461059f90610b03565b80156105ec5780601f106105c1576101008083540402835291602001916105ec565b820191906000526020600020905b8154815290600101906020018083116105cf57829003601f168201915b505050505081565b6000610601338484610630565b6001905092915050565b6005602052816000526040600020602052806000526040600020600091509150505481565b80600460008573ffffffffffffffffffffffffffffffffffffffff1673ffffffffffffffffffffffffffffffffffffffff1681526020019081526020016000205410156106b2576040517f08c379a00000000000000000000000000000000000000000000000000000000081526004016106a990610c9b565b60405180910390fd5b80600460008573ffffffffffffffffffffffffffffffffffffffff1673ffffffffffffffffffffffffffffffffffffffff16815260200190815260200160002060008282546107019190610bf5565b9250508190555080600460008473ffffffffffffffffffffffffffffffffffffffff1673ffffffffffffffffffffffffffffffffffffffff16815260200190815260200160002060008282546107579190610cbb565b925050819055508173ffffffffffffffffffffffffffffffffffffffff168373ffffffffffffffffffffffffffffffffffffffff167fddf252ad1be2c89b69c2b068fc378daa952ba7f163c4a11628f55a4df523b3ef836040516107bb91906109c2565b60405180910390a3505050565b600073ffffffffffffffffffffffffffffffffffffffff82169050919050565b60006107f3826107c8565b9050919050565b610803816107e8565b82525050565b600060208201905061081e60008301846107fa565b92915050565b600081519050919050565b600082825260208201905092915050565b60005b8381101561085e578082015181840152602081019050610843565b60008484015250505050565b6000601f19601f8301169050919050565b600061088682610824565b610890818561082f565b93506108a0818560208601610840565b6108a98161086a565b840191505092915050565b600060208201905081810360008301526108ce818461087b565b905092915050565b600080fd5b6108e4816107e8565b81146108ef57600080fd5b50565b600081359050610901816108db565b92915050565b6000819050919050565b61091a81610907565b811461092557600080fd5b50565b60008135905061093781610911565b92915050565b60008060408385031215610954576109536108d6565b5b6000610962858286016108f2565b925050602061097385828601610928565b9150509250929050565b60008115159050919050565b6109928161097d565b82525050565b60006020820190506109ad6000830184610989565b92915050565b6109bc81610907565b82525050565b60006020820190506109d760008301846109b3565b92915050565b6000806000606084860312156109f6576109f56108d6565b5b6000610a04868287016108f2565b9350506020610a15868287016108f2565b9250506040610a2686828701610928565b9150509250925092565b600060ff82169050919050565b610a4681610a30565b82525050565b6000602082019050610a616000830184610a3d565b92915050565b600060208284031215610a7d57610a7c6108d6565b5b6000610a8b848285016108f2565b91505092915050565b60008060408385031215610aab57610aaa6108d6565b5b6000610ab9858286016108f2565b9250506020610aca858286016108f2565b9150509250929050565b7f4e487b7100000000000000000000000000000000000000000000000000000000600052602260045260246000fd5b60006002820490506001821680610b1b57607f821691505b602082108103610b2e57610b2d610ad4565b5b50919050565b7f45524332303a207472616e7366657220616d6f756e742065786365656473206160008201527f6c6c6f77616e6365000000000000000000000000000000000000000000000000602082015250565b6000610b9060288361082f565b9150610b9b82610b34565b604082019050919050565b60006020820190508181036000830152610bbf81610b83565b9050919050565b7f4e487b7100000000000000000000000000000000000000000000000000000000600052601160045260246000fd5b6000610c0082610907565b9150610c0b83610907565b9250828203905081811115610c2357610c22610bc6565b5b92915050565b7f45524332303a207472616e7366657220616d6f756e742065786365656473206260008201527f616c616e63650000000000000000000000000000000000000000000000000000602082015250565b6000610c8560268361082f565b9150610c9082610c29565b604082019050919050565b60006020820190508181036000830152610cb481610c78565b9050919050565b6000610cc682610907565b9150610cd183610907565b9250828201905080821115610ce957610ce8610bc6565b5b9291505056fea264697066735822122049bb89f0996ad7645a00d182cec767890245f54e533f94ea786a053b30372e2c64736f6c63430008180033a2646970667358221220c4db600bc0a1edb025ae87b639ab1f3060f758bdf2bdcf379c1845cac502a9a464736f6c63430008180033",
  "linkReferences": {},
  "deployedLinkReferences": {}
}