{
  "_format": "hh-sol-artifact-1",
  "contractName": "AgentRegistry",
  "sourceName": "contracts/AgentRegistry.sol",
  "abi": [
    {
      "anonymous": false,
      "inputs": [
        {
          "indexed": true,
          "internalType": "uint256",
          "name": "agentId",
          "type": "uint256"
        },
        {
          "indexed": true,
          "internalType": "address",
          "name": "owner",
          "type": "address"
        },
        {
          "indexed": false,
          "internalType": "string",
          "name": "symbol",
          "type": "string"
        }
      ],
      "name": "AgentCreated",
      "type": "event"
    },
    {
      "anonymous": false,
      "inputs": [
        {
          "indexed": true,
          "internalType": "uint256",
          "name": "agentId",
          "type": "uint256"
        },
        {
          "indexed": true,
          "internalType": "address",
          "name": "from",
          "type": "address"
        },
        {
          "indexed": true,
          "internalType": "address",
          "name": "to",
          "type": "address"
        }
      ],
      "name": "AgentTransferred",
      "type": "event"
    },
    {
      "anonymous": false,
      "inputs": [
        {
          "indexed": true,
          "internalType": "uint256",
          "name": "agentId",
          "type": "uint256"
        },
        {
          "indexed": false,
          "internalType": "string",
          "name": "metadataURI",
          "type": "string"
        }
      ],
      "name": "AgentUpdated",
      "type": "event"
    },
    {
      "inputs": [],
      "name": "MAX_AGENTS_PER_USER",
      "outputs": [
        {
          "internalType": "uint256",
          "name": "",
          "type": "uint256"
        }
      ],
      "stateMutability": "view",
      "type": "function"
    },
    {
      "inputs": [
        {
          "internalType": "uint256",
          "name": "",
          "type": "uint256"
        }
      ],
      "name": "agentIdToIndex",
      "outputs": [
        {
          "internalType": "uint256",
          "name": "",
          "type": "uint256"
        }
      ],
      "stateMutability": "view",
      "type": "function"
    },
    {
      "inputs": [
        {
          "internalType": "uint256",
          "name": "",
          "type": "uint256"
        }
      ],
      "name": "agents",
      "outputs": [
        {
          "internalType": "uint256",
          "name": "id",
          "type": "uint256"
        },
        {
          "internalType": "address",
          "name": "owner",
          "type": "address"
        },
        {
          "internalType": "string",
          "name": "name",
          "type": "string"
        },
        {
          "internalType": "string",
          "name": "symbol",
          "type": "string"
        },
        {
          "internalType": "string",
          "name": "prompt",
          "type": "string"
        },
        {
          "internalType": "string",
          "name": "metadataURI",
          "type": "string"
        },
        {
          "internalType": "bool",
          "name": "exists",
          "type": "bool"
        }
      ],
      "stateMutability": "view",
      "type": "function"
    },
    {
      "inputs": [
        {
          "internalType": "string",
          "name": "_name",
          "type": "string"
        },
        {
          "internalType": "string",
          "name": "_symbol",
          "type": "string"
        },
        {
          "internalType": "string",
          "name": "_prompt",
          "type": "string"
        },
        {
          "internalType": "string",
          "name": "_metadataURI",
          "type": "string"
        }
      ],
      "name": "createAgent",
      "outputs": [
        {
          "internalType": "uint256",
          "name": "",
          "type": "uint256"
        }
      ],
      "stateMutability": "nonpayable",
      "type": "function"
    },
    {
      "inputs": [
        {
          "internalType": "uint256",
          "name": "_agentId",
          "type": "uint256"
        }
      ],
      "name": "getAgent",
      "outputs": [
        {
          "components": [
            {
              "internalType": "uint256",
              "name": "id",
              "type": "uint256"
            },
            {
              "internalType": "address",
              "name": "owner",
              "type": "address"
            },
            {
              "internalType": "string",
              "name": "name",
              "type": "string"
            },
            {
              "internalType": "string",
              "name": "symbol",
              "type": "string"
            },
            {
              "internalType": "string",
              "name": "prompt",
              "type": "string"
            },
            {
              "internalType": "string",
              "name": "metadataURI",
              "type": "string"
            },
            {
              "internalType": "bool",
              "name": "exists",
              "type": "bool"
            }
          ],
          "internalType": "struct AgentRegistry.Agent",
          "name": "",
          "type": "tuple"
        }
      ],
      "stateMutability": "view",
      "type": "function"
    },
    {
      "inputs": [
        {
          "internalType": "address",
          "name": "_owner",
          "type": "address"
        }
      ],
      "name": "getAgentsByOwner",
      "outputs": [
        {
          "internalType": "uint256[]",
          "name": "",
          "type": "uint256[]"
        }
      ],
      "stateMutability": "view",
      "type": "function"
    },
    {
      "inputs": [
        {
          "internalType": "address",
          "name": "_user",
          "type": "address"
        }
      ],
      "name": "getUserAgents",
      "outputs": [
        {
          "internalType": "uint256[]",
          "name": "",
          "type": "uint256[]"
        }
      ],
      "stateMutability": "view",
      "type": "function"
    },
    {
      "inputs": [
        {
          "internalType": "string",
          "name": "",
          "type": "string"
        }
      ],
      "name": "symbolExists",
      "outputs": [
        {
          "internalType": "bool",
          "name": "",
          "type": "bool"
        }
      ],
      "stateMutability": "view",
      "type": "function"
    },
    {
      "inputs": [],
      "name": "totalAgents",
      "outputs": [
        {
          "internalType": "uint256",
          "name": "",
          "type": "uint256"
        }
      ],
      "stateMutability": "view",
      "type": "function"
    },
    {
      "inputs": [
        {
          "internalType": "uint256",
          "name": "_agentId",
          "type": "uint256"
        },
        {
          "internalType": "address",
          "name": "_to",
          "type": "address"
        }
      ],
      "name": "transferAgent",
      "outputs": [],
      "stateMutability": "nonpayable",
      "type": "function"
    },
    {
      "inputs": [
        {
          "internalType": "uint256",
          "name": "_agentId",
          "type": "uint256"
        },
        {
          "internalType": "string",
          "name": "_metadataURI",
          "type": "string"
        }
      ],
      "name": "updateAgent",
      "outputs": [],
      "stateMutability": "nonpayable",
      "type": "function"
    },
    {
      "inputs": [
        {
          "internalType": "address",
          "name": "",
          "type": "address"
        },
        {
          "internalType": "uint256",
          "name": "",
          "type": "uint256"
        }
      ],
      "name": "userAgents",
      "outputs": [
        {
          "internalType": "uint256",
          "name": "",
          "type": "uint256"
        }
      ],
      "stateMutability": "view",
      "type": "function"
    }
  ],
  "bytecode": "0x608060405234801561001057600080fd5b50612669806100206000396000f3fe608060405234801561001057600080fd5b50600436106100b45760003560e01c80638c659fb8116100715780638c659fb8146101df5780638d6d98551461020f578063b3a74f711461022d578063c505371214610249578063d52f1bca14610267578063faa5afa514610283576100b4565b80631ab6f888146100b95780632de5aaf7146100e95780633d46519d14610119578063513856c81461014957806351ca9ff91461017f5780635ad9bc13146101af575b600080fd5b6100d360048036038101906100ce91906116dd565b6102b3565b6040516100e091906117d2565b60405180910390f35b61010360048036038101906100fe9190611820565b610465565b60405161011091906119b8565b60405180910390f35b610133600480360381019061012e91906116dd565b6107b6565b60405161014091906117d2565b60405180910390f35b610163600480360381019061015e9190611820565b61084d565b6040516101769796959493929190611a51565b60405180910390f35b61019960048036038101906101949190611adc565b610adc565b6040516101a69190611b1c565b60405180910390f35b6101c960048036038101906101c49190611c6c565b610b0d565b6040516101d69190611b1c565b60405180910390f35b6101f960048036038101906101f49190611d43565b610fcf565b6040516102069190611d8c565b60405180910390f35b610217611005565b6040516102249190611b1c565b60405180910390f35b61024760048036038101906102429190611da7565b61100a565b005b6102516114b0565b60405161025e9190611b1c565b60405180910390f35b610281600480360381019061027c9190611de7565b6114b6565b005b61029d60048036038101906102989190611820565b6115fe565b6040516102aa9190611b1c565b60405180910390f35b6060600080600190505b6004548111610350578373ffffffffffffffffffffffffffffffffffffffff1660008083815260200190815260200160002060010160009054906101000a900473ffffffffffffffffffffffffffffffffffffffff1673ffffffffffffffffffffffffffffffffffffffff160361033d57818061033990611e72565b9250505b808061034890611e72565b9150506102bd565b5060008167ffffffffffffffff81111561036d5761036c611b41565b5b60405190808252806020026020018201604052801561039b5781602001602082028036833780820191505090505b509050600080600190505b6004548111610459578573ffffffffffffffffffffffffffffffffffffffff1660008083815260200190815260200160002060010160009054906101000a900473ffffffffffffffffffffffffffffffffffffffff1673ffffffffffffffffffffffffffffffffffffffff1603610446578083838151811061042b5761042a611eba565b5b602002602001018181525050818061044290611e72565b9250505b808061045190611e72565b9150506103a6565b50819350505050919050565b61046d611616565b60008083815260200190815260200160002060060160009054906101000a900460ff166104cf576040517f08c379a00000000000000000000000000000000000000000000000000000000081526004016104c690611f35565b60405180910390fd5b6000808381526020019081526020016000206040518060e0016040529081600082015481526020016001820160009054906101000a900473ffffffffffffffffffffffffffffffffffffffff1673ffffffffffffffffffffffffffffffffffffffff1673ffffffffffffffffffffffffffffffffffffffff16815260200160028201805461055c90611f84565b80601f016020809104026020016040519081016040528092919081815260200182805461058890611f84565b80156105d55780601f106105aa576101008083540402835291602001916105d5565b820191906000526020600020905b8154815290600101906020018083116105b857829003601f168201915b505050505081526020016003820180546105ee90611f84565b80601f016020809104026020016040519081016040528092919081815260200182805461061a90611f84565b80156106675780601f1061063c57610100808354040283529160200191610667565b820191906000526020600020905b81548152906001019060200180831161064a57829003601f168201915b5050505050815260200160048201805461068090611f84565b80601f01602080910402602001604051908101604052809291908181526020018280546106ac90611f84565b80156106f95780601f106106ce576101008083540402835291602001916106f9565b820191906000526020600020905b8154815290600101906020018083116106dc57829003601f168201915b5050505050815260200160058201805461071290611f84565b80601f016020809104026020016040519081016040528092919081815260200182805461073e90611f84565b801561078b5780601f106107605761010080835404028352916020019161078b565b820191906000526020600020905b81548152906001019060200180831161076e57829003601f168201915b505050505081526020016006820160009054906101000a900460ff1615151515815250509050919050565b6060600260008373ffffffffffffffffffffffffffffffffffffffff1673ffffffffffffffffffffffffffffffffffffffff16815260200190815260200160002080548060200260200160405190810160405280929190818152602001828054801561084157602002820191906000526020600020905b81548152602001906001019080831161082d575b50505050509050919050565b60006020528060005260406000206000915090508060000154908060010160009054906101000a900473ffffffffffffffffffffffffffffffffffffffff169080600201805461089c90611f84565b80601f01602080910402602001604051908101604052809291908181526020018280546108c890611f84565b80156109155780601f106108ea57610100808354040283529160200191610915565b820191906000526020600020905b8154815290600101906020018083116108f857829003601f168201915b50505050509080600301805461092a90611f84565b80601f016020809104026020016040519081016040528092919081815260200182805461095690611f84565b80156109a35780601f10610978576101008083540402835291602001916109a3565b820191906000526020600020905b81548152906001019060200180831161098657829003601f168201915b5050505050908060040180546109b890611f84565b80601f01602080910402602001604051908101604052809291908181526020018280546109e490611f84565b8015610a315780601f10610a0657610100808354040283529160200191610a31565b820191906000526020600020905b815481529060010190602001808311610a1457829003601f168201915b505050505090806005018054610a4690611f84565b80601f0160208091040260200160405190810160405280929190818152602001828054610a7290611f84565b8015610abf5780601f10610a9457610100808354040283529160200191610abf565b820191906000526020600020905b815481529060010190602001808311610aa257829003601f168201915b5050505050908060060160009054906101000a900460ff16905087565b60026020528160005260406000208181548110610af857600080fd5b90600052602060002001600091509150505481565b600080855111610b52576040517f08c379a0000000000000000000000000000000000000000000000000000000008152600401610b4990612001565b60405180910390fd5b6000845111610b96576040517f08c379a0000000000000000000000000000000000000000000000000000000008152600401610b8d9061206d565b60405180910390fd5b6000835111610bda576040517f08c379a0000000000000000000000000000000000000000000000000000000008152600401610bd1906120d9565b60405180910390fd5b600184604051610bea9190612135565b908152602001604051809103902060009054906101000a900460ff1615610c46576040517f08c379a0000000000000000000000000000000000000000000000000000000008152600401610c3d90612198565b60405180910390fd5b6000600260003373ffffffffffffffffffffffffffffffffffffffff1673ffffffffffffffffffffffffffffffffffffffff168152602001908152602001600020805480602002602001604051908101604052809291908181526020018280548015610cd157602002820191906000526020600020905b815481526020019060010190808311610cbd575b505050505090506032815110610d1c576040517f08c379a0000000000000000000000000000000000000000000000000000000008152600401610d1390612204565b60405180910390fd5b60006001600454610d2d9190612224565b90506040518060e001604052808281526020013373ffffffffffffffffffffffffffffffffffffffff168152602001888152602001878152602001868152602001858152602001600115158152506000808381526020019081526020016000206000820151816000015560208201518160010160006101000a81548173ffffffffffffffffffffffffffffffffffffffff021916908373ffffffffffffffffffffffffffffffffffffffff1602179055506040820151816002019081610df39190612404565b506060820151816003019081610e099190612404565b506080820151816004019081610e1f9190612404565b5060a0820151816005019081610e359190612404565b5060c08201518160060160006101000a81548160ff02191690831515021790555090505060018087604051610e6a9190612135565b908152602001604051809103902060006101000a81548160ff021916908315150217905550600260003373ffffffffffffffffffffffffffffffffffffffff1673ffffffffffffffffffffffffffffffffffffffff1681526020019081526020016000208190806001815401808255809150506001900390600052602060002001600090919091909150556001600260003373ffffffffffffffffffffffffffffffffffffffff1673ffffffffffffffffffffffffffffffffffffffff16815260200190815260200160002080549050610f4491906124d6565b600360008381526020019081526020016000208190555060046000815480929190610f6e90611e72565b91905055503373ffffffffffffffffffffffffffffffffffffffff16817fa5b2eed1bb028a308c4a4b0ebe9c32deeccb838ec53fcf79051a16ee8fc6ac6588604051610fba919061250a565b60405180910390a38092505050949350505050565b6001818051602081018201805184825260208301602085012081835280955050505050506000915054906101000a900460ff1681565b603281565b600080600084815260200190815260200160002090508060060160009054906101000a900460ff16611071576040517f08c379a000000000000000000000000000000000000000000000000000000000815260040161106890611f35565b60405180910390fd5b3373ffffffffffffffffffffffffffffffffffffffff168160010160009054906101000a900473ffffffffffffffffffffffffffffffffffffffff1673ffffffffffffffffffffffffffffffffffffffff1614611103576040517f08c379a00000000000000000000000000000000000000000000000000000000081526004016110fa90612578565b60405180910390fd5b600073ffffffffffffffffffffffffffffffffffffffff168273ffffffffffffffffffffffffffffffffffffffff1603611172576040517f08c379a0000000000000000000000000000000000000000000000000000000008152600401611169906125e4565b60405180910390fd5b60008160010160009054906101000a900473ffffffffffffffffffffffffffffffffffffffff1690506000600360008681526020019081526020016000205490506000600260008473ffffffffffffffffffffffffffffffffffffffff1673ffffffffffffffffffffffffffffffffffffffff1681526020019081526020016000206001600260008673ffffffffffffffffffffffffffffffffffffffff1673ffffffffffffffffffffffffffffffffffffffff1681526020019081526020016000208054905061124391906124d6565b8154811061125457611253611eba565b5b9060005260206000200154905080600260008573ffffffffffffffffffffffffffffffffffffffff1673ffffffffffffffffffffffffffffffffffffffff16815260200190815260200160002083815481106112b3576112b2611eba565b5b9060005260206000200181905550600260008473ffffffffffffffffffffffffffffffffffffffff1673ffffffffffffffffffffffffffffffffffffffff1681526020019081526020016000208054806113105761130f612604565b5b60019003818190600052602060002001600090559055816003600083815260200190815260200160002081905550600260008673ffffffffffffffffffffffffffffffffffffffff1673ffffffffffffffffffffffffffffffffffffffff1681526020019081526020016000208690806001815401808255809150506001900390600052602060002001600090919091909150556001600260008773ffffffffffffffffffffffffffffffffffffffff1673ffffffffffffffffffffffffffffffffffffffff168152602001908152602001600020805490506113f391906124d6565b6003600088815260200190815260200160002081905550848460010160006101000a81548173ffffffffffffffffffffffffffffffffffffffff021916908373ffffffffffffffffffffffffffffffffffffffff1602179055508473ffffffffffffffffffffffffffffffffffffffff168373ffffffffffffffffffffffffffffffffffffffff16877fd6ba5fac6fb963adac1793479c359f94fa1284132187bb1bd9302880a18a8fc360405160405180910390a4505050505050565b60045481565b600080600084815260200190815260200160002090508060060160009054906101000a900460ff1661151d576040517f08c379a000000000000000000000000000000000000000000000000000000000815260040161151490611f35565b60405180910390fd5b3373ffffffffffffffffffffffffffffffffffffffff168160010160009054906101000a900473ffffffffffffffffffffffffffffffffffffffff1673ffffffffffffffffffffffffffffffffffffffff16146115af576040517f08c379a00000000000000000000000000000000000000000000000000000000081526004016115a690612578565b60405180910390fd5b818160050190816115c09190612404565b50827ff0677ec077e6eec8e31d4e8be0cb20b797f3a9dc243e2ddc641532c0ff412036836040516115f1919061250a565b60405180910390a2505050565b60036020528060005260406000206000915090505481565b6040518060e0016040528060008152602001600073ffffffffffffffffffffffffffffffffffffffff168152602001606081526020016060815260200160608152602001606081526020016000151581525090565b6000604051905090565b600080fd5b600080fd5b600073ffffffffffffffffffffffffffffffffffffffff82169050919050565b60006116aa8261167f565b9050919050565b6116ba8161169f565b81146116c557600080fd5b50565b6000813590506116d7816116b1565b92915050565b6000602082840312156116f3576116f2611675565b5b6000611701848285016116c8565b91505092915050565b600081519050919050565b600082825260208201905092915050565b6000819050602082019050919050565b6000819050919050565b61174981611736565b82525050565b600061175b8383611740565b60208301905092915050565b6000602082019050919050565b600061177f8261170a565b6117898185611715565b935061179483611726565b8060005b838110156117c55781516117ac888261174f565b97506117b783611767565b925050600181019050611798565b5085935050505092915050565b600060208201905081810360008301526117ec8184611774565b905092915050565b6117fd81611736565b811461180857600080fd5b50565b60008135905061181a816117f4565b92915050565b60006020828403121561183657611835611675565b5b60006118448482850161180b565b91505092915050565b6118568161169f565b82525050565b600081519050919050565b600082825260208201905092915050565b60005b8381101561189657808201518184015260208101905061187b565b60008484015250505050565b6000601f19601f8301169050919050565b60006118be8261185c565b6118c88185611867565b93506118d8818560208601611878565b6118e1816118a2565b840191505092915050565b60008115159050919050565b611901816118ec565b82525050565b600060e08301600083015161191f6000860182611740565b506020830151611932602086018261184d565b506040830151848203604086015261194a82826118b3565b9150506060830151848203606086015261196482826118b3565b9150506080830151848203608086015261197e82826118b3565b91505060a083015184820360a086015261199882826118b3565b91505060c08301516119ad60c08601826118f8565b508091505092915050565b600060208201905081810360008301526119d28184611907565b905092915050565b6119e381611736565b82525050565b6119f28161169f565b82525050565b600082825260208201905092915050565b6000611a148261185c565b611a1e81856119f8565b9350611a2e818560208601611878565b611a37816118a2565b840191505092915050565b611a4b816118ec565b82525050565b600060e082019050611a66600083018a6119da565b611a7360208301896119e9565b8181036040830152611a858188611a09565b90508181036060830152611a998187611a09565b90508181036080830152611aad8186611a09565b905081810360a0830152611ac18185611a09565b9050611ad060c0830184611a42565b98975050505050505050565b60008060408385031215611af357611af2611675565b5b6000611b01858286016116c8565b9250506020611b128582860161180b565b9150509250929050565b6000602082019050611b3160008301846119da565b92915050565b600080fd5b600080fd5b7f4e487b7100000000000000000000000000000000000000000000000000000000600052604160045260246000fd5b611b79826118a2565b810181811067ffffffffffffffff82111715611b9857611b97611b41565b5b80604052505050565b6000611bab61166b565b9050611bb78282611b70565b919050565b600067ffffffffffffffff821115611bd757611bd6611b41565b5b611be0826118a2565b9050602081019050919050565b82818337600083830152505050565b6000611c0f611c0a84611bbc565b611ba1565b905082815260208101848484011115611c2b57611c2a611b3c565b5b611c36848285611bed565b509392505050565b600082601f830112611c5357611c52611b37565b5b8135611c63848260208601611bfc565b91505092915050565b60008060008060808587031215611c8657611c85611675565b5b600085013567ffffffffffffffff811115611ca457611ca361167a565b5b611cb087828801611c3e565b945050602085013567ffffffffffffffff811115611cd157611cd061167a565b5b611cdd87828801611c3e565b935050604085013567ffffffffffffffff811115611cfe57611cfd61167a565b5b611d0a87828801611c3e565b925050606085013567ffffffffffffffff811115611d2b57611d2a61167a565b5b611d3787828801611c3e565b91505092959194509250565b600060208284031215611d5957611d58611675565b5b600082013567ffffffffffffffff811115611d7757611d7661167a565b5b611d8384828501611c3e565b91505092915050565b6000602082019050611da16000830184611a42565b92915050565b60008060408385031215611dbe57611dbd611675565b5b6000611dcc8582860161180b565b9250506020611ddd858286016116c8565b9150509250929050565b60008060408385031215611dfe57611dfd611675565b5b6000611e0c8582860161180b565b925050602083013567ffffffffffffffff811115611e2d57611e2c61167a565b5b611e3985828601611c3e565b9150509250929050565b7f4e487b7100000000000000000000000000000000000000000000000000000000600052601160045260246000fd5b6000611e7d82611736565b91507fffffffffffffffffffffffffffffffffffffffffffffffffffffffffffffffff8203611eaf57611eae611e43565b5b600182019050919050565b7f4e487b7100000000000000000000000000000000000000000000000000000000600052603260045260246000fd5b7f4167656e7420646f6573206e6f74206578697374000000000000000000000000600082015250565b6000611f1f6014836119f8565b9150611f2a82611ee9565b602082019050919050565b60006020820190508181036000830152611f4e81611f12565b9050919050565b7f4e487b7100000000000000000000000000000000000000000000000000000000600052602260045260246000fd5b60006002820490506001821680611f9c57607f821691505b602082108103611faf57611fae611f55565b5b50919050565b7f4e616d652063616e6e6f7420626520656d707479000000000000000000000000600082015250565b6000611feb6014836119f8565b9150611ff682611fb5565b602082019050919050565b6000602082019050818103600083015261201a81611fde565b9050919050565b7f53796d626f6c2063616e6e6f7420626520656d70747900000000000000000000600082015250565b60006120576016836119f8565b915061206282612021565b602082019050919050565b600060208201905081810360008301526120868161204a565b9050919050565b7f50726f6d70742063616e6e6f7420626520656d70747900000000000000000000600082015250565b60006120c36016836119f8565b91506120ce8261208d565b602082019050919050565b600060208201905081810360008301526120f2816120b6565b9050919050565b600081905092915050565b600061210f8261185c565b61211981856120f9565b9350612129818560208601611878565b80840191505092915050565b60006121418284612104565b915081905092915050565b7f53796d626f6c20616c7265616479206578697374730000000000000000000000600082015250565b60006121826015836119f8565b915061218d8261214c565b602082019050919050565b600060208201905081810360008301526121b181612175565b9050919050565b7f4d6178206167656e747320706572207573657220726561636865640000000000600082015250565b60006121ee601b836119f8565b91506121f9826121b8565b602082019050919050565b6000602082019050818103600083015261221d816121e1565b9050919050565b600061222f82611736565b915061223a83611736565b925082820190508082111561225257612251611e43565b5b92915050565b60008190508160005260206000209050919050565b60006020601f8301049050919050565b600082821b905092915050565b6000600883026122ba7fffffffffffffffffffffffffffffffffffffffffffffffffffffffffffffffff8261227d565b6122c4868361227d565b95508019841693508086168417925050509392505050565b6000819050919050565b60006123016122fc6122f784611736565b6122dc565b611736565b9050919050565b6000819050919050565b61231b836122e6565b61232f61232782612308565b84845461228a565b825550505050565b600090565b612344612337565b61234f818484612312565b505050565b5b818110156123735761236860008261233c565b600181019050612355565b5050565b601f8211156123b85761238981612258565b6123928461226d565b810160208510156123a1578190505b6123b56123ad8561226d565b830182612354565b50505b505050565b600082821c905092915050565b60006123db600019846008026123bd565b1980831691505092915050565b60006123f483836123ca565b9150826002028217905092915050565b61240d8261185c565b67ffffffffffffffff81111561242657612425611b41565b5b6124308254611f84565b61243b828285612377565b600060209050601f83116001811461246e576000841561245c578287015190505b61246685826123e8565b8655506124ce565b601f19841661247c86612258565b60005b828110156124a45784890151825560018201915060208501945060208101905061247f565b868310156124c157848901516124bd601f8916826123ca565b8355505b6001600288020188555050505b505050505050565b60006124e182611736565b91506124ec83611736565b925082820390508181111561250457612503611e43565b5b92915050565b600060208201905081810360008301526125248184611a09565b905092915050565b7f4e6f7420746865206f776e657200000000000000000000000000000000000000600082015250565b6000612562600d836119f8565b915061256d8261252c565b602082019050919050565b6000602082019050818103600083015261259181612555565b9050919050565b7f43616e6e6f74207472616e7366657220746f207a65726f206164647265737300600082015250565b60006125ce601f836119f8565b91506125d982612598565b602082019050919050565b600060208201905081810360008301526125fd816125c1565b9050919050565b7f4e487b7100000000000000000000000000000000000000000000000000000000600052603160045260246000fdfea26469706673582212200eece32125f0f9f375ede5ce8948c4708e7c95d015f9f0489044777232fda32b64736f6c63430008180033",
  "linkReferences": {},
  "deployedLinkReferences": {}
}